{
  "_format": "hh-sol-artifact-1",
  "contractName": "Verifier",
  "sourceName": "contracts/Verifier.sol",
  "abi": [
    {
      "inputs": [
        {
          "internalType": "address",
          "name": "user",
          "type": "address"
        }
      ],
      "name": "verify",
      "outputs": [
        {
          "internalType": "bool",
          "name": "isValid",
          "type": "bool"
        }
      ],
      "stateMutability": "pure",
      "type": "function"
    }
  ],
  "bytecode": "0x608060405234801561001057600080fd5b50610195806100206000396000f3fe608060405234801561001057600080fd5b506004361061002b5760003560e01c806363a9c3d714610030575b600080fd5b61004a600480360381019061004591906100fc565b610060565b6040516100579190610144565b60405180910390f35b60008073ffffffffffffffffffffffffffffffffffffffff168273ffffffffffffffffffffffffffffffffffffffff1614159050919050565b600080fd5b600073ffffffffffffffffffffffffffffffffffffffff82169050919050565b60006100c98261009e565b9050919050565b6100d9816100be565b81146100e457600080fd5b50565b6000813590506100f6816100d0565b92915050565b60006020828403121561011257610111610099565b5b6000610120848285016100e7565b91505092915050565b60008115159050919050565b61013e81610129565b82525050565b60006020820190506101596000830184610135565b9291505056fea264697066735822122090359fcd79add90888df349a3a1cb16ca8987be6b25b513489010078211f3c2664736f6c63430008180033",
  "linkReferences": {},
  "deployedLinkReferences": {}
}