{
  "_format": "hh-sol-artifact-1",
  "contractName": "LanSeller",
  "sourceName": "contracts/Lanseller.sol",
  "abi": [
    {
      "inputs": [
        {
          "internalType": "address",
          "name": "_lstToken",
          "type": "address"
        },
        {
          "internalType": "address",
          "name": "_verifier",
          "type": "address"
        }
      ],
      "stateMutability": "nonpayable",
      "type": "constructor"
    },
    {
      "inputs": [
        {
          "internalType": "address",
          "name": "sender",
          "type": "address"
        },
        {
          "internalType": "uint256",
          "name": "tokenId",
          "type": "uint256"
        },
        {
          "internalType": "address",
          "name": "owner",
          "type": "address"
        }
      ],
      "name": "ERC721IncorrectOwner",
      "type": "error"
    },
    {
      "inputs": [
        {
          "internalType": "address",
          "name": "operator",
          "type": "address"
        },
        {
          "internalType": "uint256",
          "name": "tokenId",
          "type": "uint256"
        }
      ],
      "name": "ERC721InsufficientApproval",
      "type": "error"
    },
    {
      "inputs": [
        {
          "internalType": "address",
          "name": "approver",
          "type": "address"
        }
      ],
      "name": "ERC721InvalidApprover",
      "type": "error"
    },
    {
      "inputs": [
        {
          "internalType": "address",
          "name": "operator",
          "type": "address"
        }
      ],
      "name": "ERC721InvalidOperator",
      "type": "error"
    },
    {
      "inputs": [
        {
          "internalType": "address",
          "name": "owner",
          "type": "address"
        }
      ],
      "name": "ERC721InvalidOwner",
      "type": "error"
    },
    {
      "inputs": [
        {
          "internalType": "address",
          "name": "receiver",
          "type": "address"
        }
      ],
      "name": "ERC721InvalidReceiver",
      "type": "error"
    },
    {
      "inputs": [
        {
          "internalType": "address",
          "name": "sender",
          "type": "address"
        }
      ],
      "name": "ERC721InvalidSender",
      "type": "error"
    },
    {
      "inputs": [
        {
          "internalType": "uint256",
          "name": "tokenId",
          "type": "uint256"
        }
      ],
      "name": "ERC721NonexistentToken",
      "type": "error"
    },
    {
      "inputs": [],
      "name": "ReentrancyGuardReentrantCall",
      "type": "error"
    },
    {
      "anonymous": false,
      "inputs": [
        {
          "indexed": true,
          "internalType": "address",
          "name": "owner",
          "type": "address"
        },
        {
          "indexed": true,
          "internalType": "address",
          "name": "approved",
          "type": "address"
        },
        {
          "indexed": true,
          "internalType": "uint256",
          "name": "tokenId",
          "type": "uint256"
        }
      ],
      "name": "Approval",
      "type": "event"
    },
    {
      "anonymous": false,
      "inputs": [
        {
          "indexed": true,
          "internalType": "address",
          "name": "owner",
          "type": "address"
        },
        {
          "indexed": true,
          "internalType": "address",
          "name": "operator",
          "type": "address"
        },
        {
          "indexed": false,
          "internalType": "bool",
          "name": "approved",
          "type": "bool"
        }
      ],
      "name": "ApprovalForAll",
      "type": "event"
    },
    {
      "anonymous": false,
      "inputs": [
        {
          "indexed": false,
          "internalType": "uint256",
          "name": "_fromTokenId",
          "type": "uint256"
        },
        {
          "indexed": false,
          "internalType": "uint256",
          "name": "_toTokenId",
          "type": "uint256"
        }
      ],
      "name": "BatchMetadataUpdate",
      "type": "event"
    },
    {
      "anonymous": false,
      "inputs": [
        {
          "indexed": true,
          "internalType": "address",
          "name": "user",
          "type": "address"
        }
      ],
      "name": "KYCVerified",
      "type": "event"
    },
    {
      "anonymous": false,
      "inputs": [
        {
          "indexed": false,
          "internalType": "uint256",
          "name": "newFee",
          "type": "uint256"
        }
      ],
      "name": "ListingFeeUpdated",
      "type": "event"
    },
    {
      "anonymous": false,
      "inputs": [
        {
          "indexed": false,
          "internalType": "uint256",
          "name": "_tokenId",
          "type": "uint256"
        }
      ],
      "name": "MetadataUpdate",
      "type": "event"
    },
    {
      "anonymous": false,
      "inputs": [
        {
          "indexed": true,
          "internalType": "address",
          "name": "buyer",
          "type": "address"
        },
        {
          "indexed": true,
          "internalType": "uint256",
          "name": "tokenId",
          "type": "uint256"
        },
        {
          "indexed": false,
          "internalType": "uint256",
          "name": "price",
          "type": "uint256"
        }
      ],
      "name": "PropertyBought",
      "type": "event"
    },
    {
      "anonymous": false,
      "inputs": [
        {
          "indexed": true,
          "internalType": "address",
          "name": "seller",
          "type": "address"
        },
        {
          "indexed": true,
          "internalType": "uint256",
          "name": "tokenId",
          "type": "uint256"
        },
        {
          "indexed": false,
          "internalType": "uint256",
          "name": "price",
          "type": "uint256"
        },
        {
          "indexed": false,
          "internalType": "bool",
          "name": "forSale",
          "type": "bool"
        },
        {
          "indexed": false,
          "internalType": "string",
          "name": "ipfsHash",
          "type": "string"
        }
      ],
      "name": "PropertyListed",
      "type": "event"
    },
    {
      "anonymous": false,
      "inputs": [
        {
          "indexed": true,
          "internalType": "address",
          "name": "seller",
          "type": "address"
        },
        {
          "indexed": true,
          "internalType": "uint256",
          "name": "tokenId",
          "type": "uint256"
        }
      ],
      "name": "PropertyListingCanceled",
      "type": "event"
    },
    {
      "anonymous": false,
      "inputs": [
        {
          "indexed": true,
          "internalType": "address",
          "name": "buyer",
          "type": "address"
        },
        {
          "indexed": true,
          "internalType": "uint256",
          "name": "tokenId",
          "type": "uint256"
        },
        {
          "indexed": false,
          "internalType": "uint256",
          "name": "price",
          "type": "uint256"
        }
      ],
      "name": "PropertySold",
      "type": "event"
    },
    {
      "anonymous": false,
      "inputs": [
        {
          "indexed": true,
          "internalType": "address",
          "name": "from",
          "type": "address"
        },
        {
          "indexed": true,
          "internalType": "address",
          "name": "to",
          "type": "address"
        },
        {
          "indexed": true,
          "internalType": "uint256",
          "name": "tokenId",
          "type": "uint256"
        }
      ],
      "name": "Transfer",
      "type": "event"
    },
    {
      "anonymous": false,
      "inputs": [
        {
          "indexed": true,
          "internalType": "address",
          "name": "to",
          "type": "address"
        },
        {
          "indexed": false,
          "internalType": "uint256",
          "name": "amount",
          "type": "uint256"
        }
      ],
      "name": "Withdrawal",
      "type": "event"
    },
    {
      "stateMutability": "payable",
      "type": "fallback"
    },
    {
      "inputs": [],
      "name": "KYC_VALIDITY_PERIOD",
      "outputs": [
        {
          "internalType": "uint256",
          "name": "",
          "type": "uint256"
        }
      ],
      "stateMutability": "view",
      "type": "function"
    },
    {
      "inputs": [],
      "name": "PRICE_PRECISION",
      "outputs": [
        {
          "internalType": "uint256",
          "name": "",
          "type": "uint256"
        }
      ],
      "stateMutability": "view",
      "type": "function"
    },
    {
      "inputs": [
        {
          "internalType": "address",
          "name": "to",
          "type": "address"
        },
        {
          "internalType": "uint256",
          "name": "tokenId",
          "type": "uint256"
        }
      ],
      "name": "approve",
      "outputs": [],
      "stateMutability": "nonpayable",
      "type": "function"
    },
    {
      "inputs": [
        {
          "internalType": "uint256",
          "name": "tokenId",
          "type": "uint256"
        }
      ],
      "name": "approveContractForTransfer",
      "outputs": [],
      "stateMutability": "nonpayable",
      "type": "function"
    },
    {
      "inputs": [
        {
          "internalType": "address",
          "name": "owner",
          "type": "address"
        }
      ],
      "name": "balanceOf",
      "outputs": [
        {
          "internalType": "uint256",
          "name": "",
          "type": "uint256"
        }
      ],
      "stateMutability": "view",
      "type": "function"
    },
    {
      "inputs": [
        {
          "internalType": "uint256",
          "name": "tokenId",
          "type": "uint256"
        },
        {
          "internalType": "uint256",
          "name": "_amount",
          "type": "uint256"
        }
      ],
      "name": "buyProperty",
      "outputs": [],
      "stateMutability": "nonpayable",
      "type": "function"
    },
    {
      "inputs": [
        {
          "internalType": "uint256",
          "name": "",
          "type": "uint256"
        }
      ],
      "name": "compromisedNFTs",
      "outputs": [
        {
          "internalType": "bool",
          "name": "",
          "type": "bool"
        }
      ],
      "stateMutability": "view",
      "type": "function"
    },
    {
      "inputs": [
        {
          "internalType": "string",
          "name": "tokenURI",
          "type": "string"
        },
        {
          "internalType": "uint256",
          "name": "price",
          "type": "uint256"
        },
        {
          "internalType": "string",
          "name": "ipfsHash",
          "type": "string"
        }
      ],
      "name": "createToken",
      "outputs": [],
      "stateMutability": "nonpayable",
      "type": "function"
    },
    {
      "inputs": [
        {
          "internalType": "uint256",
          "name": "",
          "type": "uint256"
        }
      ],
      "name": "documentHashes",
      "outputs": [
        {
          "internalType": "bytes32",
          "name": "",
          "type": "bytes32"
        }
      ],
      "stateMutability": "view",
      "type": "function"
    },
    {
      "inputs": [
        {
          "internalType": "address",
          "name": "",
          "type": "address"
        }
      ],
      "name": "funds",
      "outputs": [
        {
          "internalType": "uint256",
          "name": "",
          "type": "uint256"
        }
      ],
      "stateMutability": "view",
      "type": "function"
    },
    {
      "inputs": [
        {
          "internalType": "uint256",
          "name": "tokenId",
          "type": "uint256"
        }
      ],
      "name": "getApproved",
      "outputs": [
        {
          "internalType": "address",
          "name": "",
          "type": "address"
        }
      ],
      "stateMutability": "view",
      "type": "function"
    },
    {
      "inputs": [
        {
          "internalType": "address",
          "name": "user",
          "type": "address"
        }
      ],
      "name": "getKYCStatus",
      "outputs": [
        {
          "internalType": "bool",
          "name": "isVerified",
          "type": "bool"
        }
      ],
      "stateMutability": "view",
      "type": "function"
    },
    {
      "inputs": [],
      "name": "getListedProperties",
      "outputs": [
        {
          "components": [
            {
              "internalType": "uint256",
              "name": "tokenId",
              "type": "uint256"
            },
            {
              "internalType": "address",
              "name": "seller",
              "type": "address"
            },
            {
              "internalType": "uint256",
              "name": "price",
              "type": "uint256"
            },
            {
              "internalType": "address",
              "name": "buyer",
              "type": "address"
            },
            {
              "internalType": "bool",
              "name": "forSale",
              "type": "bool"
            },
            {
              "internalType": "string",
              "name": "ipfsHash",
              "type": "string"
            }
          ],
          "internalType": "struct LanSeller.Property[]",
          "name": "",
          "type": "tuple[]"
        }
      ],
      "stateMutability": "view",
      "type": "function"
    },
    {
      "inputs": [],
      "name": "getListingFee",
      "outputs": [
        {
          "internalType": "uint256",
          "name": "",
          "type": "uint256"
        }
      ],
      "stateMutability": "view",
      "type": "function"
    },
    {
      "inputs": [
        {
          "internalType": "uint256",
          "name": "tokenId",
          "type": "uint256"
        }
      ],
      "name": "getProperty",
      "outputs": [
        {
          "components": [
            {
              "internalType": "uint256",
              "name": "tokenId",
              "type": "uint256"
            },
            {
              "internalType": "address",
              "name": "seller",
              "type": "address"
            },
            {
              "internalType": "uint256",
              "name": "price",
              "type": "uint256"
            },
            {
              "internalType": "address",
              "name": "buyer",
              "type": "address"
            },
            {
              "internalType": "bool",
              "name": "forSale",
              "type": "bool"
            },
            {
              "internalType": "string",
              "name": "ipfsHash",
              "type": "string"
            }
          ],
          "internalType": "struct LanSeller.Property",
          "name": "",
          "type": "tuple"
        }
      ],
      "stateMutability": "view",
      "type": "function"
    },
    {
      "inputs": [
        {
          "internalType": "address",
          "name": "seller",
          "type": "address"
        }
      ],
      "name": "getSellerFunds",
      "outputs": [
        {
          "internalType": "uint256",
          "name": "",
          "type": "uint256"
        }
      ],
      "stateMutability": "view",
      "type": "function"
    },
    {
      "inputs": [],
      "name": "getTokenCounter",
      "outputs": [
        {
          "internalType": "uint256",
          "name": "",
          "type": "uint256"
        }
      ],
      "stateMutability": "view",
      "type": "function"
    },
    {
      "inputs": [
        {
          "internalType": "uint256",
          "name": "tokenId",
          "type": "uint256"
        }
      ],
      "name": "getTokenURI",
      "outputs": [
        {
          "internalType": "string",
          "name": "",
          "type": "string"
        }
      ],
      "stateMutability": "view",
      "type": "function"
    },
    {
      "inputs": [
        {
          "internalType": "address",
          "name": "user",
          "type": "address"
        }
      ],
      "name": "hasUserListed",
      "outputs": [
        {
          "internalType": "bool",
          "name": "",
          "type": "bool"
        }
      ],
      "stateMutability": "view",
      "type": "function"
    },
    {
      "inputs": [
        {
          "internalType": "uint256",
          "name": "tokenId",
          "type": "uint256"
        },
        {
          "internalType": "string",
          "name": "newTokenURI",
          "type": "string"
        }
      ],
      "name": "invalidateAndUpgradeNFT",
      "outputs": [],
      "stateMutability": "nonpayable",
      "type": "function"
    },
    {
      "inputs": [
        {
          "internalType": "uint256",
          "name": "tokenId",
          "type": "uint256"
        }
      ],
      "name": "invalidateCompromisedNFT",
      "outputs": [],
      "stateMutability": "nonpayable",
      "type": "function"
    },
    {
      "inputs": [
        {
          "internalType": "address",
          "name": "owner",
          "type": "address"
        },
        {
          "internalType": "address",
          "name": "operator",
          "type": "address"
        }
      ],
      "name": "isApprovedForAll",
      "outputs": [
        {
          "internalType": "bool",
          "name": "",
          "type": "bool"
        }
      ],
      "stateMutability": "view",
      "type": "function"
    },
    {
      "inputs": [
        {
          "internalType": "address",
          "name": "",
          "type": "address"
        }
      ],
      "name": "isSmartWalletConnected",
      "outputs": [
        {
          "internalType": "bool",
          "name": "",
          "type": "bool"
        }
      ],
      "stateMutability": "view",
      "type": "function"
    },
    {
      "inputs": [
        {
          "internalType": "uint256",
          "name": "tokenId",
          "type": "uint256"
        },
        {
          "internalType": "uint256",
          "name": "price",
          "type": "uint256"
        },
        {
          "internalType": "string",
          "name": "ipfsHash",
          "type": "string"
        }
      ],
      "name": "listNewProperty",
      "outputs": [],
      "stateMutability": "nonpayable",
      "type": "function"
    },
    {
      "inputs": [],
      "name": "listingFee",
      "outputs": [
        {
          "internalType": "uint256",
          "name": "",
          "type": "uint256"
        }
      ],
      "stateMutability": "view",
      "type": "function"
    },
    {
      "inputs": [],
      "name": "lstToken",
      "outputs": [
        {
          "internalType": "contract IERC20",
          "name": "",
          "type": "address"
        }
      ],
      "stateMutability": "view",
      "type": "function"
    },
    {
      "inputs": [],
      "name": "name",
      "outputs": [
        {
          "internalType": "string",
          "name": "",
          "type": "string"
        }
      ],
      "stateMutability": "view",
      "type": "function"
    },
    {
      "inputs": [
        {
          "internalType": "uint256",
          "name": "tokenId",
          "type": "uint256"
        }
      ],
      "name": "ownerOf",
      "outputs": [
        {
          "internalType": "address",
          "name": "",
          "type": "address"
        }
      ],
      "stateMutability": "view",
      "type": "function"
    },
    {
      "inputs": [
        {
          "internalType": "uint256",
          "name": "",
          "type": "uint256"
        }
      ],
      "name": "properties",
      "outputs": [
        {
          "internalType": "uint256",
          "name": "tokenId",
          "type": "uint256"
        },
        {
          "internalType": "address",
          "name": "seller",
          "type": "address"
        },
        {
          "internalType": "uint256",
          "name": "price",
          "type": "uint256"
        },
        {
          "internalType": "address",
          "name": "buyer",
          "type": "address"
        },
        {
          "internalType": "bool",
          "name": "forSale",
          "type": "bool"
        },
        {
          "internalType": "string",
          "name": "ipfsHash",
          "type": "string"
        }
      ],
      "stateMutability": "view",
      "type": "function"
    },
    {
      "inputs": [
        {
          "internalType": "uint256",
          "name": "",
          "type": "uint256"
        }
      ],
      "name": "propertyBasenames",
      "outputs": [
        {
          "internalType": "string",
          "name": "",
          "type": "string"
        }
      ],
      "stateMutability": "view",
      "type": "function"
    },
    {
      "inputs": [
        {
          "internalType": "address",
          "name": "from",
          "type": "address"
        },
        {
          "internalType": "address",
          "name": "to",
          "type": "address"
        },
        {
          "internalType": "uint256",
          "name": "tokenId",
          "type": "uint256"
        }
      ],
      "name": "safeTransferFrom",
      "outputs": [],
      "stateMutability": "nonpayable",
      "type": "function"
    },
    {
      "inputs": [
        {
          "internalType": "address",
          "name": "from",
          "type": "address"
        },
        {
          "internalType": "address",
          "name": "to",
          "type": "address"
        },
        {
          "internalType": "uint256",
          "name": "tokenId",
          "type": "uint256"
        },
        {
          "internalType": "bytes",
          "name": "data",
          "type": "bytes"
        }
      ],
      "name": "safeTransferFrom",
      "outputs": [],
      "stateMutability": "nonpayable",
      "type": "function"
    },
    {
      "inputs": [
        {
          "internalType": "address",
          "name": "operator",
          "type": "address"
        },
        {
          "internalType": "bool",
          "name": "approved",
          "type": "bool"
        }
      ],
      "name": "setApprovalForAll",
      "outputs": [],
      "stateMutability": "nonpayable",
      "type": "function"
    },
    {
      "inputs": [
        {
          "internalType": "bytes4",
          "name": "interfaceId",
          "type": "bytes4"
        }
      ],
      "name": "supportsInterface",
      "outputs": [
        {
          "internalType": "bool",
          "name": "",
          "type": "bool"
        }
      ],
      "stateMutability": "view",
      "type": "function"
    },
    {
      "inputs": [],
      "name": "symbol",
      "outputs": [
        {
          "internalType": "string",
          "name": "",
          "type": "string"
        }
      ],
      "stateMutability": "view",
      "type": "function"
    },
    {
      "inputs": [],
      "name": "tokenIdCounter",
      "outputs": [
        {
          "internalType": "uint256",
          "name": "",
          "type": "uint256"
        }
      ],
      "stateMutability": "view",
      "type": "function"
    },
    {
      "inputs": [
        {
          "internalType": "uint256",
          "name": "tokenId",
          "type": "uint256"
        }
      ],
      "name": "tokenURI",
      "outputs": [
        {
          "internalType": "string",
          "name": "",
          "type": "string"
        }
      ],
      "stateMutability": "view",
      "type": "function"
    },
    {
      "inputs": [
        {
          "internalType": "address",
          "name": "from",
          "type": "address"
        },
        {
          "internalType": "address",
          "name": "to",
          "type": "address"
        },
        {
          "internalType": "uint256",
          "name": "tokenId",
          "type": "uint256"
        }
      ],
      "name": "transferFrom",
      "outputs": [],
      "stateMutability": "nonpayable",
      "type": "function"
    },
    {
      "inputs": [
        {
          "internalType": "uint256",
          "name": "_listingFee",
          "type": "uint256"
        }
      ],
      "name": "updateListingFee",
      "outputs": [],
      "stateMutability": "nonpayable",
      "type": "function"
    },
    {
      "inputs": [
        {
          "internalType": "uint256",
          "name": "tokenId",
          "type": "uint256"
        },
        {
          "internalType": "uint256",
          "name": "newPrice",
          "type": "uint256"
        },
        {
          "internalType": "string",
          "name": "ipfsHash",
          "type": "string"
        }
      ],
      "name": "updatePropertyPrice",
      "outputs": [],
      "stateMutability": "nonpayable",
      "type": "function"
    },
    {
      "inputs": [
        {
          "internalType": "address",
          "name": "",
          "type": "address"
        }
      ],
      "name": "userBasenames",
      "outputs": [
        {
          "internalType": "string",
          "name": "",
          "type": "string"
        }
      ],
      "stateMutability": "view",
      "type": "function"
    },
    {
      "inputs": [],
      "name": "verifier",
      "outputs": [
        {
          "internalType": "contract IVerifier",
          "name": "",
          "type": "address"
        }
      ],
      "stateMutability": "view",
      "type": "function"
    },
    {
      "inputs": [
        {
          "internalType": "address",
          "name": "_user",
          "type": "address"
        }
      ],
      "name": "verifyKYC",
      "outputs": [],
      "stateMutability": "nonpayable",
      "type": "function"
    },
    {
      "inputs": [],
      "name": "withdrawFunds",
      "outputs": [],
      "stateMutability": "nonpayable",
      "type": "function"
    },
    {
      "stateMutability": "payable",
      "type": "receive"
    }
  ],
  "bytecode": "0x6080604052670de0b6b3a7640000600c553480156200001d57600080fd5b506040516200546c3803806200546c833981810160405281019062000043919062000226565b6040518060400160405280601981526020017f4c616e5374656c6c61722050726f706572747920546f6b656e000000000000008152506040518060400160405280600481526020017f4c535054000000000000000000000000000000000000000000000000000000008152508160009081620000c09190620004e7565b508060019081620000d29190620004e7565b5050506001600781905550733ec8593f930ea45ea58c968260e6e9ff53fc934f600a60006101000a81548173ffffffffffffffffffffffffffffffffffffffff021916908373ffffffffffffffffffffffffffffffffffffffff16021790555081600960006101000a81548173ffffffffffffffffffffffffffffffffffffffff021916908373ffffffffffffffffffffffffffffffffffffffff16021790555080600d60006101000a81548173ffffffffffffffffffffffffffffffffffffffff021916908373ffffffffffffffffffffffffffffffffffffffff1602179055505050620005ce565b600080fd5b600073ffffffffffffffffffffffffffffffffffffffff82169050919050565b6000620001ee82620001c1565b9050919050565b6200020081620001e1565b81146200020c57600080fd5b50565b6000815190506200022081620001f5565b92915050565b6000806040838503121562000240576200023f620001bc565b5b600062000250858286016200020f565b925050602062000263858286016200020f565b9150509250929050565b600081519050919050565b7f4e487b7100000000000000000000000000000000000000000000000000000000600052604160045260246000fd5b7f4e487b7100000000000000000000000000000000000000000000000000000000600052602260045260246000fd5b60006002820490506001821680620002ef57607f821691505b602082108103620003055762000304620002a7565b5b50919050565b60008190508160005260206000209050919050565b60006020601f8301049050919050565b600082821b905092915050565b6000600883026200036f7fffffffffffffffffffffffffffffffffffffffffffffffffffffffffffffffff8262000330565b6200037b868362000330565b95508019841693508086168417925050509392505050565b6000819050919050565b6000819050919050565b6000620003c8620003c2620003bc8462000393565b6200039d565b62000393565b9050919050565b6000819050919050565b620003e483620003a7565b620003fc620003f382620003cf565b8484546200033d565b825550505050565b600090565b6200041362000404565b62000420818484620003d9565b505050565b5b8181101562000448576200043c60008262000409565b60018101905062000426565b5050565b601f821115620004975762000461816200030b565b6200046c8462000320565b810160208510156200047c578190505b620004946200048b8562000320565b83018262000425565b50505b505050565b600082821c905092915050565b6000620004bc600019846008026200049c565b1980831691505092915050565b6000620004d78383620004a9565b9150826002028217905092915050565b620004f2826200026d565b67ffffffffffffffff8111156200050e576200050d62000278565b5b6200051a8254620002d6565b620005278282856200044c565b600060209050601f8311600181146200055f57600084156200054a578287015190505b620005568582620004c9565b865550620005c6565b601f1984166200056f866200030b565b60005b82811015620005995784890151825560018201915060208501945060208101905062000572565b86831015620005b95784890151620005b5601f891682620004a9565b8355505b6001600288020188555050505b505050505050565b614e8e80620005de6000396000f3fe60806040526004361061026a5760003560e01c8063744c216911610144578063b88d4fde116100b6578063d95bab4d1161007a578063d95bab4d14610a2b578063e2ae93fb14610a54578063e985e9c514610a91578063f37678ae14610ace578063f79d91ae14610af7578063f7b1080814610b20576102aa565b8063b88d4fde14610934578063b8fe6abe1461095d578063bb1cbf0f14610988578063c6c9b5b1146109c5578063c87b56dd146109ee576102aa565b806392daac301161010857806392daac301461083657806395082d251461086157806395d89b411461088c57806398bdf6f5146108b7578063a22cb465146108e2578063a772c9271461090b576102aa565b8063744c21691461072b578063809207181461076857806388978048146107935780638dec2493146107bc5780638e383c6b146107f9576102aa565b806334bc153f116101dd578063509bd4ca116101a1578063509bd4ca146105e15780636352211e1461061e578063679730971461065b5780636a1b7ecc146106985780636e02007d146106c357806370a08231146106ee576102aa565b806334bc153f1461050057806338d16011146105295780633bb3a24d1461055257806342842e0e1461058f5780634ac80d97146105b8576102aa565b80630fb6d6d11161022f5780630fb6d6d1146103f057806319bfbaf91461041b57806323b872dd1461045857806324600fc3146104815780632b7ac3f31461049857806332665ffb146104c3576102aa565b80620c8df0146102e557806301ffc9a71461032257806306fdde031461035f578063081812fc1461038a578063095ea7b3146103c7576102aa565b366102aa576040517f08c379a00000000000000000000000000000000000000000000000000000000081526004016102a190613801565b60405180910390fd5b6040517f08c379a00000000000000000000000000000000000000000000000000000000081526004016102dc90613801565b60405180910390fd5b3480156102f157600080fd5b5061030c60048036038101906103079190613893565b610b62565b60405161031991906138db565b60405180910390f35b34801561032e57600080fd5b506103496004803603810190610344919061394e565b610bb8565b60405161035691906138db565b60405180910390f35b34801561036b57600080fd5b50610374610c19565b60405161038191906139fa565b60405180910390f35b34801561039657600080fd5b506103b160048036038101906103ac9190613a52565b610cab565b6040516103be9190613a8e565b60405180910390f35b3480156103d357600080fd5b506103ee60048036038101906103e99190613aa9565b610cc7565b005b3480156103fc57600080fd5b50610405610cdd565b6040516104129190613cab565b60405180910390f35b34801561042757600080fd5b50610442600480360381019061043d9190613a52565b610fa7565b60405161044f91906138db565b60405180910390f35b34801561046457600080fd5b5061047f600480360381019061047a9190613ccd565b610fc7565b005b34801561048d57600080fd5b506104966110c9565b005b3480156104a457600080fd5b506104ad6112d5565b6040516104ba9190613d7f565b60405180910390f35b3480156104cf57600080fd5b506104ea60048036038101906104e59190613a52565b6112fb565b6040516104f79190613e23565b60405180910390f35b34801561050c57600080fd5b5061052760048036038101906105229190613f7a565b611495565b005b34801561053557600080fd5b50610550600480360381019061054b9190613893565b6115c4565b005b34801561055e57600080fd5b5061057960048036038101906105749190613a52565b61162f565b60405161058691906139fa565b60405180910390f35b34801561059b57600080fd5b506105b660048036038101906105b19190613ccd565b611641565b005b3480156105c457600080fd5b506105df60048036038101906105da9190613a52565b611661565b005b3480156105ed57600080fd5b5061060860048036038101906106039190613893565b6116cd565b6040516106159190613ff8565b60405180910390f35b34801561062a57600080fd5b5061064560048036038101906106409190613a52565b611716565b6040516106529190613a8e565b60405180910390f35b34801561066757600080fd5b50610682600480360381019061067d9190613893565b611728565b60405161068f91906138db565b60405180910390f35b3480156106a457600080fd5b506106ad611748565b6040516106ba9190613ff8565b60405180910390f35b3480156106cf57600080fd5b506106d861174e565b6040516106e59190613ff8565b60405180910390f35b3480156106fa57600080fd5b5061071560048036038101906107109190613893565b611758565b6040516107229190613ff8565b60405180910390f35b34801561073757600080fd5b50610752600480360381019061074d9190613893565b611812565b60405161075f91906139fa565b60405180910390f35b34801561077457600080fd5b5061077d6118b2565b60405161078a9190614034565b60405180910390f35b34801561079f57600080fd5b506107ba60048036038101906107b59190613a52565b6118d8565b005b3480156107c857600080fd5b506107e360048036038101906107de9190613893565b6118e5565b6040516107f091906138db565b60405180910390f35b34801561080557600080fd5b50610820600480360381019061081b9190613a52565b61193b565b60405161082d9190614068565b60405180910390f35b34801561084257600080fd5b5061084b611953565b6040516108589190613ff8565b60405180910390f35b34801561086d57600080fd5b5061087661195b565b6040516108839190613ff8565b60405180910390f35b34801561089857600080fd5b506108a1611968565b6040516108ae91906139fa565b60405180910390f35b3480156108c357600080fd5b506108cc6119fa565b6040516108d99190613ff8565b60405180910390f35b3480156108ee57600080fd5b50610909600480360381019061090491906140af565b611a00565b005b34801561091757600080fd5b50610932600480360381019061092d91906140ef565b611a16565b005b34801561094057600080fd5b5061095b600480360381019061095691906141d0565b611ff5565b005b34801561096957600080fd5b50610972612012565b60405161097f9190613ff8565b60405180910390f35b34801561099457600080fd5b506109af60048036038101906109aa9190613a52565b61201c565b6040516109bc91906139fa565b60405180910390f35b3480156109d157600080fd5b506109ec60048036038101906109e79190614253565b6120bc565b005b3480156109fa57600080fd5b50610a156004803603810190610a109190613a52565b6121e4565b604051610a2291906139fa565b60405180910390f35b348015610a3757600080fd5b50610a526004803603810190610a4d91906142de565b6122f7565b005b348015610a6057600080fd5b50610a7b6004803603810190610a769190613893565b6123cf565b604051610a889190613ff8565b60405180910390f35b348015610a9d57600080fd5b50610ab86004803603810190610ab3919061433a565b6123e7565b604051610ac591906138db565b60405180910390f35b348015610ada57600080fd5b50610af56004803603810190610af09190613f7a565b61247b565b005b348015610b0357600080fd5b50610b1e6004803603810190610b199190613a52565b6125fc565b005b348015610b2c57600080fd5b50610b476004803603810190610b429190613a52565b61263d565b604051610b599695949392919061437a565b60405180910390f35b6000600e60008373ffffffffffffffffffffffffffffffffffffffff1673ffffffffffffffffffffffffffffffffffffffff16815260200190815260200160002060009054906101000a900460ff169050919050565b6000634906490660e01b7bffffffffffffffffffffffffffffffffffffffffffffffffffffffff1916827bffffffffffffffffffffffffffffffffffffffffffffffffffffffff19161480610c125750610c118261274e565b5b9050919050565b606060008054610c2890614411565b80601f0160208091040260200160405190810160405280929190818152602001828054610c5490614411565b8015610ca15780601f10610c7657610100808354040283529160200191610ca1565b820191906000526020600020905b815481529060010190602001808311610c8457829003601f168201915b5050505050905090565b6000610cb682612830565b50610cc0826128b8565b9050919050565b610cd98282610cd46128f5565b6128fd565b5050565b60606000600b549050600080600190505b828111610d4057600f600082815260200190815260200160002060030160149054906101000a900460ff1615610d2d578180610d2990614471565b9250505b8080610d3890614471565b915050610cee565b5060008167ffffffffffffffff811115610d5d57610d5c613e4f565b5b604051908082528060200260200182016040528015610d9657816020015b610d8361371a565b815260200190600190039081610d7b5790505b509050600080600190505b848111610f9c57600f600082815260200190815260200160002060030160149054906101000a900460ff1615610f8957600f60008281526020019081526020016000206040518060c0016040529081600082015481526020016001820160009054906101000a900473ffffffffffffffffffffffffffffffffffffffff1673ffffffffffffffffffffffffffffffffffffffff1673ffffffffffffffffffffffffffffffffffffffff168152602001600282015481526020016003820160009054906101000a900473ffffffffffffffffffffffffffffffffffffffff1673ffffffffffffffffffffffffffffffffffffffff1673ffffffffffffffffffffffffffffffffffffffff1681526020016003820160149054906101000a900460ff16151515158152602001600482018054610eda90614411565b80601f0160208091040260200160405190810160405280929190818152602001828054610f0690614411565b8015610f535780601f10610f2857610100808354040283529160200191610f53565b820191906000526020600020905b815481529060010190602001808311610f3657829003601f168201915b505050505081525050838381518110610f6f57610f6e6144b9565b5b60200260200101819052508180610f8590614471565b9250505b8080610f9490614471565b915050610da1565b508194505050505090565b60136020528060005260406000206000915054906101000a900460ff1681565b600073ffffffffffffffffffffffffffffffffffffffff168273ffffffffffffffffffffffffffffffffffffffff16036110395760006040517f64a0ae920000000000000000000000000000000000000000000000000000000081526004016110309190613a8e565b60405180910390fd5b600061104d83836110486128f5565b61290f565b90508373ffffffffffffffffffffffffffffffffffffffff168173ffffffffffffffffffffffffffffffffffffffff16146110c3578382826040517f64283d7b0000000000000000000000000000000000000000000000000000000081526004016110ba939291906144e8565b60405180910390fd5b50505050565b6110d1612b29565b6000601060003373ffffffffffffffffffffffffffffffffffffffff1673ffffffffffffffffffffffffffffffffffffffff16815260200190815260200160002054905060008111611158576040517f08c379a000000000000000000000000000000000000000000000000000000000815260040161114f9061456b565b60405180910390fd5b6000601060003373ffffffffffffffffffffffffffffffffffffffff1673ffffffffffffffffffffffffffffffffffffffff16815260200190815260200160002081905550600960009054906101000a900473ffffffffffffffffffffffffffffffffffffffff1673ffffffffffffffffffffffffffffffffffffffff1663a9059cbb33836040518363ffffffff1660e01b81526004016111fa92919061458b565b6020604051808303816000875af1158015611219573d6000803e3d6000fd5b505050506040513d601f19601f8201168201806040525081019061123d91906145c9565b61127c576040517f08c379a000000000000000000000000000000000000000000000000000000000815260040161127390614642565b60405180910390fd5b3373ffffffffffffffffffffffffffffffffffffffff167f7fcf532c15f0a6db0bd6d0e038bea71d30d808c7d98cb3bf7268a95bf5081b65826040516112c29190613ff8565b60405180910390a2506112d3612b6f565b565b600d60009054906101000a900473ffffffffffffffffffffffffffffffffffffffff1681565b61130361371a565b600f60008381526020019081526020016000206040518060c0016040529081600082015481526020016001820160009054906101000a900473ffffffffffffffffffffffffffffffffffffffff1673ffffffffffffffffffffffffffffffffffffffff1673ffffffffffffffffffffffffffffffffffffffff168152602001600282015481526020016003820160009054906101000a900473ffffffffffffffffffffffffffffffffffffffff1673ffffffffffffffffffffffffffffffffffffffff1673ffffffffffffffffffffffffffffffffffffffff1681526020016003820160149054906101000a900460ff1615151515815260200160048201805461140c90614411565b80601f016020809104026020016040519081016040528092919081815260200182805461143890614411565b80156114855780601f1061145a57610100808354040283529160200191611485565b820191906000526020600020905b81548152906001019060200180831161146857829003601f168201915b5050505050815250509050919050565b823373ffffffffffffffffffffffffffffffffffffffff166114b682611716565b73ffffffffffffffffffffffffffffffffffffffff161461150c576040517f08c379a0000000000000000000000000000000000000000000000000000000008152600401611503906146ae565b60405180910390fd5b6000831161154f576040517f08c379a00000000000000000000000000000000000000000000000000000000081526004016115469061471a565b60405180910390fd5b82600f600086815260200190815260200160002060020181905550833373ffffffffffffffffffffffffffffffffffffffff167fa4043420082106818c012932beaa592e9685cdce8d3ce850b5dd7f6d33c395c9856001866040516115b69392919061473a565b60405180910390a350505050565b6115cc612b29565b6001600e60008373ffffffffffffffffffffffffffffffffffffffff1673ffffffffffffffffffffffffffffffffffffffff16815260200190815260200160002060006101000a81548160ff02191690831515021790555061162c612b6f565b50565b606061163a826121e4565b9050919050565b61165c83838360405180602001604052806000815250611ff5565b505050565b6013600082815260200190815260200160002060009054906101000a900460ff166116c1576040517f08c379a00000000000000000000000000000000000000000000000000000000081526004016116b8906147c4565b60405180910390fd5b6116ca81612b79565b50565b6000601060008373ffffffffffffffffffffffffffffffffffffffff1673ffffffffffffffffffffffffffffffffffffffff168152602001908152602001600020549050919050565b600061172182612830565b9050919050565b60166020528060005260406000206000915054906101000a900460ff1681565b600c5481565b6000600b54905090565b60008073ffffffffffffffffffffffffffffffffffffffff168273ffffffffffffffffffffffffffffffffffffffff16036117cb5760006040517f89c62b640000000000000000000000000000000000000000000000000000000081526004016117c29190613a8e565b60405180910390fd5b600360008373ffffffffffffffffffffffffffffffffffffffff1673ffffffffffffffffffffffffffffffffffffffff168152602001908152602001600020549050919050565b6011602052806000526040600020600091509050805461183190614411565b80601f016020809104026020016040519081016040528092919081815260200182805461185d90614411565b80156118aa5780601f1061187f576101008083540402835291602001916118aa565b820191906000526020600020905b81548152906001019060200180831161188d57829003601f168201915b505050505081565b600960009054906101000a900473ffffffffffffffffffffffffffffffffffffffff1681565b6118e23082610cc7565b50565b6000601260008373ffffffffffffffffffffffffffffffffffffffff1673ffffffffffffffffffffffffffffffffffffffff16815260200190815260200160002060009054906101000a900460ff169050919050565b60146020528060005260406000206000915090505481565b6301e1338081565b68056bc75e2d6310000081565b60606001805461197790614411565b80601f01602080910402602001604051908101604052809291908181526020018280546119a390614411565b80156119f05780601f106119c5576101008083540402835291602001916119f0565b820191906000526020600020905b8154815290600101906020018083116119d357829003601f168201915b5050505050905090565b600b5481565b611a12611a0b6128f5565b8383612bff565b5050565b81600f600082815260200190815260200160002060030160149054906101000a900460ff16611a7a576040517f08c379a0000000000000000000000000000000000000000000000000000000008152600401611a7190614830565b60405180910390fd5b611a82612b29565b6000600f60008581526020019081526020016000206040518060c0016040529081600082015481526020016001820160009054906101000a900473ffffffffffffffffffffffffffffffffffffffff1673ffffffffffffffffffffffffffffffffffffffff1673ffffffffffffffffffffffffffffffffffffffff168152602001600282015481526020016003820160009054906101000a900473ffffffffffffffffffffffffffffffffffffffff1673ffffffffffffffffffffffffffffffffffffffff1673ffffffffffffffffffffffffffffffffffffffff1681526020016003820160149054906101000a900460ff16151515158152602001600482018054611b8d90614411565b80601f0160208091040260200160405190810160405280929190818152602001828054611bb990614411565b8015611c065780601f10611bdb57610100808354040283529160200191611c06565b820191906000526020600020905b815481529060010190602001808311611be957829003601f168201915b5050505050815250509050600060648260400151611c24919061487f565b9050808260400151611c3691906148b0565b841015611c78576040517f08c379a0000000000000000000000000000000000000000000000000000000008152600401611c6f90614930565b60405180910390fd5b808260400151611c8891906148b0565b600960009054906101000a900473ffffffffffffffffffffffffffffffffffffffff1673ffffffffffffffffffffffffffffffffffffffff166370a08231336040518263ffffffff1660e01b8152600401611ce39190613a8e565b602060405180830381865afa158015611d00573d6000803e3d6000fd5b505050506040513d601f19601f82011682018060405250810190611d249190614965565b1015611d65576040517f08c379a0000000000000000000000000000000000000000000000000000000008152600401611d5c906149de565b60405180910390fd5b6000849050600960009054906101000a900473ffffffffffffffffffffffffffffffffffffffff1673ffffffffffffffffffffffffffffffffffffffff166323b872dd3330846040518463ffffffff1660e01b8152600401611dc9939291906149fe565b6020604051808303816000875af1158015611de8573d6000803e3d6000fd5b505050506040513d601f19601f82011682018060405250810190611e0c91906145c9565b611e4b576040517f08c379a0000000000000000000000000000000000000000000000000000000008152600401611e4290614642565b60405180910390fd5b826040015160106000856020015173ffffffffffffffffffffffffffffffffffffffff1673ffffffffffffffffffffffffffffffffffffffff1681526020019081526020016000206000828254611ea291906148b0565b9250508190555081601060003073ffffffffffffffffffffffffffffffffffffffff1673ffffffffffffffffffffffffffffffffffffffff1681526020019081526020016000206000828254611ef891906148b0565b925050819055506000600f600088815260200190815260200160002060030160146101000a81548160ff021916908315150217905550611f3d83602001513388611641565b33600f600088815260200190815260200160002060010160006101000a81548173ffffffffffffffffffffffffffffffffffffffff021916908373ffffffffffffffffffffffffffffffffffffffff160217905550853373ffffffffffffffffffffffffffffffffffffffff167f17b4722101958f228ab97d24ff9624947f4ad9586617e0a8d5450f8248e8f57f8560400151604051611fdd9190613ff8565b60405180910390a3505050611ff0612b6f565b505050565b612000848484610fc7565b61200c84848484612d6e565b50505050565b6000600c54905090565b6015602052806000526040600020600091509050805461203b90614411565b80601f016020809104026020016040519081016040528092919081815260200182805461206790614411565b80156120b45780601f10612089576101008083540402835291602001916120b4565b820191906000526020600020905b81548152906001019060200180831161209757829003601f168201915b505050505081565b600e60003373ffffffffffffffffffffffffffffffffffffffff1673ffffffffffffffffffffffffffffffffffffffff16815260200190815260200160002060009054906101000a900460ff16612148576040517f08c379a000000000000000000000000000000000000000000000000000000000815260040161213f90614a81565b60405180910390fd5b600b600081548092919061215b90614471565b91905055506000600b5490506121713382612f25565b61217b818561301e565b61218681848461247b565b6001601260003373ffffffffffffffffffffffffffffffffffffffff1673ffffffffffffffffffffffffffffffffffffffff16815260200190815260200160002060006101000a81548160ff02191690831515021790555050505050565b60606121ef82612830565b50600060066000848152602001908152602001600020805461221090614411565b80601f016020809104026020016040519081016040528092919081815260200182805461223c90614411565b80156122895780601f1061225e57610100808354040283529160200191612289565b820191906000526020600020905b81548152906001019060200180831161226c57829003601f168201915b50505050509050600061229a61302c565b905060008151036122af5781925050506122f2565b6000825111156122e45780826040516020016122cc929190614add565b604051602081830303815290604052925050506122f2565b6122ed84613043565b925050505b919050565b813373ffffffffffffffffffffffffffffffffffffffff1661231882611716565b73ffffffffffffffffffffffffffffffffffffffff161461236e576040517f08c379a0000000000000000000000000000000000000000000000000000000008152600401612365906146ae565b60405180910390fd5b60016013600085815260200190815260200160002060006101000a81548160ff0219169083151502179055506000600b60008154809291906123af90614471565b9190505590506123bf3382612f25565b6123c9818461301e565b50505050565b60106020528060005260406000206000915090505481565b6000600560008473ffffffffffffffffffffffffffffffffffffffff1673ffffffffffffffffffffffffffffffffffffffff16815260200190815260200160002060008373ffffffffffffffffffffffffffffffffffffffff1673ffffffffffffffffffffffffffffffffffffffff16815260200190815260200160002060009054906101000a900460ff16905092915050565b600e60003373ffffffffffffffffffffffffffffffffffffffff1673ffffffffffffffffffffffffffffffffffffffff16815260200190815260200160002060009054906101000a900460ff16612507576040517f08c379a00000000000000000000000000000000000000000000000000000000081526004016124fe90614a81565b60405180910390fd5b6000600f60008581526020019081526020016000209050838160000181905550338160010160006101000a81548173ffffffffffffffffffffffffffffffffffffffff021916908373ffffffffffffffffffffffffffffffffffffffff16021790555082816002018190555060018160030160146101000a81548160ff021916908315150217905550818160040190816125a19190614ca3565b50833373ffffffffffffffffffffffffffffffffffffffff167fa4043420082106818c012932beaa592e9685cdce8d3ce850b5dd7f6d33c395c9856001866040516125ee9392919061473a565b60405180910390a350505050565b80600c819055507f5fb4654f1efe30c6141eaa6855ffcb27e0b361d899b05e21b1a4d0b3e71e14db816040516126329190613ff8565b60405180910390a150565b600f6020528060005260406000206000915090508060000154908060010160009054906101000a900473ffffffffffffffffffffffffffffffffffffffff16908060020154908060030160009054906101000a900473ffffffffffffffffffffffffffffffffffffffff16908060030160149054906101000a900460ff16908060040180546126cb90614411565b80601f01602080910402602001604051908101604052809291908181526020018280546126f790614411565b80156127445780601f1061271957610100808354040283529160200191612744565b820191906000526020600020905b81548152906001019060200180831161272757829003601f168201915b5050505050905086565b60007f80ac58cd000000000000000000000000000000000000000000000000000000007bffffffffffffffffffffffffffffffffffffffffffffffffffffffff1916827bffffffffffffffffffffffffffffffffffffffffffffffffffffffff1916148061281957507f5b5e139f000000000000000000000000000000000000000000000000000000007bffffffffffffffffffffffffffffffffffffffffffffffffffffffff1916827bffffffffffffffffffffffffffffffffffffffffffffffffffffffff1916145b806128295750612828826130ac565b5b9050919050565b60008061283c83613116565b9050600073ffffffffffffffffffffffffffffffffffffffff168173ffffffffffffffffffffffffffffffffffffffff16036128af57826040517f7e2732890000000000000000000000000000000000000000000000000000000081526004016128a69190613ff8565b60405180910390fd5b80915050919050565b60006004600083815260200190815260200160002060009054906101000a900473ffffffffffffffffffffffffffffffffffffffff169050919050565b600033905090565b61290a8383836001613153565b505050565b60008061291b84613116565b9050600073ffffffffffffffffffffffffffffffffffffffff168373ffffffffffffffffffffffffffffffffffffffff161461295d5761295c818486613318565b5b600073ffffffffffffffffffffffffffffffffffffffff168173ffffffffffffffffffffffffffffffffffffffff16146129ee5761299f600085600080613153565b6001600360008373ffffffffffffffffffffffffffffffffffffffff1673ffffffffffffffffffffffffffffffffffffffff168152602001908152602001600020600082825403925050819055505b600073ffffffffffffffffffffffffffffffffffffffff168573ffffffffffffffffffffffffffffffffffffffff1614612a71576001600360008773ffffffffffffffffffffffffffffffffffffffff1673ffffffffffffffffffffffffffffffffffffffff168152602001908152602001600020600082825401925050819055505b846002600086815260200190815260200160002060006101000a81548173ffffffffffffffffffffffffffffffffffffffff021916908373ffffffffffffffffffffffffffffffffffffffff160217905550838573ffffffffffffffffffffffffffffffffffffffff168273ffffffffffffffffffffffffffffffffffffffff167fddf252ad1be2c89b69c2b068fc378daa952ba7f163c4a11628f55a4df523b3ef60405160405180910390a4809150509392505050565b600260075403612b65576040517f3ee5aeb500000000000000000000000000000000000000000000000000000000815260040160405180910390fd5b6002600781905550565b6001600781905550565b6000612b88600083600061290f565b9050600073ffffffffffffffffffffffffffffffffffffffff168173ffffffffffffffffffffffffffffffffffffffff1603612bfb57816040517f7e273289000000000000000000000000000000000000000000000000000000008152600401612bf29190613ff8565b60405180910390fd5b5050565b600073ffffffffffffffffffffffffffffffffffffffff168273ffffffffffffffffffffffffffffffffffffffff1603612c7057816040517f5b08ba18000000000000000000000000000000000000000000000000000000008152600401612c679190613a8e565b60405180910390fd5b80600560008573ffffffffffffffffffffffffffffffffffffffff1673ffffffffffffffffffffffffffffffffffffffff16815260200190815260200160002060008473ffffffffffffffffffffffffffffffffffffffff1673ffffffffffffffffffffffffffffffffffffffff16815260200190815260200160002060006101000a81548160ff0219169083151502179055508173ffffffffffffffffffffffffffffffffffffffff168373ffffffffffffffffffffffffffffffffffffffff167f17307eab39ab6107e8899845ad3d59bd9653f200f220920489ca2b5937696c3183604051612d6191906138db565b60405180910390a3505050565b60008373ffffffffffffffffffffffffffffffffffffffff163b1115612f1f578273ffffffffffffffffffffffffffffffffffffffff1663150b7a02612db26128f5565b8685856040518563ffffffff1660e01b8152600401612dd49493929190614dca565b6020604051808303816000875af1925050508015612e1057506040513d601f19601f82011682018060405250810190612e0d9190614e2b565b60015b612e94573d8060008114612e40576040519150601f19603f3d011682016040523d82523d6000602084013e612e45565b606091505b506000815103612e8c57836040517f64a0ae92000000000000000000000000000000000000000000000000000000008152600401612e839190613a8e565b60405180910390fd5b805181602001fd5b63150b7a0260e01b7bffffffffffffffffffffffffffffffffffffffffffffffffffffffff1916817bffffffffffffffffffffffffffffffffffffffffffffffffffffffff191614612f1d57836040517f64a0ae92000000000000000000000000000000000000000000000000000000008152600401612f149190613a8e565b60405180910390fd5b505b50505050565b600073ffffffffffffffffffffffffffffffffffffffff168273ffffffffffffffffffffffffffffffffffffffff1603612f975760006040517f64a0ae92000000000000000000000000000000000000000000000000000000008152600401612f8e9190613a8e565b60405180910390fd5b6000612fa58383600061290f565b9050600073ffffffffffffffffffffffffffffffffffffffff168173ffffffffffffffffffffffffffffffffffffffff16146130195760006040517f73c6ac6e0000000000000000000000000000000000000000000000000000000081526004016130109190613a8e565b60405180910390fd5b505050565b61302882826133dc565b5050565b606060405180602001604052806000815250905090565b606061304e82612830565b50600061305961302c565b9050600081511161307957604051806020016040528060008152506130a4565b8061308384613438565b604051602001613094929190614add565b6040516020818303038152906040525b915050919050565b60007f01ffc9a7000000000000000000000000000000000000000000000000000000007bffffffffffffffffffffffffffffffffffffffffffffffffffffffff1916827bffffffffffffffffffffffffffffffffffffffffffffffffffffffff1916149050919050565b60006002600083815260200190815260200160002060009054906101000a900473ffffffffffffffffffffffffffffffffffffffff169050919050565b808061318c5750600073ffffffffffffffffffffffffffffffffffffffff168273ffffffffffffffffffffffffffffffffffffffff1614155b156132c057600061319c84612830565b9050600073ffffffffffffffffffffffffffffffffffffffff168373ffffffffffffffffffffffffffffffffffffffff161415801561320757508273ffffffffffffffffffffffffffffffffffffffff168173ffffffffffffffffffffffffffffffffffffffff1614155b801561321a575061321881846123e7565b155b1561325c57826040517fa9fbf51f0000000000000000000000000000000000000000000000000000000081526004016132539190613a8e565b60405180910390fd5b81156132be57838573ffffffffffffffffffffffffffffffffffffffff168273ffffffffffffffffffffffffffffffffffffffff167f8c5be1e5ebec7d5bd14f71427d1e84f3dd0314c0f7b2291e5b200ac8c7c3b92560405160405180910390a45b505b836004600085815260200190815260200160002060006101000a81548173ffffffffffffffffffffffffffffffffffffffff021916908373ffffffffffffffffffffffffffffffffffffffff16021790555050505050565b613323838383613506565b6133d757600073ffffffffffffffffffffffffffffffffffffffff168373ffffffffffffffffffffffffffffffffffffffff160361339857806040517f7e27328900000000000000000000000000000000000000000000000000000000815260040161338f9190613ff8565b60405180910390fd5b81816040517f177e802f0000000000000000000000000000000000000000000000000000000081526004016133ce92919061458b565b60405180910390fd5b505050565b806006600084815260200190815260200160002090816133fc9190614ca3565b507ff8e1a15aba9398e019f0b49df1a4fde98ee17ae345cb5f6b5e2c27f5033e8ce78260405161342c9190613ff8565b60405180910390a15050565b606060006001613447846135c7565b01905060008167ffffffffffffffff81111561346657613465613e4f565b5b6040519080825280601f01601f1916602001820160405280156134985781602001600182028036833780820191505090505b509050600082602001820190505b6001156134fb578080600190039150507f3031323334353637383961626364656600000000000000000000000000000000600a86061a8153600a85816134ef576134ee614850565b5b049450600085036134a6575b819350505050919050565b60008073ffffffffffffffffffffffffffffffffffffffff168373ffffffffffffffffffffffffffffffffffffffff16141580156135be57508273ffffffffffffffffffffffffffffffffffffffff168473ffffffffffffffffffffffffffffffffffffffff16148061357f575061357e84846123e7565b5b806135bd57508273ffffffffffffffffffffffffffffffffffffffff166135a5836128b8565b73ffffffffffffffffffffffffffffffffffffffff16145b5b90509392505050565b600080600090507a184f03e93ff9f4daa797ed6e38ed64bf6a1f0100000000000000008310613625577a184f03e93ff9f4daa797ed6e38ed64bf6a1f010000000000000000838161361b5761361a614850565b5b0492506040810190505b6d04ee2d6d415b85acef81000000008310613662576d04ee2d6d415b85acef8100000000838161365857613657614850565b5b0492506020810190505b662386f26fc10000831061369157662386f26fc10000838161368757613686614850565b5b0492506010810190505b6305f5e10083106136ba576305f5e10083816136b0576136af614850565b5b0492506008810190505b61271083106136df5761271083816136d5576136d4614850565b5b0492506004810190505b6064831061370257606483816136f8576136f7614850565b5b0492506002810190505b600a8310613711576001810190505b80915050919050565b6040518060c0016040528060008152602001600073ffffffffffffffffffffffffffffffffffffffff16815260200160008152602001600073ffffffffffffffffffffffffffffffffffffffff168152602001600015158152602001606081525090565b600082825260208201905092915050565b7f5468697320636f6e747261637420646f6573206e6f742061636365707420457460008201527f6865720000000000000000000000000000000000000000000000000000000000602082015250565b60006137eb60238361377e565b91506137f68261378f565b604082019050919050565b6000602082019050818103600083015261381a816137de565b9050919050565b6000604051905090565b600080fd5b600080fd5b600073ffffffffffffffffffffffffffffffffffffffff82169050919050565b600061386082613835565b9050919050565b61387081613855565b811461387b57600080fd5b50565b60008135905061388d81613867565b92915050565b6000602082840312156138a9576138a861382b565b5b60006138b78482850161387e565b91505092915050565b60008115159050919050565b6138d5816138c0565b82525050565b60006020820190506138f060008301846138cc565b92915050565b60007fffffffff0000000000000000000000000000000000000000000000000000000082169050919050565b61392b816138f6565b811461393657600080fd5b50565b60008135905061394881613922565b92915050565b6000602082840312156139645761396361382b565b5b600061397284828501613939565b91505092915050565b600081519050919050565b60005b838110156139a4578082015181840152602081019050613989565b60008484015250505050565b6000601f19601f8301169050919050565b60006139cc8261397b565b6139d6818561377e565b93506139e6818560208601613986565b6139ef816139b0565b840191505092915050565b60006020820190508181036000830152613a1481846139c1565b905092915050565b6000819050919050565b613a2f81613a1c565b8114613a3a57600080fd5b50565b600081359050613a4c81613a26565b92915050565b600060208284031215613a6857613a6761382b565b5b6000613a7684828501613a3d565b91505092915050565b613a8881613855565b82525050565b6000602082019050613aa36000830184613a7f565b92915050565b60008060408385031215613ac057613abf61382b565b5b6000613ace8582860161387e565b9250506020613adf85828601613a3d565b9150509250929050565b600081519050919050565b600082825260208201905092915050565b6000819050602082019050919050565b613b1e81613a1c565b82525050565b613b2d81613855565b82525050565b613b3c816138c0565b82525050565b600082825260208201905092915050565b6000613b5e8261397b565b613b688185613b42565b9350613b78818560208601613986565b613b81816139b0565b840191505092915050565b600060c083016000830151613ba46000860182613b15565b506020830151613bb76020860182613b24565b506040830151613bca6040860182613b15565b506060830151613bdd6060860182613b24565b506080830151613bf06080860182613b33565b5060a083015184820360a0860152613c088282613b53565b9150508091505092915050565b6000613c218383613b8c565b905092915050565b6000602082019050919050565b6000613c4182613ae9565b613c4b8185613af4565b935083602082028501613c5d85613b05565b8060005b85811015613c995784840389528151613c7a8582613c15565b9450613c8583613c29565b925060208a01995050600181019050613c61565b50829750879550505050505092915050565b60006020820190508181036000830152613cc58184613c36565b905092915050565b600080600060608486031215613ce657613ce561382b565b5b6000613cf48682870161387e565b9350506020613d058682870161387e565b9250506040613d1686828701613a3d565b9150509250925092565b6000819050919050565b6000613d45613d40613d3b84613835565b613d20565b613835565b9050919050565b6000613d5782613d2a565b9050919050565b6000613d6982613d4c565b9050919050565b613d7981613d5e565b82525050565b6000602082019050613d946000830184613d70565b92915050565b600060c083016000830151613db26000860182613b15565b506020830151613dc56020860182613b24565b506040830151613dd86040860182613b15565b506060830151613deb6060860182613b24565b506080830151613dfe6080860182613b33565b5060a083015184820360a0860152613e168282613b53565b9150508091505092915050565b60006020820190508181036000830152613e3d8184613d9a565b905092915050565b600080fd5b600080fd5b7f4e487b7100000000000000000000000000000000000000000000000000000000600052604160045260246000fd5b613e87826139b0565b810181811067ffffffffffffffff82111715613ea657613ea5613e4f565b5b80604052505050565b6000613eb9613821565b9050613ec58282613e7e565b919050565b600067ffffffffffffffff821115613ee557613ee4613e4f565b5b613eee826139b0565b9050602081019050919050565b82818337600083830152505050565b6000613f1d613f1884613eca565b613eaf565b905082815260208101848484011115613f3957613f38613e4a565b5b613f44848285613efb565b509392505050565b600082601f830112613f6157613f60613e45565b5b8135613f71848260208601613f0a565b91505092915050565b600080600060608486031215613f9357613f9261382b565b5b6000613fa186828701613a3d565b9350506020613fb286828701613a3d565b925050604084013567ffffffffffffffff811115613fd357613fd2613830565b5b613fdf86828701613f4c565b9150509250925092565b613ff281613a1c565b82525050565b600060208201905061400d6000830184613fe9565b92915050565b600061401e82613d4c565b9050919050565b61402e81614013565b82525050565b60006020820190506140496000830184614025565b92915050565b6000819050919050565b6140628161404f565b82525050565b600060208201905061407d6000830184614059565b92915050565b61408c816138c0565b811461409757600080fd5b50565b6000813590506140a981614083565b92915050565b600080604083850312156140c6576140c561382b565b5b60006140d48582860161387e565b92505060206140e58582860161409a565b9150509250929050565b600080604083850312156141065761410561382b565b5b600061411485828601613a3d565b925050602061412585828601613a3d565b9150509250929050565b600067ffffffffffffffff82111561414a57614149613e4f565b5b614153826139b0565b9050602081019050919050565b600061417361416e8461412f565b613eaf565b90508281526020810184848401111561418f5761418e613e4a565b5b61419a848285613efb565b509392505050565b600082601f8301126141b7576141b6613e45565b5b81356141c7848260208601614160565b91505092915050565b600080600080608085870312156141ea576141e961382b565b5b60006141f88782880161387e565b94505060206142098782880161387e565b935050604061421a87828801613a3d565b925050606085013567ffffffffffffffff81111561423b5761423a613830565b5b614247878288016141a2565b91505092959194509250565b60008060006060848603121561426c5761426b61382b565b5b600084013567ffffffffffffffff81111561428a57614289613830565b5b61429686828701613f4c565b93505060206142a786828701613a3d565b925050604084013567ffffffffffffffff8111156142c8576142c7613830565b5b6142d486828701613f4c565b9150509250925092565b600080604083850312156142f5576142f461382b565b5b600061430385828601613a3d565b925050602083013567ffffffffffffffff81111561432457614323613830565b5b61433085828601613f4c565b9150509250929050565b600080604083850312156143515761435061382b565b5b600061435f8582860161387e565b92505060206143708582860161387e565b9150509250929050565b600060c08201905061438f6000830189613fe9565b61439c6020830188613a7f565b6143a96040830187613fe9565b6143b66060830186613a7f565b6143c360808301856138cc565b81810360a08301526143d581846139c1565b9050979650505050505050565b7f4e487b7100000000000000000000000000000000000000000000000000000000600052602260045260246000fd5b6000600282049050600182168061442957607f821691505b60208210810361443c5761443b6143e2565b5b50919050565b7f4e487b7100000000000000000000000000000000000000000000000000000000600052601160045260246000fd5b600061447c82613a1c565b91507fffffffffffffffffffffffffffffffffffffffffffffffffffffffffffffffff82036144ae576144ad614442565b5b600182019050919050565b7f4e487b7100000000000000000000000000000000000000000000000000000000600052603260045260246000fd5b60006060820190506144fd6000830186613a7f565b61450a6020830185613fe9565b6145176040830184613a7f565b949350505050565b7f4e6f2070726f636565647320746f207769746864726177000000000000000000600082015250565b600061455560178361377e565b91506145608261451f565b602082019050919050565b6000602082019050818103600083015261458481614548565b9050919050565b60006040820190506145a06000830185613a7f565b6145ad6020830184613fe9565b9392505050565b6000815190506145c381614083565b92915050565b6000602082840312156145df576145de61382b565b5b60006145ed848285016145b4565b91505092915050565b7f546f6b656e207472616e73666572206661696c65640000000000000000000000600082015250565b600061462c60158361377e565b9150614637826145f6565b602082019050919050565b6000602082019050818103600083015261465b8161461f565b9050919050565b7f43616c6c6572206973206e6f7420746865206f776e6572000000000000000000600082015250565b600061469860178361377e565b91506146a382614662565b602082019050919050565b600060208201905081810360008301526146c78161468b565b9050919050565b7f5072696365206d7573742062652061626f7665207a65726f0000000000000000600082015250565b600061470460188361377e565b915061470f826146ce565b602082019050919050565b60006020820190508181036000830152614733816146f7565b9050919050565b600060608201905061474f6000830186613fe9565b61475c60208301856138cc565b818103604083015261476e81846139c1565b9050949350505050565b7f4e4654206973206e6f7420636f6d70726f6d6973656400000000000000000000600082015250565b60006147ae60168361377e565b91506147b982614778565b602082019050919050565b600060208201905081810360008301526147dd816147a1565b9050919050565b7f4974656d206e6f74206c697374656420666f722073616c650000000000000000600082015250565b600061481a60188361377e565b9150614825826147e4565b602082019050919050565b600060208201905081810360008301526148498161480d565b9050919050565b7f4e487b7100000000000000000000000000000000000000000000000000000000600052601260045260246000fd5b600061488a82613a1c565b915061489583613a1c565b9250826148a5576148a4614850565b5b828204905092915050565b60006148bb82613a1c565b91506148c683613a1c565b92508282019050808211156148de576148dd614442565b5b92915050565b7f507269636520706c757320666565206e6f74206d657400000000000000000000600082015250565b600061491a60168361377e565b9150614925826148e4565b602082019050919050565b600060208201905081810360008301526149498161490d565b9050919050565b60008151905061495f81613a26565b92915050565b60006020828403121561497b5761497a61382b565b5b600061498984828501614950565b91505092915050565b7f696e73756666696369656e742066756e64000000000000000000000000000000600082015250565b60006149c860118361377e565b91506149d382614992565b602082019050919050565b600060208201905081810360008301526149f7816149bb565b9050919050565b6000606082019050614a136000830186613a7f565b614a206020830185613a7f565b614a2d6040830184613fe9565b949350505050565b7f4b5943206e6f7420766572696669656400000000000000000000000000000000600082015250565b6000614a6b60108361377e565b9150614a7682614a35565b602082019050919050565b60006020820190508181036000830152614a9a81614a5e565b9050919050565b600081905092915050565b6000614ab78261397b565b614ac18185614aa1565b9350614ad1818560208601613986565b80840191505092915050565b6000614ae98285614aac565b9150614af58284614aac565b91508190509392505050565b60008190508160005260206000209050919050565b60006020601f8301049050919050565b600082821b905092915050565b600060088302614b637fffffffffffffffffffffffffffffffffffffffffffffffffffffffffffffffff82614b26565b614b6d8683614b26565b95508019841693508086168417925050509392505050565b6000614ba0614b9b614b9684613a1c565b613d20565b613a1c565b9050919050565b6000819050919050565b614bba83614b85565b614bce614bc682614ba7565b848454614b33565b825550505050565b600090565b614be3614bd6565b614bee818484614bb1565b505050565b5b81811015614c1257614c07600082614bdb565b600181019050614bf4565b5050565b601f821115614c5757614c2881614b01565b614c3184614b16565b81016020851015614c40578190505b614c54614c4c85614b16565b830182614bf3565b50505b505050565b600082821c905092915050565b6000614c7a60001984600802614c5c565b1980831691505092915050565b6000614c938383614c69565b9150826002028217905092915050565b614cac8261397b565b67ffffffffffffffff811115614cc557614cc4613e4f565b5b614ccf8254614411565b614cda828285614c16565b600060209050601f831160018114614d0d5760008415614cfb578287015190505b614d058582614c87565b865550614d6d565b601f198416614d1b86614b01565b60005b82811015614d4357848901518255600182019150602085019450602081019050614d1e565b86831015614d605784890151614d5c601f891682614c69565b8355505b6001600288020188555050505b505050505050565b600081519050919050565b600082825260208201905092915050565b6000614d9c82614d75565b614da68185614d80565b9350614db6818560208601613986565b614dbf816139b0565b840191505092915050565b6000608082019050614ddf6000830187613a7f565b614dec6020830186613a7f565b614df96040830185613fe9565b8181036060830152614e0b8184614d91565b905095945050505050565b600081519050614e2581613922565b92915050565b600060208284031215614e4157614e4061382b565b5b6000614e4f84828501614e16565b9150509291505056fea2646970667358221220c091367ccd443389e66cd031f1f30375dfc2ef75527181c55092fd284590c54064736f6c63430008180033",
  "linkReferences": {},
  "deployedLinkReferences": {}
}