{
  "_format": "hh-sol-artifact-1",
  "contractName": "LanSeller",
  "sourceName": "contracts/Lanseller.sol",
  "abi": [
    {
      "inputs": [
        {
          "internalType": "address",
          "name": "_lstToken",
          "type": "address"
        },
        {
          "internalType": "address",
          "name": "_verifier",
          "type": "address"
        }
      ],
      "stateMutability": "nonpayable",
      "type": "constructor"
    },
    {
      "inputs": [
        {
          "internalType": "address",
          "name": "sender",
          "type": "address"
        },
        {
          "internalType": "uint256",
          "name": "tokenId",
          "type": "uint256"
        },
        {
          "internalType": "address",
          "name": "owner",
          "type": "address"
        }
      ],
      "name": "ERC721IncorrectOwner",
      "type": "error"
    },
    {
      "inputs": [
        {
          "internalType": "address",
          "name": "operator",
          "type": "address"
        },
        {
          "internalType": "uint256",
          "name": "tokenId",
          "type": "uint256"
        }
      ],
      "name": "ERC721InsufficientApproval",
      "type": "error"
    },
    {
      "inputs": [
        {
          "internalType": "address",
          "name": "approver",
          "type": "address"
        }
      ],
      "name": "ERC721InvalidApprover",
      "type": "error"
    },
    {
      "inputs": [
        {
          "internalType": "address",
          "name": "operator",
          "type": "address"
        }
      ],
      "name": "ERC721InvalidOperator",
      "type": "error"
    },
    {
      "inputs": [
        {
          "internalType": "address",
          "name": "owner",
          "type": "address"
        }
      ],
      "name": "ERC721InvalidOwner",
      "type": "error"
    },
    {
      "inputs": [
        {
          "internalType": "address",
          "name": "receiver",
          "type": "address"
        }
      ],
      "name": "ERC721InvalidReceiver",
      "type": "error"
    },
    {
      "inputs": [
        {
          "internalType": "address",
          "name": "sender",
          "type": "address"
        }
      ],
      "name": "ERC721InvalidSender",
      "type": "error"
    },
    {
      "inputs": [
        {
          "internalType": "uint256",
          "name": "tokenId",
          "type": "uint256"
        }
      ],
      "name": "ERC721NonexistentToken",
      "type": "error"
    },
    {
      "inputs": [],
      "name": "ReentrancyGuardReentrantCall",
      "type": "error"
    },
    {
      "anonymous": false,
      "inputs": [
        {
          "indexed": true,
          "internalType": "address",
          "name": "owner",
          "type": "address"
        },
        {
          "indexed": true,
          "internalType": "address",
          "name": "approved",
          "type": "address"
        },
        {
          "indexed": true,
          "internalType": "uint256",
          "name": "tokenId",
          "type": "uint256"
        }
      ],
      "name": "Approval",
      "type": "event"
    },
    {
      "anonymous": false,
      "inputs": [
        {
          "indexed": true,
          "internalType": "address",
          "name": "owner",
          "type": "address"
        },
        {
          "indexed": true,
          "internalType": "address",
          "name": "operator",
          "type": "address"
        },
        {
          "indexed": false,
          "internalType": "bool",
          "name": "approved",
          "type": "bool"
        }
      ],
      "name": "ApprovalForAll",
      "type": "event"
    },
    {
      "anonymous": false,
      "inputs": [
        {
          "indexed": false,
          "internalType": "uint256",
          "name": "_fromTokenId",
          "type": "uint256"
        },
        {
          "indexed": false,
          "internalType": "uint256",
          "name": "_toTokenId",
          "type": "uint256"
        }
      ],
      "name": "BatchMetadataUpdate",
      "type": "event"
    },
    {
      "anonymous": false,
      "inputs": [
        {
          "indexed": true,
          "internalType": "address",
          "name": "user",
          "type": "address"
        }
      ],
      "name": "KYCVerified",
      "type": "event"
    },
    {
      "anonymous": false,
      "inputs": [
        {
          "indexed": false,
          "internalType": "uint256",
          "name": "newFee",
          "type": "uint256"
        }
      ],
      "name": "ListingFeeUpdated",
      "type": "event"
    },
    {
      "anonymous": false,
      "inputs": [
        {
          "indexed": false,
          "internalType": "uint256",
          "name": "_tokenId",
          "type": "uint256"
        }
      ],
      "name": "MetadataUpdate",
      "type": "event"
    },
    {
      "anonymous": false,
      "inputs": [
        {
          "indexed": true,
          "internalType": "address",
          "name": "buyer",
          "type": "address"
        },
        {
          "indexed": true,
          "internalType": "uint256",
          "name": "tokenId",
          "type": "uint256"
        },
        {
          "indexed": false,
          "internalType": "uint256",
          "name": "price",
          "type": "uint256"
        }
      ],
      "name": "PropertyBought",
      "type": "event"
    },
    {
      "anonymous": false,
      "inputs": [
        {
          "indexed": true,
          "internalType": "address",
          "name": "seller",
          "type": "address"
        },
        {
          "indexed": true,
          "internalType": "uint256",
          "name": "tokenId",
          "type": "uint256"
        },
        {
          "indexed": false,
          "internalType": "uint256",
          "name": "price",
          "type": "uint256"
        },
        {
          "indexed": false,
          "internalType": "bool",
          "name": "forSale",
          "type": "bool"
        },
        {
          "indexed": false,
          "internalType": "string",
          "name": "ipfsHash",
          "type": "string"
        }
      ],
      "name": "PropertyListed",
      "type": "event"
    },
    {
      "anonymous": false,
      "inputs": [
        {
          "indexed": true,
          "internalType": "address",
          "name": "seller",
          "type": "address"
        },
        {
          "indexed": true,
          "internalType": "uint256",
          "name": "tokenId",
          "type": "uint256"
        }
      ],
      "name": "PropertyListingCanceled",
      "type": "event"
    },
    {
      "anonymous": false,
      "inputs": [
        {
          "indexed": true,
          "internalType": "address",
          "name": "buyer",
          "type": "address"
        },
        {
          "indexed": true,
          "internalType": "uint256",
          "name": "tokenId",
          "type": "uint256"
        },
        {
          "indexed": false,
          "internalType": "uint256",
          "name": "price",
          "type": "uint256"
        }
      ],
      "name": "PropertySold",
      "type": "event"
    },
    {
      "anonymous": false,
      "inputs": [
        {
          "indexed": true,
          "internalType": "address",
          "name": "from",
          "type": "address"
        },
        {
          "indexed": true,
          "internalType": "address",
          "name": "to",
          "type": "address"
        },
        {
          "indexed": true,
          "internalType": "uint256",
          "name": "tokenId",
          "type": "uint256"
        }
      ],
      "name": "Transfer",
      "type": "event"
    },
    {
      "anonymous": false,
      "inputs": [
        {
          "indexed": true,
          "internalType": "address",
          "name": "to",
          "type": "address"
        },
        {
          "indexed": false,
          "internalType": "uint256",
          "name": "amount",
          "type": "uint256"
        }
      ],
      "name": "Withdrawal",
      "type": "event"
    },
    {
      "stateMutability": "payable",
      "type": "fallback"
    },
    {
      "inputs": [],
      "name": "KYC_VALIDITY_PERIOD",
      "outputs": [
        {
          "internalType": "uint256",
          "name": "",
          "type": "uint256"
        }
      ],
      "stateMutability": "view",
      "type": "function"
    },
    {
      "inputs": [],
      "name": "PRICE_PRECISION",
      "outputs": [
        {
          "internalType": "uint256",
          "name": "",
          "type": "uint256"
        }
      ],
      "stateMutability": "view",
      "type": "function"
    },
    {
      "inputs": [
        {
          "internalType": "address",
          "name": "to",
          "type": "address"
        },
        {
          "internalType": "uint256",
          "name": "tokenId",
          "type": "uint256"
        }
      ],
      "name": "approve",
      "outputs": [],
      "stateMutability": "nonpayable",
      "type": "function"
    },
    {
      "inputs": [
        {
          "internalType": "address",
          "name": "owner",
          "type": "address"
        }
      ],
      "name": "balanceOf",
      "outputs": [
        {
          "internalType": "uint256",
          "name": "",
          "type": "uint256"
        }
      ],
      "stateMutability": "view",
      "type": "function"
    },
    {
      "inputs": [
        {
          "internalType": "uint256",
          "name": "tokenId",
          "type": "uint256"
        },
        {
          "internalType": "uint256",
          "name": "_amount",
          "type": "uint256"
        }
      ],
      "name": "buyProperty",
      "outputs": [],
      "stateMutability": "nonpayable",
      "type": "function"
    },
    {
      "inputs": [
        {
          "internalType": "uint256",
          "name": "",
          "type": "uint256"
        }
      ],
      "name": "compromisedNFTs",
      "outputs": [
        {
          "internalType": "bool",
          "name": "",
          "type": "bool"
        }
      ],
      "stateMutability": "view",
      "type": "function"
    },
    {
      "inputs": [
        {
          "internalType": "string",
          "name": "tokenURI",
          "type": "string"
        },
        {
          "internalType": "uint256",
          "name": "price",
          "type": "uint256"
        },
        {
          "internalType": "string",
          "name": "ipfsHash",
          "type": "string"
        }
      ],
      "name": "createToken",
      "outputs": [],
      "stateMutability": "nonpayable",
      "type": "function"
    },
    {
      "inputs": [
        {
          "internalType": "uint256",
          "name": "",
          "type": "uint256"
        }
      ],
      "name": "documentHashes",
      "outputs": [
        {
          "internalType": "bytes32",
          "name": "",
          "type": "bytes32"
        }
      ],
      "stateMutability": "view",
      "type": "function"
    },
    {
      "inputs": [
        {
          "internalType": "address",
          "name": "",
          "type": "address"
        }
      ],
      "name": "funds",
      "outputs": [
        {
          "internalType": "uint256",
          "name": "",
          "type": "uint256"
        }
      ],
      "stateMutability": "view",
      "type": "function"
    },
    {
      "inputs": [
        {
          "internalType": "uint256",
          "name": "tokenId",
          "type": "uint256"
        }
      ],
      "name": "getApproved",
      "outputs": [
        {
          "internalType": "address",
          "name": "",
          "type": "address"
        }
      ],
      "stateMutability": "view",
      "type": "function"
    },
    {
      "inputs": [
        {
          "internalType": "address",
          "name": "user",
          "type": "address"
        }
      ],
      "name": "getKYCStatus",
      "outputs": [
        {
          "internalType": "bool",
          "name": "isVerified",
          "type": "bool"
        }
      ],
      "stateMutability": "view",
      "type": "function"
    },
    {
      "inputs": [],
      "name": "getListedProperties",
      "outputs": [
        {
          "components": [
            {
              "internalType": "uint256",
              "name": "tokenId",
              "type": "uint256"
            },
            {
              "internalType": "address",
              "name": "seller",
              "type": "address"
            },
            {
              "internalType": "uint256",
              "name": "price",
              "type": "uint256"
            },
            {
              "internalType": "address",
              "name": "buyer",
              "type": "address"
            },
            {
              "internalType": "bool",
              "name": "forSale",
              "type": "bool"
            },
            {
              "internalType": "string",
              "name": "ipfsHash",
              "type": "string"
            }
          ],
          "internalType": "struct LanSeller.Property[]",
          "name": "",
          "type": "tuple[]"
        }
      ],
      "stateMutability": "view",
      "type": "function"
    },
    {
      "inputs": [],
      "name": "getListingFee",
      "outputs": [
        {
          "internalType": "uint256",
          "name": "",
          "type": "uint256"
        }
      ],
      "stateMutability": "view",
      "type": "function"
    },
    {
      "inputs": [
        {
          "internalType": "uint256",
          "name": "tokenId",
          "type": "uint256"
        }
      ],
      "name": "getProperty",
      "outputs": [
        {
          "components": [
            {
              "internalType": "uint256",
              "name": "tokenId",
              "type": "uint256"
            },
            {
              "internalType": "address",
              "name": "seller",
              "type": "address"
            },
            {
              "internalType": "uint256",
              "name": "price",
              "type": "uint256"
            },
            {
              "internalType": "address",
              "name": "buyer",
              "type": "address"
            },
            {
              "internalType": "bool",
              "name": "forSale",
              "type": "bool"
            },
            {
              "internalType": "string",
              "name": "ipfsHash",
              "type": "string"
            }
          ],
          "internalType": "struct LanSeller.Property",
          "name": "",
          "type": "tuple"
        }
      ],
      "stateMutability": "view",
      "type": "function"
    },
    {
      "inputs": [
        {
          "internalType": "address",
          "name": "seller",
          "type": "address"
        }
      ],
      "name": "getSellerFunds",
      "outputs": [
        {
          "internalType": "uint256",
          "name": "",
          "type": "uint256"
        }
      ],
      "stateMutability": "view",
      "type": "function"
    },
    {
      "inputs": [],
      "name": "getTokenCounter",
      "outputs": [
        {
          "internalType": "uint256",
          "name": "",
          "type": "uint256"
        }
      ],
      "stateMutability": "view",
      "type": "function"
    },
    {
      "inputs": [
        {
          "internalType": "uint256",
          "name": "tokenId",
          "type": "uint256"
        }
      ],
      "name": "getTokenURI",
      "outputs": [
        {
          "internalType": "string",
          "name": "",
          "type": "string"
        }
      ],
      "stateMutability": "view",
      "type": "function"
    },
    {
      "inputs": [
        {
          "internalType": "address",
          "name": "user",
          "type": "address"
        }
      ],
      "name": "hasUserListed",
      "outputs": [
        {
          "internalType": "bool",
          "name": "",
          "type": "bool"
        }
      ],
      "stateMutability": "view",
      "type": "function"
    },
    {
      "inputs": [
        {
          "internalType": "uint256",
          "name": "tokenId",
          "type": "uint256"
        },
        {
          "internalType": "string",
          "name": "newTokenURI",
          "type": "string"
        }
      ],
      "name": "invalidateAndUpgradeNFT",
      "outputs": [],
      "stateMutability": "nonpayable",
      "type": "function"
    },
    {
      "inputs": [
        {
          "internalType": "uint256",
          "name": "tokenId",
          "type": "uint256"
        }
      ],
      "name": "invalidateCompromisedNFT",
      "outputs": [],
      "stateMutability": "nonpayable",
      "type": "function"
    },
    {
      "inputs": [
        {
          "internalType": "address",
          "name": "owner",
          "type": "address"
        },
        {
          "internalType": "address",
          "name": "operator",
          "type": "address"
        }
      ],
      "name": "isApprovedForAll",
      "outputs": [
        {
          "internalType": "bool",
          "name": "",
          "type": "bool"
        }
      ],
      "stateMutability": "view",
      "type": "function"
    },
    {
      "inputs": [
        {
          "internalType": "uint256",
          "name": "tokenId",
          "type": "uint256"
        },
        {
          "internalType": "uint256",
          "name": "price",
          "type": "uint256"
        },
        {
          "internalType": "string",
          "name": "ipfsHash",
          "type": "string"
        }
      ],
      "name": "listNewProperty",
      "outputs": [],
      "stateMutability": "nonpayable",
      "type": "function"
    },
    {
      "inputs": [],
      "name": "listingFee",
      "outputs": [
        {
          "internalType": "uint256",
          "name": "",
          "type": "uint256"
        }
      ],
      "stateMutability": "view",
      "type": "function"
    },
    {
      "inputs": [],
      "name": "lstToken",
      "outputs": [
        {
          "internalType": "contract IERC20",
          "name": "",
          "type": "address"
        }
      ],
      "stateMutability": "view",
      "type": "function"
    },
    {
      "inputs": [],
      "name": "name",
      "outputs": [
        {
          "internalType": "string",
          "name": "",
          "type": "string"
        }
      ],
      "stateMutability": "view",
      "type": "function"
    },
    {
      "inputs": [
        {
          "internalType": "uint256",
          "name": "tokenId",
          "type": "uint256"
        }
      ],
      "name": "ownerOf",
      "outputs": [
        {
          "internalType": "address",
          "name": "",
          "type": "address"
        }
      ],
      "stateMutability": "view",
      "type": "function"
    },
    {
      "inputs": [
        {
          "internalType": "uint256",
          "name": "",
          "type": "uint256"
        }
      ],
      "name": "properties",
      "outputs": [
        {
          "internalType": "uint256",
          "name": "tokenId",
          "type": "uint256"
        },
        {
          "internalType": "address",
          "name": "seller",
          "type": "address"
        },
        {
          "internalType": "uint256",
          "name": "price",
          "type": "uint256"
        },
        {
          "internalType": "address",
          "name": "buyer",
          "type": "address"
        },
        {
          "internalType": "bool",
          "name": "forSale",
          "type": "bool"
        },
        {
          "internalType": "string",
          "name": "ipfsHash",
          "type": "string"
        }
      ],
      "stateMutability": "view",
      "type": "function"
    },
    {
      "inputs": [
        {
          "internalType": "address",
          "name": "from",
          "type": "address"
        },
        {
          "internalType": "address",
          "name": "to",
          "type": "address"
        },
        {
          "internalType": "uint256",
          "name": "tokenId",
          "type": "uint256"
        }
      ],
      "name": "safeTransferFrom",
      "outputs": [],
      "stateMutability": "nonpayable",
      "type": "function"
    },
    {
      "inputs": [
        {
          "internalType": "address",
          "name": "from",
          "type": "address"
        },
        {
          "internalType": "address",
          "name": "to",
          "type": "address"
        },
        {
          "internalType": "uint256",
          "name": "tokenId",
          "type": "uint256"
        },
        {
          "internalType": "bytes",
          "name": "data",
          "type": "bytes"
        }
      ],
      "name": "safeTransferFrom",
      "outputs": [],
      "stateMutability": "nonpayable",
      "type": "function"
    },
    {
      "inputs": [
        {
          "internalType": "address",
          "name": "operator",
          "type": "address"
        },
        {
          "internalType": "bool",
          "name": "approved",
          "type": "bool"
        }
      ],
      "name": "setApprovalForAll",
      "outputs": [],
      "stateMutability": "nonpayable",
      "type": "function"
    },
    {
      "inputs": [
        {
          "internalType": "bytes4",
          "name": "interfaceId",
          "type": "bytes4"
        }
      ],
      "name": "supportsInterface",
      "outputs": [
        {
          "internalType": "bool",
          "name": "",
          "type": "bool"
        }
      ],
      "stateMutability": "view",
      "type": "function"
    },
    {
      "inputs": [],
      "name": "symbol",
      "outputs": [
        {
          "internalType": "string",
          "name": "",
          "type": "string"
        }
      ],
      "stateMutability": "view",
      "type": "function"
    },
    {
      "inputs": [],
      "name": "tokenIdCounter",
      "outputs": [
        {
          "internalType": "uint256",
          "name": "",
          "type": "uint256"
        }
      ],
      "stateMutability": "view",
      "type": "function"
    },
    {
      "inputs": [
        {
          "internalType": "uint256",
          "name": "tokenId",
          "type": "uint256"
        }
      ],
      "name": "tokenURI",
      "outputs": [
        {
          "internalType": "string",
          "name": "",
          "type": "string"
        }
      ],
      "stateMutability": "view",
      "type": "function"
    },
    {
      "inputs": [
        {
          "internalType": "address",
          "name": "from",
          "type": "address"
        },
        {
          "internalType": "address",
          "name": "to",
          "type": "address"
        },
        {
          "internalType": "uint256",
          "name": "tokenId",
          "type": "uint256"
        }
      ],
      "name": "transferFrom",
      "outputs": [],
      "stateMutability": "nonpayable",
      "type": "function"
    },
    {
      "inputs": [
        {
          "internalType": "uint256",
          "name": "_listingFee",
          "type": "uint256"
        }
      ],
      "name": "updateListingFee",
      "outputs": [],
      "stateMutability": "nonpayable",
      "type": "function"
    },
    {
      "inputs": [
        {
          "internalType": "uint256",
          "name": "tokenId",
          "type": "uint256"
        },
        {
          "internalType": "uint256",
          "name": "newPrice",
          "type": "uint256"
        }
      ],
      "name": "updatePropertyPrice",
      "outputs": [],
      "stateMutability": "nonpayable",
      "type": "function"
    },
    {
      "inputs": [],
      "name": "verifier",
      "outputs": [
        {
          "internalType": "contract IVerifier",
          "name": "",
          "type": "address"
        }
      ],
      "stateMutability": "view",
      "type": "function"
    },
    {
      "inputs": [
        {
          "internalType": "address",
          "name": "_user",
          "type": "address"
        }
      ],
      "name": "verifyKYC",
      "outputs": [],
      "stateMutability": "nonpayable",
      "type": "function"
    },
    {
      "inputs": [],
      "name": "withdrawFunds",
      "outputs": [],
      "stateMutability": "nonpayable",
      "type": "function"
    },
    {
      "stateMutability": "payable",
      "type": "receive"
    }
  ],
  "bytecode": "0x6080604052670de0b6b3a7640000600c553480156200001d57600080fd5b506040516200553138038062005531833981810160405281019062000043919062000226565b6040518060400160405280601981526020017f4c616e5374656c6c61722050726f706572747920546f6b656e000000000000008152506040518060400160405280600481526020017f4c535054000000000000000000000000000000000000000000000000000000008152508160009081620000c09190620004e7565b508060019081620000d29190620004e7565b5050506001600781905550733ec8593f930ea45ea58c968260e6e9ff53fc934f600a60006101000a81548173ffffffffffffffffffffffffffffffffffffffff021916908373ffffffffffffffffffffffffffffffffffffffff16021790555081600960006101000a81548173ffffffffffffffffffffffffffffffffffffffff021916908373ffffffffffffffffffffffffffffffffffffffff16021790555080600d60006101000a81548173ffffffffffffffffffffffffffffffffffffffff021916908373ffffffffffffffffffffffffffffffffffffffff1602179055505050620005ce565b600080fd5b600073ffffffffffffffffffffffffffffffffffffffff82169050919050565b6000620001ee82620001c1565b9050919050565b6200020081620001e1565b81146200020c57600080fd5b50565b6000815190506200022081620001f5565b92915050565b6000806040838503121562000240576200023f620001bc565b5b600062000250858286016200020f565b925050602062000263858286016200020f565b9150509250929050565b600081519050919050565b7f4e487b7100000000000000000000000000000000000000000000000000000000600052604160045260246000fd5b7f4e487b7100000000000000000000000000000000000000000000000000000000600052602260045260246000fd5b60006002820490506001821680620002ef57607f821691505b602082108103620003055762000304620002a7565b5b50919050565b60008190508160005260206000209050919050565b60006020601f8301049050919050565b600082821b905092915050565b6000600883026200036f7fffffffffffffffffffffffffffffffffffffffffffffffffffffffffffffffff8262000330565b6200037b868362000330565b95508019841693508086168417925050509392505050565b6000819050919050565b6000819050919050565b6000620003c8620003c2620003bc8462000393565b6200039d565b62000393565b9050919050565b6000819050919050565b620003e483620003a7565b620003fc620003f382620003cf565b8484546200033d565b825550505050565b600090565b6200041362000404565b62000420818484620003d9565b505050565b5b8181101562000448576200043c60008262000409565b60018101905062000426565b5050565b601f821115620004975762000461816200030b565b6200046c8462000320565b810160208510156200047c578190505b620004946200048b8562000320565b83018262000425565b50505b505050565b600082821c905092915050565b6000620004bc600019846008026200049c565b1980831691505092915050565b6000620004d78383620004a9565b9150826002028217905092915050565b620004f2826200026d565b67ffffffffffffffff8111156200050e576200050d62000278565b5b6200051a8254620002d6565b620005278282856200044c565b600060209050601f8311600181146200055f57600084156200054a578287015190505b620005568582620004c9565b865550620005c6565b601f1984166200056f866200030b565b60005b82811015620005995784890151825560018201915060208501945060208101905062000572565b86831015620005b95784890151620005b5601f891682620004a9565b8355505b6001600288020188555050505b505050505050565b614f5380620005de6000396000f3fe60806040526004361061023e5760003560e01c8063809207181161012e578063b8fe6abe116100ab578063e985e9c51161006f578063e985e9c51461095c578063f37678ae14610999578063f79d91ae146109c2578063f7b10808146109eb578063fce401b214610a2d5761027e565b8063b8fe6abe14610865578063c6c9b5b114610890578063c87b56dd146108b9578063d95bab4d146108f6578063e2ae93fb1461091f5761027e565b806395d89b41116100f257806395d89b411461079457806398bdf6f5146107bf578063a22cb465146107ea578063a772c92714610813578063b88d4fde1461083c5761027e565b806380920718146106995780638dec2493146106c45780638e383c6b1461070157806392daac301461073e57806395082d25146107695761027e565b806332665ffb116101bc578063509bd4ca11610180578063509bd4ca1461058c5780636352211e146105c95780636a1b7ecc146106065780636e02007d1461063157806370a082311461065c5761027e565b806332665ffb1461049757806338d16011146104d45780633bb3a24d146104fd57806342842e0e1461053a5780634ac80d97146105635761027e565b80630fb6d6d1116102035780630fb6d6d1146103c457806319bfbaf9146103ef57806323b872dd1461042c57806324600fc3146104555780632b7ac3f31461046c5761027e565b80620c8df0146102b957806301ffc9a7146102f657806306fdde0314610333578063081812fc1461035e578063095ea7b31461039b5761027e565b3661027e576040517f08c379a000000000000000000000000000000000000000000000000000000000815260040161027590613752565b60405180910390fd5b6040517f08c379a00000000000000000000000000000000000000000000000000000000081526004016102b090613752565b60405180910390fd5b3480156102c557600080fd5b506102e060048036038101906102db91906137e4565b610a56565b6040516102ed919061382c565b60405180910390f35b34801561030257600080fd5b5061031d6004803603810190610318919061389f565b610aac565b60405161032a919061382c565b60405180910390f35b34801561033f57600080fd5b50610348610b0d565b604051610355919061394b565b60405180910390f35b34801561036a57600080fd5b50610385600480360381019061038091906139a3565b610b9f565b60405161039291906139df565b60405180910390f35b3480156103a757600080fd5b506103c260048036038101906103bd91906139fa565b610bbb565b005b3480156103d057600080fd5b506103d9610bd1565b6040516103e69190613bfc565b60405180910390f35b3480156103fb57600080fd5b50610416600480360381019061041191906139a3565b610e9b565b604051610423919061382c565b60405180910390f35b34801561043857600080fd5b50610453600480360381019061044e9190613c1e565b610ebb565b005b34801561046157600080fd5b5061046a610fbd565b005b34801561047857600080fd5b50610481611197565b60405161048e9190613cd0565b60405180910390f35b3480156104a357600080fd5b506104be60048036038101906104b991906139a3565b6111bd565b6040516104cb9190613d74565b60405180910390f35b3480156104e057600080fd5b506104fb60048036038101906104f691906137e4565b611357565b005b34801561050957600080fd5b50610524600480360381019061051f91906139a3565b6113c2565b604051610531919061394b565b60405180910390f35b34801561054657600080fd5b50610561600480360381019061055c9190613c1e565b6113d4565b005b34801561056f57600080fd5b5061058a600480360381019061058591906139a3565b6113f4565b005b34801561059857600080fd5b506105b360048036038101906105ae91906137e4565b611460565b6040516105c09190613da5565b60405180910390f35b3480156105d557600080fd5b506105f060048036038101906105eb91906139a3565b6114a9565b6040516105fd91906139df565b60405180910390f35b34801561061257600080fd5b5061061b6114bb565b6040516106289190613da5565b60405180910390f35b34801561063d57600080fd5b506106466114c1565b6040516106539190613da5565b60405180910390f35b34801561066857600080fd5b50610683600480360381019061067e91906137e4565b6114cb565b6040516106909190613da5565b60405180910390f35b3480156106a557600080fd5b506106ae611585565b6040516106bb9190613de1565b60405180910390f35b3480156106d057600080fd5b506106eb60048036038101906106e691906137e4565b6115ab565b6040516106f8919061382c565b60405180910390f35b34801561070d57600080fd5b50610728600480360381019061072391906139a3565b611601565b6040516107359190613e15565b60405180910390f35b34801561074a57600080fd5b50610753611619565b6040516107609190613da5565b60405180910390f35b34801561077557600080fd5b5061077e611621565b60405161078b9190613da5565b60405180910390f35b3480156107a057600080fd5b506107a961162e565b6040516107b6919061394b565b60405180910390f35b3480156107cb57600080fd5b506107d46116c0565b6040516107e19190613da5565b60405180910390f35b3480156107f657600080fd5b50610811600480360381019061080c9190613e5c565b6116c6565b005b34801561081f57600080fd5b5061083a60048036038101906108359190613e9c565b6116dc565b005b34801561084857600080fd5b50610863600480360381019061085e9190614011565b611c66565b005b34801561087157600080fd5b5061087a611c83565b6040516108879190613da5565b60405180910390f35b34801561089c57600080fd5b506108b760048036038101906108b29190614135565b611c8d565b005b3480156108c557600080fd5b506108e060048036038101906108db91906139a3565b611db5565b6040516108ed919061394b565b60405180910390f35b34801561090257600080fd5b5061091d600480360381019061091891906141c0565b611ec8565b005b34801561092b57600080fd5b50610946600480360381019061094191906137e4565b611fa0565b6040516109539190613da5565b60405180910390f35b34801561096857600080fd5b50610983600480360381019061097e919061421c565b611fb8565b604051610990919061382c565b60405180910390f35b3480156109a557600080fd5b506109c060048036038101906109bb919061425c565b61204c565b005b3480156109ce57600080fd5b506109e960048036038101906109e491906139a3565b61227b565b005b3480156109f757600080fd5b50610a126004803603810190610a0d91906139a3565b6122bc565b604051610a24969594939291906142cb565b60405180910390f35b348015610a3957600080fd5b50610a546004803603810190610a4f9190613e9c565b6123cd565b005b6000600e60008373ffffffffffffffffffffffffffffffffffffffff1673ffffffffffffffffffffffffffffffffffffffff16815260200190815260200160002060009054906101000a900460ff169050919050565b6000634906490660e01b7bffffffffffffffffffffffffffffffffffffffffffffffffffffffff1916827bffffffffffffffffffffffffffffffffffffffffffffffffffffffff19161480610b065750610b0582612532565b5b9050919050565b606060008054610b1c90614362565b80601f0160208091040260200160405190810160405280929190818152602001828054610b4890614362565b8015610b955780601f10610b6a57610100808354040283529160200191610b95565b820191906000526020600020905b815481529060010190602001808311610b7857829003601f168201915b5050505050905090565b6000610baa82612614565b50610bb48261269c565b9050919050565b610bcd8282610bc86126d9565b6126e1565b5050565b60606000600b549050600080600190505b828111610c3457600f600082815260200190815260200160002060030160149054906101000a900460ff1615610c21578180610c1d906143c2565b9250505b8080610c2c906143c2565b915050610be2565b5060008167ffffffffffffffff811115610c5157610c50613ee6565b5b604051908082528060200260200182016040528015610c8a57816020015b610c7761366b565b815260200190600190039081610c6f5790505b509050600080600190505b848111610e9057600f600082815260200190815260200160002060030160149054906101000a900460ff1615610e7d57600f60008281526020019081526020016000206040518060c0016040529081600082015481526020016001820160009054906101000a900473ffffffffffffffffffffffffffffffffffffffff1673ffffffffffffffffffffffffffffffffffffffff1673ffffffffffffffffffffffffffffffffffffffff168152602001600282015481526020016003820160009054906101000a900473ffffffffffffffffffffffffffffffffffffffff1673ffffffffffffffffffffffffffffffffffffffff1673ffffffffffffffffffffffffffffffffffffffff1681526020016003820160149054906101000a900460ff16151515158152602001600482018054610dce90614362565b80601f0160208091040260200160405190810160405280929190818152602001828054610dfa90614362565b8015610e475780601f10610e1c57610100808354040283529160200191610e47565b820191906000526020600020905b815481529060010190602001808311610e2a57829003601f168201915b505050505081525050838381518110610e6357610e6261440a565b5b60200260200101819052508180610e79906143c2565b9250505b8080610e88906143c2565b915050610c95565b508194505050505090565b60126020528060005260406000206000915054906101000a900460ff1681565b600073ffffffffffffffffffffffffffffffffffffffff168273ffffffffffffffffffffffffffffffffffffffff1603610f2d5760006040517f64a0ae92000000000000000000000000000000000000000000000000000000008152600401610f2491906139df565b60405180910390fd5b6000610f418383610f3c6126d9565b6126f3565b90508373ffffffffffffffffffffffffffffffffffffffff168173ffffffffffffffffffffffffffffffffffffffff1614610fb7578382826040517f64283d7b000000000000000000000000000000000000000000000000000000008152600401610fae93929190614439565b60405180910390fd5b50505050565b610fc561290d565b6000601060003373ffffffffffffffffffffffffffffffffffffffff1673ffffffffffffffffffffffffffffffffffffffff1681526020019081526020016000205490506000811161104c576040517f08c379a0000000000000000000000000000000000000000000000000000000008152600401611043906144bc565b60405180910390fd5b6000601060003373ffffffffffffffffffffffffffffffffffffffff1673ffffffffffffffffffffffffffffffffffffffff1681526020019081526020016000208190555060003373ffffffffffffffffffffffffffffffffffffffff16826040516110b79061450d565b60006040518083038185875af1925050503d80600081146110f4576040519150601f19603f3d011682016040523d82523d6000602084013e6110f9565b606091505b505090508061113d576040517f08c379a00000000000000000000000000000000000000000000000000000000081526004016111349061456e565b60405180910390fd5b3373ffffffffffffffffffffffffffffffffffffffff167f7fcf532c15f0a6db0bd6d0e038bea71d30d808c7d98cb3bf7268a95bf5081b65836040516111839190613da5565b60405180910390a25050611195612953565b565b600d60009054906101000a900473ffffffffffffffffffffffffffffffffffffffff1681565b6111c561366b565b600f60008381526020019081526020016000206040518060c0016040529081600082015481526020016001820160009054906101000a900473ffffffffffffffffffffffffffffffffffffffff1673ffffffffffffffffffffffffffffffffffffffff1673ffffffffffffffffffffffffffffffffffffffff168152602001600282015481526020016003820160009054906101000a900473ffffffffffffffffffffffffffffffffffffffff1673ffffffffffffffffffffffffffffffffffffffff1673ffffffffffffffffffffffffffffffffffffffff1681526020016003820160149054906101000a900460ff161515151581526020016004820180546112ce90614362565b80601f01602080910402602001604051908101604052809291908181526020018280546112fa90614362565b80156113475780601f1061131c57610100808354040283529160200191611347565b820191906000526020600020905b81548152906001019060200180831161132a57829003601f168201915b5050505050815250509050919050565b61135f61290d565b6001600e60008373ffffffffffffffffffffffffffffffffffffffff1673ffffffffffffffffffffffffffffffffffffffff16815260200190815260200160002060006101000a81548160ff0219169083151502179055506113bf612953565b50565b60606113cd82611db5565b9050919050565b6113ef83838360405180602001604052806000815250611c66565b505050565b6012600082815260200190815260200160002060009054906101000a900460ff16611454576040517f08c379a000000000000000000000000000000000000000000000000000000000815260040161144b906145da565b60405180910390fd5b61145d8161295d565b50565b6000601060008373ffffffffffffffffffffffffffffffffffffffff1673ffffffffffffffffffffffffffffffffffffffff168152602001908152602001600020549050919050565b60006114b482612614565b9050919050565b600c5481565b6000600b54905090565b60008073ffffffffffffffffffffffffffffffffffffffff168273ffffffffffffffffffffffffffffffffffffffff160361153e5760006040517f89c62b6400000000000000000000000000000000000000000000000000000000815260040161153591906139df565b60405180910390fd5b600360008373ffffffffffffffffffffffffffffffffffffffff1673ffffffffffffffffffffffffffffffffffffffff168152602001908152602001600020549050919050565b600960009054906101000a900473ffffffffffffffffffffffffffffffffffffffff1681565b6000601160008373ffffffffffffffffffffffffffffffffffffffff1673ffffffffffffffffffffffffffffffffffffffff16815260200190815260200160002060009054906101000a900460ff169050919050565b60136020528060005260406000206000915090505481565b6301e1338081565b68056bc75e2d6310000081565b60606001805461163d90614362565b80601f016020809104026020016040519081016040528092919081815260200182805461166990614362565b80156116b65780601f1061168b576101008083540402835291602001916116b6565b820191906000526020600020905b81548152906001019060200180831161169957829003601f168201915b5050505050905090565b600b5481565b6116d86116d16126d9565b83836129e3565b5050565b81600f600082815260200190815260200160002060030160149054906101000a900460ff16611740576040517f08c379a000000000000000000000000000000000000000000000000000000000815260040161173790614646565b60405180910390fd5b61174861290d565b6000600f60008581526020019081526020016000206040518060c0016040529081600082015481526020016001820160009054906101000a900473ffffffffffffffffffffffffffffffffffffffff1673ffffffffffffffffffffffffffffffffffffffff1673ffffffffffffffffffffffffffffffffffffffff168152602001600282015481526020016003820160009054906101000a900473ffffffffffffffffffffffffffffffffffffffff1673ffffffffffffffffffffffffffffffffffffffff1673ffffffffffffffffffffffffffffffffffffffff1681526020016003820160149054906101000a900460ff1615151515815260200160048201805461185390614362565b80601f016020809104026020016040519081016040528092919081815260200182805461187f90614362565b80156118cc5780601f106118a1576101008083540402835291602001916118cc565b820191906000526020600020905b8154815290600101906020018083116118af57829003601f168201915b50505050508152505090506000606482604001516118ea9190614695565b90508082604001516118fc91906146c6565b84101561193e576040517f08c379a000000000000000000000000000000000000000000000000000000000815260040161193590614746565b60405180910390fd5b80826040015161194e91906146c6565b600960009054906101000a900473ffffffffffffffffffffffffffffffffffffffff1673ffffffffffffffffffffffffffffffffffffffff166370a08231336040518263ffffffff1660e01b81526004016119a991906139df565b602060405180830381865afa1580156119c6573d6000803e3d6000fd5b505050506040513d601f19601f820116820180604052508101906119ea919061477b565b1015611a2b576040517f08c379a0000000000000000000000000000000000000000000000000000000008152600401611a22906147f4565b60405180910390fd5b6000849050600960009054906101000a900473ffffffffffffffffffffffffffffffffffffffff1673ffffffffffffffffffffffffffffffffffffffff166323b872dd3330846040518463ffffffff1660e01b8152600401611a8f93929190614814565b6020604051808303816000875af1158015611aae573d6000803e3d6000fd5b505050506040513d601f19601f82011682018060405250810190611ad29190614860565b611b11576040517f08c379a0000000000000000000000000000000000000000000000000000000008152600401611b08906148d9565b60405180910390fd5b826040015160106000856020015173ffffffffffffffffffffffffffffffffffffffff1673ffffffffffffffffffffffffffffffffffffffff1681526020019081526020016000206000828254611b6891906146c6565b9250508190555081601060003073ffffffffffffffffffffffffffffffffffffffff1673ffffffffffffffffffffffffffffffffffffffff1681526020019081526020016000206000828254611bbe91906146c6565b925050819055506000600f600088815260200190815260200160002060030160146101000a81548160ff021916908315150217905550611c0383606001513388612b52565b853373ffffffffffffffffffffffffffffffffffffffff167f17b4722101958f228ab97d24ff9624947f4ad9586617e0a8d5450f8248e8f57f8560400151604051611c4e9190613da5565b60405180910390a3505050611c61612953565b505050565b611c71848484610ebb565b611c7d84848484612cbf565b50505050565b6000600c54905090565b600e60003373ffffffffffffffffffffffffffffffffffffffff1673ffffffffffffffffffffffffffffffffffffffff16815260200190815260200160002060009054906101000a900460ff16611d19576040517f08c379a0000000000000000000000000000000000000000000000000000000008152600401611d1090614945565b60405180910390fd5b600b6000815480929190611d2c906143c2565b91905055506000600b549050611d423382612e76565b611d4c8185612f6f565b611d5781848461204c565b6001601160003373ffffffffffffffffffffffffffffffffffffffff1673ffffffffffffffffffffffffffffffffffffffff16815260200190815260200160002060006101000a81548160ff02191690831515021790555050505050565b6060611dc082612614565b506000600660008481526020019081526020016000208054611de190614362565b80601f0160208091040260200160405190810160405280929190818152602001828054611e0d90614362565b8015611e5a5780601f10611e2f57610100808354040283529160200191611e5a565b820191906000526020600020905b815481529060010190602001808311611e3d57829003601f168201915b505050505090506000611e6b612f7d565b90506000815103611e80578192505050611ec3565b600082511115611eb5578082604051602001611e9d9291906149a1565b60405160208183030381529060405292505050611ec3565b611ebe84612f94565b925050505b919050565b813373ffffffffffffffffffffffffffffffffffffffff16611ee9826114a9565b73ffffffffffffffffffffffffffffffffffffffff1614611f3f576040517f08c379a0000000000000000000000000000000000000000000000000000000008152600401611f3690614a11565b60405180910390fd5b60016012600085815260200190815260200160002060006101000a81548160ff0219169083151502179055506000600b6000815480929190611f80906143c2565b919050559050611f903382612e76565b611f9a8184612f6f565b50505050565b60106020528060005260406000206000915090505481565b6000600560008473ffffffffffffffffffffffffffffffffffffffff1673ffffffffffffffffffffffffffffffffffffffff16815260200190815260200160002060008373ffffffffffffffffffffffffffffffffffffffff1673ffffffffffffffffffffffffffffffffffffffff16815260200190815260200160002060009054906101000a900460ff16905092915050565b600e60003373ffffffffffffffffffffffffffffffffffffffff1673ffffffffffffffffffffffffffffffffffffffff16815260200190815260200160002060009054906101000a900460ff166120d8576040517f08c379a00000000000000000000000000000000000000000000000000000000081526004016120cf90614945565b60405180910390fd5b6040518060c001604052808481526020013373ffffffffffffffffffffffffffffffffffffffff1681526020018381526020013373ffffffffffffffffffffffffffffffffffffffff16815260200160011515815260200182815250600f60008581526020019081526020016000206000820151816000015560208201518160010160006101000a81548173ffffffffffffffffffffffffffffffffffffffff021916908373ffffffffffffffffffffffffffffffffffffffff1602179055506040820151816002015560608201518160030160006101000a81548173ffffffffffffffffffffffffffffffffffffffff021916908373ffffffffffffffffffffffffffffffffffffffff16021790555060808201518160030160146101000a81548160ff02191690831515021790555060a082015181600401908161221e9190614bd3565b50905050823373ffffffffffffffffffffffffffffffffffffffff167fa4043420082106818c012932beaa592e9685cdce8d3ce850b5dd7f6d33c395c98460018560405161226e93929190614ca5565b60405180910390a3505050565b80600c819055507f5fb4654f1efe30c6141eaa6855ffcb27e0b361d899b05e21b1a4d0b3e71e14db816040516122b19190613da5565b60405180910390a150565b600f6020528060005260406000206000915090508060000154908060010160009054906101000a900473ffffffffffffffffffffffffffffffffffffffff16908060020154908060030160009054906101000a900473ffffffffffffffffffffffffffffffffffffffff16908060030160149054906101000a900460ff169080600401805461234a90614362565b80601f016020809104026020016040519081016040528092919081815260200182805461237690614362565b80156123c35780601f10612398576101008083540402835291602001916123c3565b820191906000526020600020905b8154815290600101906020018083116123a657829003601f168201915b5050505050905086565b813373ffffffffffffffffffffffffffffffffffffffff166123ee826114a9565b73ffffffffffffffffffffffffffffffffffffffff1614612444576040517f08c379a000000000000000000000000000000000000000000000000000000000815260040161243b90614a11565b60405180910390fd5b60008211612487576040517f08c379a000000000000000000000000000000000000000000000000000000000815260040161247e90614d2f565b60405180910390fd5b81600f600085815260200190815260200160002060020181905550823373ffffffffffffffffffffffffffffffffffffffff167fa4043420082106818c012932beaa592e9685cdce8d3ce850b5dd7f6d33c395c984600f600088815260200190815260200160002060030160149054906101000a900460ff16600f600089815260200190815260200160002060040160405161252593929190614dd3565b60405180910390a3505050565b60007f80ac58cd000000000000000000000000000000000000000000000000000000007bffffffffffffffffffffffffffffffffffffffffffffffffffffffff1916827bffffffffffffffffffffffffffffffffffffffffffffffffffffffff191614806125fd57507f5b5e139f000000000000000000000000000000000000000000000000000000007bffffffffffffffffffffffffffffffffffffffffffffffffffffffff1916827bffffffffffffffffffffffffffffffffffffffffffffffffffffffff1916145b8061260d575061260c82612ffd565b5b9050919050565b60008061262083613067565b9050600073ffffffffffffffffffffffffffffffffffffffff168173ffffffffffffffffffffffffffffffffffffffff160361269357826040517f7e27328900000000000000000000000000000000000000000000000000000000815260040161268a9190613da5565b60405180910390fd5b80915050919050565b60006004600083815260200190815260200160002060009054906101000a900473ffffffffffffffffffffffffffffffffffffffff169050919050565b600033905090565b6126ee83838360016130a4565b505050565b6000806126ff84613067565b9050600073ffffffffffffffffffffffffffffffffffffffff168373ffffffffffffffffffffffffffffffffffffffff161461274157612740818486613269565b5b600073ffffffffffffffffffffffffffffffffffffffff168173ffffffffffffffffffffffffffffffffffffffff16146127d2576127836000856000806130a4565b6001600360008373ffffffffffffffffffffffffffffffffffffffff1673ffffffffffffffffffffffffffffffffffffffff168152602001908152602001600020600082825403925050819055505b600073ffffffffffffffffffffffffffffffffffffffff168573ffffffffffffffffffffffffffffffffffffffff1614612855576001600360008773ffffffffffffffffffffffffffffffffffffffff1673ffffffffffffffffffffffffffffffffffffffff168152602001908152602001600020600082825401925050819055505b846002600086815260200190815260200160002060006101000a81548173ffffffffffffffffffffffffffffffffffffffff021916908373ffffffffffffffffffffffffffffffffffffffff160217905550838573ffffffffffffffffffffffffffffffffffffffff168273ffffffffffffffffffffffffffffffffffffffff167fddf252ad1be2c89b69c2b068fc378daa952ba7f163c4a11628f55a4df523b3ef60405160405180910390a4809150509392505050565b600260075403612949576040517f3ee5aeb500000000000000000000000000000000000000000000000000000000815260040160405180910390fd5b6002600781905550565b6001600781905550565b600061296c60008360006126f3565b9050600073ffffffffffffffffffffffffffffffffffffffff168173ffffffffffffffffffffffffffffffffffffffff16036129df57816040517f7e2732890000000000000000000000000000000000000000000000000000000081526004016129d69190613da5565b60405180910390fd5b5050565b600073ffffffffffffffffffffffffffffffffffffffff168273ffffffffffffffffffffffffffffffffffffffff1603612a5457816040517f5b08ba18000000000000000000000000000000000000000000000000000000008152600401612a4b91906139df565b60405180910390fd5b80600560008573ffffffffffffffffffffffffffffffffffffffff1673ffffffffffffffffffffffffffffffffffffffff16815260200190815260200160002060008473ffffffffffffffffffffffffffffffffffffffff1673ffffffffffffffffffffffffffffffffffffffff16815260200190815260200160002060006101000a81548160ff0219169083151502179055508173ffffffffffffffffffffffffffffffffffffffff168373ffffffffffffffffffffffffffffffffffffffff167f17307eab39ab6107e8899845ad3d59bd9653f200f220920489ca2b5937696c3183604051612b45919061382c565b60405180910390a3505050565b600073ffffffffffffffffffffffffffffffffffffffff168273ffffffffffffffffffffffffffffffffffffffff1603612bc45760006040517f64a0ae92000000000000000000000000000000000000000000000000000000008152600401612bbb91906139df565b60405180910390fd5b6000612bd2838360006126f3565b9050600073ffffffffffffffffffffffffffffffffffffffff168173ffffffffffffffffffffffffffffffffffffffff1603612c4557816040517f7e273289000000000000000000000000000000000000000000000000000000008152600401612c3c9190613da5565b60405180910390fd5b8373ffffffffffffffffffffffffffffffffffffffff168173ffffffffffffffffffffffffffffffffffffffff1614612cb9578382826040517f64283d7b000000000000000000000000000000000000000000000000000000008152600401612cb093929190614439565b60405180910390fd5b50505050565b60008373ffffffffffffffffffffffffffffffffffffffff163b1115612e70578273ffffffffffffffffffffffffffffffffffffffff1663150b7a02612d036126d9565b8685856040518563ffffffff1660e01b8152600401612d259493929190614e66565b6020604051808303816000875af1925050508015612d6157506040513d601f19601f82011682018060405250810190612d5e9190614ec7565b60015b612de5573d8060008114612d91576040519150601f19603f3d011682016040523d82523d6000602084013e612d96565b606091505b506000815103612ddd57836040517f64a0ae92000000000000000000000000000000000000000000000000000000008152600401612dd491906139df565b60405180910390fd5b805181602001fd5b63150b7a0260e01b7bffffffffffffffffffffffffffffffffffffffffffffffffffffffff1916817bffffffffffffffffffffffffffffffffffffffffffffffffffffffff191614612e6e57836040517f64a0ae92000000000000000000000000000000000000000000000000000000008152600401612e6591906139df565b60405180910390fd5b505b50505050565b600073ffffffffffffffffffffffffffffffffffffffff168273ffffffffffffffffffffffffffffffffffffffff1603612ee85760006040517f64a0ae92000000000000000000000000000000000000000000000000000000008152600401612edf91906139df565b60405180910390fd5b6000612ef6838360006126f3565b9050600073ffffffffffffffffffffffffffffffffffffffff168173ffffffffffffffffffffffffffffffffffffffff1614612f6a5760006040517f73c6ac6e000000000000000000000000000000000000000000000000000000008152600401612f6191906139df565b60405180910390fd5b505050565b612f79828261332d565b5050565b606060405180602001604052806000815250905090565b6060612f9f82612614565b506000612faa612f7d565b90506000815111612fca5760405180602001604052806000815250612ff5565b80612fd484613389565b604051602001612fe59291906149a1565b6040516020818303038152906040525b915050919050565b60007f01ffc9a7000000000000000000000000000000000000000000000000000000007bffffffffffffffffffffffffffffffffffffffffffffffffffffffff1916827bffffffffffffffffffffffffffffffffffffffffffffffffffffffff1916149050919050565b60006002600083815260200190815260200160002060009054906101000a900473ffffffffffffffffffffffffffffffffffffffff169050919050565b80806130dd5750600073ffffffffffffffffffffffffffffffffffffffff168273ffffffffffffffffffffffffffffffffffffffff1614155b156132115760006130ed84612614565b9050600073ffffffffffffffffffffffffffffffffffffffff168373ffffffffffffffffffffffffffffffffffffffff161415801561315857508273ffffffffffffffffffffffffffffffffffffffff168173ffffffffffffffffffffffffffffffffffffffff1614155b801561316b57506131698184611fb8565b155b156131ad57826040517fa9fbf51f0000000000000000000000000000000000000000000000000000000081526004016131a491906139df565b60405180910390fd5b811561320f57838573ffffffffffffffffffffffffffffffffffffffff168273ffffffffffffffffffffffffffffffffffffffff167f8c5be1e5ebec7d5bd14f71427d1e84f3dd0314c0f7b2291e5b200ac8c7c3b92560405160405180910390a45b505b836004600085815260200190815260200160002060006101000a81548173ffffffffffffffffffffffffffffffffffffffff021916908373ffffffffffffffffffffffffffffffffffffffff16021790555050505050565b613274838383613457565b61332857600073ffffffffffffffffffffffffffffffffffffffff168373ffffffffffffffffffffffffffffffffffffffff16036132e957806040517f7e2732890000000000000000000000000000000000000000000000000000000081526004016132e09190613da5565b60405180910390fd5b81816040517f177e802f00000000000000000000000000000000000000000000000000000000815260040161331f929190614ef4565b60405180910390fd5b505050565b8060066000848152602001908152602001600020908161334d9190614bd3565b507ff8e1a15aba9398e019f0b49df1a4fde98ee17ae345cb5f6b5e2c27f5033e8ce78260405161337d9190613da5565b60405180910390a15050565b60606000600161339884613518565b01905060008167ffffffffffffffff8111156133b7576133b6613ee6565b5b6040519080825280601f01601f1916602001820160405280156133e95781602001600182028036833780820191505090505b509050600082602001820190505b60011561344c578080600190039150507f3031323334353637383961626364656600000000000000000000000000000000600a86061a8153600a85816134405761343f614666565b5b049450600085036133f7575b819350505050919050565b60008073ffffffffffffffffffffffffffffffffffffffff168373ffffffffffffffffffffffffffffffffffffffff161415801561350f57508273ffffffffffffffffffffffffffffffffffffffff168473ffffffffffffffffffffffffffffffffffffffff1614806134d057506134cf8484611fb8565b5b8061350e57508273ffffffffffffffffffffffffffffffffffffffff166134f68361269c565b73ffffffffffffffffffffffffffffffffffffffff16145b5b90509392505050565b600080600090507a184f03e93ff9f4daa797ed6e38ed64bf6a1f0100000000000000008310613576577a184f03e93ff9f4daa797ed6e38ed64bf6a1f010000000000000000838161356c5761356b614666565b5b0492506040810190505b6d04ee2d6d415b85acef810000000083106135b3576d04ee2d6d415b85acef810000000083816135a9576135a8614666565b5b0492506020810190505b662386f26fc1000083106135e257662386f26fc1000083816135d8576135d7614666565b5b0492506010810190505b6305f5e100831061360b576305f5e100838161360157613600614666565b5b0492506008810190505b612710831061363057612710838161362657613625614666565b5b0492506004810190505b60648310613653576064838161364957613648614666565b5b0492506002810190505b600a8310613662576001810190505b80915050919050565b6040518060c0016040528060008152602001600073ffffffffffffffffffffffffffffffffffffffff16815260200160008152602001600073ffffffffffffffffffffffffffffffffffffffff168152602001600015158152602001606081525090565b600082825260208201905092915050565b7f5468697320636f6e747261637420646f6573206e6f742061636365707420457460008201527f6865720000000000000000000000000000000000000000000000000000000000602082015250565b600061373c6023836136cf565b9150613747826136e0565b604082019050919050565b6000602082019050818103600083015261376b8161372f565b9050919050565b6000604051905090565b600080fd5b600080fd5b600073ffffffffffffffffffffffffffffffffffffffff82169050919050565b60006137b182613786565b9050919050565b6137c1816137a6565b81146137cc57600080fd5b50565b6000813590506137de816137b8565b92915050565b6000602082840312156137fa576137f961377c565b5b6000613808848285016137cf565b91505092915050565b60008115159050919050565b61382681613811565b82525050565b6000602082019050613841600083018461381d565b92915050565b60007fffffffff0000000000000000000000000000000000000000000000000000000082169050919050565b61387c81613847565b811461388757600080fd5b50565b60008135905061389981613873565b92915050565b6000602082840312156138b5576138b461377c565b5b60006138c38482850161388a565b91505092915050565b600081519050919050565b60005b838110156138f55780820151818401526020810190506138da565b60008484015250505050565b6000601f19601f8301169050919050565b600061391d826138cc565b61392781856136cf565b93506139378185602086016138d7565b61394081613901565b840191505092915050565b600060208201905081810360008301526139658184613912565b905092915050565b6000819050919050565b6139808161396d565b811461398b57600080fd5b50565b60008135905061399d81613977565b92915050565b6000602082840312156139b9576139b861377c565b5b60006139c78482850161398e565b91505092915050565b6139d9816137a6565b82525050565b60006020820190506139f460008301846139d0565b92915050565b60008060408385031215613a1157613a1061377c565b5b6000613a1f858286016137cf565b9250506020613a308582860161398e565b9150509250929050565b600081519050919050565b600082825260208201905092915050565b6000819050602082019050919050565b613a6f8161396d565b82525050565b613a7e816137a6565b82525050565b613a8d81613811565b82525050565b600082825260208201905092915050565b6000613aaf826138cc565b613ab98185613a93565b9350613ac98185602086016138d7565b613ad281613901565b840191505092915050565b600060c083016000830151613af56000860182613a66565b506020830151613b086020860182613a75565b506040830151613b1b6040860182613a66565b506060830151613b2e6060860182613a75565b506080830151613b416080860182613a84565b5060a083015184820360a0860152613b598282613aa4565b9150508091505092915050565b6000613b728383613add565b905092915050565b6000602082019050919050565b6000613b9282613a3a565b613b9c8185613a45565b935083602082028501613bae85613a56565b8060005b85811015613bea5784840389528151613bcb8582613b66565b9450613bd683613b7a565b925060208a01995050600181019050613bb2565b50829750879550505050505092915050565b60006020820190508181036000830152613c168184613b87565b905092915050565b600080600060608486031215613c3757613c3661377c565b5b6000613c45868287016137cf565b9350506020613c56868287016137cf565b9250506040613c678682870161398e565b9150509250925092565b6000819050919050565b6000613c96613c91613c8c84613786565b613c71565b613786565b9050919050565b6000613ca882613c7b565b9050919050565b6000613cba82613c9d565b9050919050565b613cca81613caf565b82525050565b6000602082019050613ce56000830184613cc1565b92915050565b600060c083016000830151613d036000860182613a66565b506020830151613d166020860182613a75565b506040830151613d296040860182613a66565b506060830151613d3c6060860182613a75565b506080830151613d4f6080860182613a84565b5060a083015184820360a0860152613d678282613aa4565b9150508091505092915050565b60006020820190508181036000830152613d8e8184613ceb565b905092915050565b613d9f8161396d565b82525050565b6000602082019050613dba6000830184613d96565b92915050565b6000613dcb82613c9d565b9050919050565b613ddb81613dc0565b82525050565b6000602082019050613df66000830184613dd2565b92915050565b6000819050919050565b613e0f81613dfc565b82525050565b6000602082019050613e2a6000830184613e06565b92915050565b613e3981613811565b8114613e4457600080fd5b50565b600081359050613e5681613e30565b92915050565b60008060408385031215613e7357613e7261377c565b5b6000613e81858286016137cf565b9250506020613e9285828601613e47565b9150509250929050565b60008060408385031215613eb357613eb261377c565b5b6000613ec18582860161398e565b9250506020613ed28582860161398e565b9150509250929050565b600080fd5b600080fd5b7f4e487b7100000000000000000000000000000000000000000000000000000000600052604160045260246000fd5b613f1e82613901565b810181811067ffffffffffffffff82111715613f3d57613f3c613ee6565b5b80604052505050565b6000613f50613772565b9050613f5c8282613f15565b919050565b600067ffffffffffffffff821115613f7c57613f7b613ee6565b5b613f8582613901565b9050602081019050919050565b82818337600083830152505050565b6000613fb4613faf84613f61565b613f46565b905082815260208101848484011115613fd057613fcf613ee1565b5b613fdb848285613f92565b509392505050565b600082601f830112613ff857613ff7613edc565b5b8135614008848260208601613fa1565b91505092915050565b6000806000806080858703121561402b5761402a61377c565b5b6000614039878288016137cf565b945050602061404a878288016137cf565b935050604061405b8782880161398e565b925050606085013567ffffffffffffffff81111561407c5761407b613781565b5b61408887828801613fe3565b91505092959194509250565b600067ffffffffffffffff8211156140af576140ae613ee6565b5b6140b882613901565b9050602081019050919050565b60006140d86140d384614094565b613f46565b9050828152602081018484840111156140f4576140f3613ee1565b5b6140ff848285613f92565b509392505050565b600082601f83011261411c5761411b613edc565b5b813561412c8482602086016140c5565b91505092915050565b60008060006060848603121561414e5761414d61377c565b5b600084013567ffffffffffffffff81111561416c5761416b613781565b5b61417886828701614107565b93505060206141898682870161398e565b925050604084013567ffffffffffffffff8111156141aa576141a9613781565b5b6141b686828701614107565b9150509250925092565b600080604083850312156141d7576141d661377c565b5b60006141e58582860161398e565b925050602083013567ffffffffffffffff81111561420657614205613781565b5b61421285828601614107565b9150509250929050565b600080604083850312156142335761423261377c565b5b6000614241858286016137cf565b9250506020614252858286016137cf565b9150509250929050565b6000806000606084860312156142755761427461377c565b5b60006142838682870161398e565b93505060206142948682870161398e565b925050604084013567ffffffffffffffff8111156142b5576142b4613781565b5b6142c186828701614107565b9150509250925092565b600060c0820190506142e06000830189613d96565b6142ed60208301886139d0565b6142fa6040830187613d96565b61430760608301866139d0565b614314608083018561381d565b81810360a08301526143268184613912565b9050979650505050505050565b7f4e487b7100000000000000000000000000000000000000000000000000000000600052602260045260246000fd5b6000600282049050600182168061437a57607f821691505b60208210810361438d5761438c614333565b5b50919050565b7f4e487b7100000000000000000000000000000000000000000000000000000000600052601160045260246000fd5b60006143cd8261396d565b91507fffffffffffffffffffffffffffffffffffffffffffffffffffffffffffffffff82036143ff576143fe614393565b5b600182019050919050565b7f4e487b7100000000000000000000000000000000000000000000000000000000600052603260045260246000fd5b600060608201905061444e60008301866139d0565b61445b6020830185613d96565b61446860408301846139d0565b949350505050565b7f4e6f2070726f636565647320746f207769746864726177000000000000000000600082015250565b60006144a66017836136cf565b91506144b182614470565b602082019050919050565b600060208201905081810360008301526144d581614499565b9050919050565b600081905092915050565b50565b60006144f76000836144dc565b9150614502826144e7565b600082019050919050565b6000614518826144ea565b9150819050919050565b7f5472616e73666572206661696c65640000000000000000000000000000000000600082015250565b6000614558600f836136cf565b915061456382614522565b602082019050919050565b600060208201905081810360008301526145878161454b565b9050919050565b7f4e4654206973206e6f7420636f6d70726f6d6973656400000000000000000000600082015250565b60006145c46016836136cf565b91506145cf8261458e565b602082019050919050565b600060208201905081810360008301526145f3816145b7565b9050919050565b7f4974656d206e6f74206c697374656420666f722073616c650000000000000000600082015250565b60006146306018836136cf565b915061463b826145fa565b602082019050919050565b6000602082019050818103600083015261465f81614623565b9050919050565b7f4e487b7100000000000000000000000000000000000000000000000000000000600052601260045260246000fd5b60006146a08261396d565b91506146ab8361396d565b9250826146bb576146ba614666565b5b828204905092915050565b60006146d18261396d565b91506146dc8361396d565b92508282019050808211156146f4576146f3614393565b5b92915050565b7f507269636520706c757320666565206e6f74206d657400000000000000000000600082015250565b60006147306016836136cf565b915061473b826146fa565b602082019050919050565b6000602082019050818103600083015261475f81614723565b9050919050565b60008151905061477581613977565b92915050565b6000602082840312156147915761479061377c565b5b600061479f84828501614766565b91505092915050565b7f696e73756666696369656e742066756e64000000000000000000000000000000600082015250565b60006147de6011836136cf565b91506147e9826147a8565b602082019050919050565b6000602082019050818103600083015261480d816147d1565b9050919050565b600060608201905061482960008301866139d0565b61483660208301856139d0565b6148436040830184613d96565b949350505050565b60008151905061485a81613e30565b92915050565b6000602082840312156148765761487561377c565b5b60006148848482850161484b565b91505092915050565b7f546f6b656e207472616e73666572206661696c65640000000000000000000000600082015250565b60006148c36015836136cf565b91506148ce8261488d565b602082019050919050565b600060208201905081810360008301526148f2816148b6565b9050919050565b7f4b5943206e6f7420766572696669656400000000000000000000000000000000600082015250565b600061492f6010836136cf565b915061493a826148f9565b602082019050919050565b6000602082019050818103600083015261495e81614922565b9050919050565b600081905092915050565b600061497b826138cc565b6149858185614965565b93506149958185602086016138d7565b80840191505092915050565b60006149ad8285614970565b91506149b98284614970565b91508190509392505050565b7f43616c6c6572206973206e6f7420746865206f776e6572000000000000000000600082015250565b60006149fb6017836136cf565b9150614a06826149c5565b602082019050919050565b60006020820190508181036000830152614a2a816149ee565b9050919050565b60008190508160005260206000209050919050565b60006020601f8301049050919050565b600082821b905092915050565b600060088302614a937fffffffffffffffffffffffffffffffffffffffffffffffffffffffffffffffff82614a56565b614a9d8683614a56565b95508019841693508086168417925050509392505050565b6000614ad0614acb614ac68461396d565b613c71565b61396d565b9050919050565b6000819050919050565b614aea83614ab5565b614afe614af682614ad7565b848454614a63565b825550505050565b600090565b614b13614b06565b614b1e818484614ae1565b505050565b5b81811015614b4257614b37600082614b0b565b600181019050614b24565b5050565b601f821115614b8757614b5881614a31565b614b6184614a46565b81016020851015614b70578190505b614b84614b7c85614a46565b830182614b23565b50505b505050565b600082821c905092915050565b6000614baa60001984600802614b8c565b1980831691505092915050565b6000614bc38383614b99565b9150826002028217905092915050565b614bdc826138cc565b67ffffffffffffffff811115614bf557614bf4613ee6565b5b614bff8254614362565b614c0a828285614b46565b600060209050601f831160018114614c3d5760008415614c2b578287015190505b614c358582614bb7565b865550614c9d565b601f198416614c4b86614a31565b60005b82811015614c7357848901518255600182019150602085019450602081019050614c4e565b86831015614c905784890151614c8c601f891682614b99565b8355505b6001600288020188555050505b505050505050565b6000606082019050614cba6000830186613d96565b614cc7602083018561381d565b8181036040830152614cd98184613912565b9050949350505050565b7f5072696365206d7573742062652061626f7665207a65726f0000000000000000600082015250565b6000614d196018836136cf565b9150614d2482614ce3565b602082019050919050565b60006020820190508181036000830152614d4881614d0c565b9050919050565b60008154614d5c81614362565b614d6681866136cf565b94506001821660008114614d815760018114614d9757614dca565b60ff198316865281151560200286019350614dca565b614da085614a31565b60005b83811015614dc257815481890152600182019150602081019050614da3565b808801955050505b50505092915050565b6000606082019050614de86000830186613d96565b614df5602083018561381d565b8181036040830152614e078184614d4f565b9050949350505050565b600081519050919050565b600082825260208201905092915050565b6000614e3882614e11565b614e428185614e1c565b9350614e528185602086016138d7565b614e5b81613901565b840191505092915050565b6000608082019050614e7b60008301876139d0565b614e8860208301866139d0565b614e956040830185613d96565b8181036060830152614ea78184614e2d565b905095945050505050565b600081519050614ec181613873565b92915050565b600060208284031215614edd57614edc61377c565b5b6000614eeb84828501614eb2565b91505092915050565b6000604082019050614f0960008301856139d0565b614f166020830184613d96565b939250505056fea26469706673582212206bd69c8b0c4bc7293f9ebb3ee6989f1b27104793d6b3ca4ba4cf07daf2d451f164736f6c63430008180033",
  "linkReferences": {},
  "deployedLinkReferences": {}
}