{
  "_format": "hh-sol-artifact-1",
  "contractName": "LanSeller",
  "sourceName": "contracts/Lanseller.sol",
  "abi": [
    {
      "inputs": [
        {
          "internalType": "address",
          "name": "_lstToken",
          "type": "address"
        },
        {
          "internalType": "address",
          "name": "_verifier",
          "type": "address"
        }
      ],
      "stateMutability": "nonpayable",
      "type": "constructor"
    },
    {
      "inputs": [
        {
          "internalType": "address",
          "name": "sender",
          "type": "address"
        },
        {
          "internalType": "uint256",
          "name": "tokenId",
          "type": "uint256"
        },
        {
          "internalType": "address",
          "name": "owner",
          "type": "address"
        }
      ],
      "name": "ERC721IncorrectOwner",
      "type": "error"
    },
    {
      "inputs": [
        {
          "internalType": "address",
          "name": "operator",
          "type": "address"
        },
        {
          "internalType": "uint256",
          "name": "tokenId",
          "type": "uint256"
        }
      ],
      "name": "ERC721InsufficientApproval",
      "type": "error"
    },
    {
      "inputs": [
        {
          "internalType": "address",
          "name": "approver",
          "type": "address"
        }
      ],
      "name": "ERC721InvalidApprover",
      "type": "error"
    },
    {
      "inputs": [
        {
          "internalType": "address",
          "name": "operator",
          "type": "address"
        }
      ],
      "name": "ERC721InvalidOperator",
      "type": "error"
    },
    {
      "inputs": [
        {
          "internalType": "address",
          "name": "owner",
          "type": "address"
        }
      ],
      "name": "ERC721InvalidOwner",
      "type": "error"
    },
    {
      "inputs": [
        {
          "internalType": "address",
          "name": "receiver",
          "type": "address"
        }
      ],
      "name": "ERC721InvalidReceiver",
      "type": "error"
    },
    {
      "inputs": [
        {
          "internalType": "address",
          "name": "sender",
          "type": "address"
        }
      ],
      "name": "ERC721InvalidSender",
      "type": "error"
    },
    {
      "inputs": [
        {
          "internalType": "uint256",
          "name": "tokenId",
          "type": "uint256"
        }
      ],
      "name": "ERC721NonexistentToken",
      "type": "error"
    },
    {
      "inputs": [],
      "name": "ReentrancyGuardReentrantCall",
      "type": "error"
    },
    {
      "anonymous": false,
      "inputs": [
        {
          "indexed": true,
          "internalType": "address",
          "name": "owner",
          "type": "address"
        },
        {
          "indexed": true,
          "internalType": "address",
          "name": "approved",
          "type": "address"
        },
        {
          "indexed": true,
          "internalType": "uint256",
          "name": "tokenId",
          "type": "uint256"
        }
      ],
      "name": "Approval",
      "type": "event"
    },
    {
      "anonymous": false,
      "inputs": [
        {
          "indexed": true,
          "internalType": "address",
          "name": "owner",
          "type": "address"
        },
        {
          "indexed": true,
          "internalType": "address",
          "name": "operator",
          "type": "address"
        },
        {
          "indexed": false,
          "internalType": "bool",
          "name": "approved",
          "type": "bool"
        }
      ],
      "name": "ApprovalForAll",
      "type": "event"
    },
    {
      "anonymous": false,
      "inputs": [
        {
          "indexed": false,
          "internalType": "uint256",
          "name": "_fromTokenId",
          "type": "uint256"
        },
        {
          "indexed": false,
          "internalType": "uint256",
          "name": "_toTokenId",
          "type": "uint256"
        }
      ],
      "name": "BatchMetadataUpdate",
      "type": "event"
    },
    {
      "anonymous": false,
      "inputs": [
        {
          "indexed": true,
          "internalType": "address",
          "name": "user",
          "type": "address"
        },
        {
          "indexed": false,
          "internalType": "uint256",
          "name": "expirationTime",
          "type": "uint256"
        }
      ],
      "name": "KYCVerified",
      "type": "event"
    },
    {
      "anonymous": false,
      "inputs": [
        {
          "indexed": false,
          "internalType": "uint256",
          "name": "newFee",
          "type": "uint256"
        }
      ],
      "name": "ListingFeeUpdated",
      "type": "event"
    },
    {
      "anonymous": false,
      "inputs": [
        {
          "indexed": false,
          "internalType": "uint256",
          "name": "_tokenId",
          "type": "uint256"
        }
      ],
      "name": "MetadataUpdate",
      "type": "event"
    },
    {
      "anonymous": false,
      "inputs": [
        {
          "indexed": true,
          "internalType": "address",
          "name": "buyer",
          "type": "address"
        },
        {
          "indexed": true,
          "internalType": "uint256",
          "name": "tokenId",
          "type": "uint256"
        },
        {
          "indexed": false,
          "internalType": "uint256",
          "name": "price",
          "type": "uint256"
        }
      ],
      "name": "PropertyBought",
      "type": "event"
    },
    {
      "anonymous": false,
      "inputs": [
        {
          "indexed": true,
          "internalType": "address",
          "name": "seller",
          "type": "address"
        },
        {
          "indexed": true,
          "internalType": "uint256",
          "name": "tokenId",
          "type": "uint256"
        },
        {
          "indexed": false,
          "internalType": "uint256",
          "name": "price",
          "type": "uint256"
        },
        {
          "indexed": false,
          "internalType": "bool",
          "name": "forSale",
          "type": "bool"
        },
        {
          "indexed": false,
          "internalType": "string",
          "name": "ipfsHash",
          "type": "string"
        }
      ],
      "name": "PropertyListed",
      "type": "event"
    },
    {
      "anonymous": false,
      "inputs": [
        {
          "indexed": true,
          "internalType": "address",
          "name": "seller",
          "type": "address"
        },
        {
          "indexed": true,
          "internalType": "uint256",
          "name": "tokenId",
          "type": "uint256"
        }
      ],
      "name": "PropertyListingCanceled",
      "type": "event"
    },
    {
      "anonymous": false,
      "inputs": [
        {
          "indexed": true,
          "internalType": "address",
          "name": "buyer",
          "type": "address"
        },
        {
          "indexed": true,
          "internalType": "uint256",
          "name": "tokenId",
          "type": "uint256"
        },
        {
          "indexed": false,
          "internalType": "uint256",
          "name": "price",
          "type": "uint256"
        }
      ],
      "name": "PropertySold",
      "type": "event"
    },
    {
      "anonymous": false,
      "inputs": [
        {
          "indexed": true,
          "internalType": "address",
          "name": "from",
          "type": "address"
        },
        {
          "indexed": true,
          "internalType": "address",
          "name": "to",
          "type": "address"
        },
        {
          "indexed": true,
          "internalType": "uint256",
          "name": "tokenId",
          "type": "uint256"
        }
      ],
      "name": "Transfer",
      "type": "event"
    },
    {
      "anonymous": false,
      "inputs": [
        {
          "indexed": true,
          "internalType": "address",
          "name": "to",
          "type": "address"
        },
        {
          "indexed": false,
          "internalType": "uint256",
          "name": "amount",
          "type": "uint256"
        }
      ],
      "name": "Withdrawal",
      "type": "event"
    },
    {
      "stateMutability": "payable",
      "type": "fallback"
    },
    {
      "inputs": [],
      "name": "KYC_VALIDITY_PERIOD",
      "outputs": [
        {
          "internalType": "uint256",
          "name": "",
          "type": "uint256"
        }
      ],
      "stateMutability": "view",
      "type": "function"
    },
    {
      "inputs": [],
      "name": "PRICE_PRECISION",
      "outputs": [
        {
          "internalType": "uint256",
          "name": "",
          "type": "uint256"
        }
      ],
      "stateMutability": "view",
      "type": "function"
    },
    {
      "inputs": [
        {
          "internalType": "address",
          "name": "to",
          "type": "address"
        },
        {
          "internalType": "uint256",
          "name": "tokenId",
          "type": "uint256"
        }
      ],
      "name": "approve",
      "outputs": [],
      "stateMutability": "nonpayable",
      "type": "function"
    },
    {
      "inputs": [
        {
          "internalType": "address",
          "name": "owner",
          "type": "address"
        }
      ],
      "name": "balanceOf",
      "outputs": [
        {
          "internalType": "uint256",
          "name": "",
          "type": "uint256"
        }
      ],
      "stateMutability": "view",
      "type": "function"
    },
    {
      "inputs": [
        {
          "internalType": "uint256",
          "name": "tokenId",
          "type": "uint256"
        },
        {
          "internalType": "uint256",
          "name": "_amount",
          "type": "uint256"
        }
      ],
      "name": "buyProperty",
      "outputs": [],
      "stateMutability": "nonpayable",
      "type": "function"
    },
    {
      "inputs": [
        {
          "internalType": "uint256",
          "name": "",
          "type": "uint256"
        }
      ],
      "name": "compromisedNFTs",
      "outputs": [
        {
          "internalType": "bool",
          "name": "",
          "type": "bool"
        }
      ],
      "stateMutability": "view",
      "type": "function"
    },
    {
      "inputs": [
        {
          "internalType": "string",
          "name": "tokenURI",
          "type": "string"
        },
        {
          "internalType": "uint256",
          "name": "price",
          "type": "uint256"
        },
        {
          "internalType": "string",
          "name": "ipfsHash",
          "type": "string"
        }
      ],
      "name": "createToken",
      "outputs": [],
      "stateMutability": "nonpayable",
      "type": "function"
    },
    {
      "inputs": [
        {
          "internalType": "uint256",
          "name": "",
          "type": "uint256"
        }
      ],
      "name": "documentHashes",
      "outputs": [
        {
          "internalType": "bytes32",
          "name": "",
          "type": "bytes32"
        }
      ],
      "stateMutability": "view",
      "type": "function"
    },
    {
      "inputs": [
        {
          "internalType": "address",
          "name": "",
          "type": "address"
        }
      ],
      "name": "funds",
      "outputs": [
        {
          "internalType": "uint256",
          "name": "",
          "type": "uint256"
        }
      ],
      "stateMutability": "view",
      "type": "function"
    },
    {
      "inputs": [
        {
          "internalType": "uint256",
          "name": "tokenId",
          "type": "uint256"
        }
      ],
      "name": "getApproved",
      "outputs": [
        {
          "internalType": "address",
          "name": "",
          "type": "address"
        }
      ],
      "stateMutability": "view",
      "type": "function"
    },
    {
      "inputs": [
        {
          "internalType": "address",
          "name": "user",
          "type": "address"
        }
      ],
      "name": "getKYCStatus",
      "outputs": [
        {
          "internalType": "bool",
          "name": "isVerified",
          "type": "bool"
        }
      ],
      "stateMutability": "view",
      "type": "function"
    },
    {
      "inputs": [],
      "name": "getListedProperties",
      "outputs": [
        {
          "components": [
            {
              "internalType": "uint256",
              "name": "tokenId",
              "type": "uint256"
            },
            {
              "internalType": "address",
              "name": "seller",
              "type": "address"
            },
            {
              "internalType": "uint256",
              "name": "price",
              "type": "uint256"
            },
            {
              "internalType": "address",
              "name": "buyer",
              "type": "address"
            },
            {
              "internalType": "bool",
              "name": "forSale",
              "type": "bool"
            },
            {
              "internalType": "string",
              "name": "ipfsHash",
              "type": "string"
            }
          ],
          "internalType": "struct LanSeller.Property[]",
          "name": "",
          "type": "tuple[]"
        }
      ],
      "stateMutability": "view",
      "type": "function"
    },
    {
      "inputs": [],
      "name": "getListingFee",
      "outputs": [
        {
          "internalType": "uint256",
          "name": "",
          "type": "uint256"
        }
      ],
      "stateMutability": "view",
      "type": "function"
    },
    {
      "inputs": [
        {
          "internalType": "uint256",
          "name": "tokenId",
          "type": "uint256"
        }
      ],
      "name": "getProperty",
      "outputs": [
        {
          "components": [
            {
              "internalType": "uint256",
              "name": "tokenId",
              "type": "uint256"
            },
            {
              "internalType": "address",
              "name": "seller",
              "type": "address"
            },
            {
              "internalType": "uint256",
              "name": "price",
              "type": "uint256"
            },
            {
              "internalType": "address",
              "name": "buyer",
              "type": "address"
            },
            {
              "internalType": "bool",
              "name": "forSale",
              "type": "bool"
            },
            {
              "internalType": "string",
              "name": "ipfsHash",
              "type": "string"
            }
          ],
          "internalType": "struct LanSeller.Property",
          "name": "",
          "type": "tuple"
        }
      ],
      "stateMutability": "view",
      "type": "function"
    },
    {
      "inputs": [
        {
          "internalType": "address",
          "name": "seller",
          "type": "address"
        }
      ],
      "name": "getSellerFunds",
      "outputs": [
        {
          "internalType": "uint256",
          "name": "",
          "type": "uint256"
        }
      ],
      "stateMutability": "view",
      "type": "function"
    },
    {
      "inputs": [],
      "name": "getTokenCounter",
      "outputs": [
        {
          "internalType": "uint256",
          "name": "",
          "type": "uint256"
        }
      ],
      "stateMutability": "view",
      "type": "function"
    },
    {
      "inputs": [
        {
          "internalType": "uint256",
          "name": "tokenId",
          "type": "uint256"
        }
      ],
      "name": "getTokenURI",
      "outputs": [
        {
          "internalType": "string",
          "name": "",
          "type": "string"
        }
      ],
      "stateMutability": "view",
      "type": "function"
    },
    {
      "inputs": [
        {
          "internalType": "address",
          "name": "user",
          "type": "address"
        }
      ],
      "name": "hasUserListed",
      "outputs": [
        {
          "internalType": "bool",
          "name": "",
          "type": "bool"
        }
      ],
      "stateMutability": "view",
      "type": "function"
    },
    {
      "inputs": [
        {
          "internalType": "uint256",
          "name": "tokenId",
          "type": "uint256"
        },
        {
          "internalType": "string",
          "name": "newTokenURI",
          "type": "string"
        }
      ],
      "name": "invalidateAndUpgradeNFT",
      "outputs": [],
      "stateMutability": "nonpayable",
      "type": "function"
    },
    {
      "inputs": [
        {
          "internalType": "uint256",
          "name": "tokenId",
          "type": "uint256"
        }
      ],
      "name": "invalidateCompromisedNFT",
      "outputs": [],
      "stateMutability": "nonpayable",
      "type": "function"
    },
    {
      "inputs": [
        {
          "internalType": "address",
          "name": "owner",
          "type": "address"
        },
        {
          "internalType": "address",
          "name": "operator",
          "type": "address"
        }
      ],
      "name": "isApprovedForAll",
      "outputs": [
        {
          "internalType": "bool",
          "name": "",
          "type": "bool"
        }
      ],
      "stateMutability": "view",
      "type": "function"
    },
    {
      "inputs": [
        {
          "internalType": "uint256",
          "name": "tokenId",
          "type": "uint256"
        },
        {
          "internalType": "uint256",
          "name": "price",
          "type": "uint256"
        },
        {
          "internalType": "string",
          "name": "ipfsHash",
          "type": "string"
        }
      ],
      "name": "listNewProperty",
      "outputs": [],
      "stateMutability": "nonpayable",
      "type": "function"
    },
    {
      "inputs": [],
      "name": "listingFee",
      "outputs": [
        {
          "internalType": "uint256",
          "name": "",
          "type": "uint256"
        }
      ],
      "stateMutability": "view",
      "type": "function"
    },
    {
      "inputs": [],
      "name": "lstToken",
      "outputs": [
        {
          "internalType": "contract IERC20",
          "name": "",
          "type": "address"
        }
      ],
      "stateMutability": "view",
      "type": "function"
    },
    {
      "inputs": [],
      "name": "name",
      "outputs": [
        {
          "internalType": "string",
          "name": "",
          "type": "string"
        }
      ],
      "stateMutability": "view",
      "type": "function"
    },
    {
      "inputs": [
        {
          "internalType": "uint256",
          "name": "tokenId",
          "type": "uint256"
        }
      ],
      "name": "ownerOf",
      "outputs": [
        {
          "internalType": "address",
          "name": "",
          "type": "address"
        }
      ],
      "stateMutability": "view",
      "type": "function"
    },
    {
      "inputs": [
        {
          "internalType": "uint256",
          "name": "",
          "type": "uint256"
        }
      ],
      "name": "properties",
      "outputs": [
        {
          "internalType": "uint256",
          "name": "tokenId",
          "type": "uint256"
        },
        {
          "internalType": "address",
          "name": "seller",
          "type": "address"
        },
        {
          "internalType": "uint256",
          "name": "price",
          "type": "uint256"
        },
        {
          "internalType": "address",
          "name": "buyer",
          "type": "address"
        },
        {
          "internalType": "bool",
          "name": "forSale",
          "type": "bool"
        },
        {
          "internalType": "string",
          "name": "ipfsHash",
          "type": "string"
        }
      ],
      "stateMutability": "view",
      "type": "function"
    },
    {
      "inputs": [
        {
          "internalType": "address",
          "name": "from",
          "type": "address"
        },
        {
          "internalType": "address",
          "name": "to",
          "type": "address"
        },
        {
          "internalType": "uint256",
          "name": "tokenId",
          "type": "uint256"
        }
      ],
      "name": "safeTransferFrom",
      "outputs": [],
      "stateMutability": "nonpayable",
      "type": "function"
    },
    {
      "inputs": [
        {
          "internalType": "address",
          "name": "from",
          "type": "address"
        },
        {
          "internalType": "address",
          "name": "to",
          "type": "address"
        },
        {
          "internalType": "uint256",
          "name": "tokenId",
          "type": "uint256"
        },
        {
          "internalType": "bytes",
          "name": "data",
          "type": "bytes"
        }
      ],
      "name": "safeTransferFrom",
      "outputs": [],
      "stateMutability": "nonpayable",
      "type": "function"
    },
    {
      "inputs": [
        {
          "internalType": "address",
          "name": "operator",
          "type": "address"
        },
        {
          "internalType": "bool",
          "name": "approved",
          "type": "bool"
        }
      ],
      "name": "setApprovalForAll",
      "outputs": [],
      "stateMutability": "nonpayable",
      "type": "function"
    },
    {
      "inputs": [
        {
          "internalType": "bytes4",
          "name": "interfaceId",
          "type": "bytes4"
        }
      ],
      "name": "supportsInterface",
      "outputs": [
        {
          "internalType": "bool",
          "name": "",
          "type": "bool"
        }
      ],
      "stateMutability": "view",
      "type": "function"
    },
    {
      "inputs": [],
      "name": "symbol",
      "outputs": [
        {
          "internalType": "string",
          "name": "",
          "type": "string"
        }
      ],
      "stateMutability": "view",
      "type": "function"
    },
    {
      "inputs": [],
      "name": "tokenIdCounter",
      "outputs": [
        {
          "internalType": "uint256",
          "name": "",
          "type": "uint256"
        }
      ],
      "stateMutability": "view",
      "type": "function"
    },
    {
      "inputs": [
        {
          "internalType": "uint256",
          "name": "tokenId",
          "type": "uint256"
        }
      ],
      "name": "tokenURI",
      "outputs": [
        {
          "internalType": "string",
          "name": "",
          "type": "string"
        }
      ],
      "stateMutability": "view",
      "type": "function"
    },
    {
      "inputs": [
        {
          "internalType": "address",
          "name": "from",
          "type": "address"
        },
        {
          "internalType": "address",
          "name": "to",
          "type": "address"
        },
        {
          "internalType": "uint256",
          "name": "tokenId",
          "type": "uint256"
        }
      ],
      "name": "transferFrom",
      "outputs": [],
      "stateMutability": "nonpayable",
      "type": "function"
    },
    {
      "inputs": [
        {
          "internalType": "uint256",
          "name": "_listingFee",
          "type": "uint256"
        }
      ],
      "name": "updateListingFee",
      "outputs": [],
      "stateMutability": "nonpayable",
      "type": "function"
    },
    {
      "inputs": [
        {
          "internalType": "uint256",
          "name": "tokenId",
          "type": "uint256"
        },
        {
          "internalType": "uint256",
          "name": "newPrice",
          "type": "uint256"
        }
      ],
      "name": "updatePropertyPrice",
      "outputs": [],
      "stateMutability": "nonpayable",
      "type": "function"
    },
    {
      "inputs": [
        {
          "internalType": "uint256",
          "name": "tokenId",
          "type": "uint256"
        },
        {
          "internalType": "bytes32",
          "name": "documentHash",
          "type": "bytes32"
        },
        {
          "internalType": "bytes",
          "name": "zkProof",
          "type": "bytes"
        }
      ],
      "name": "uploadDocument",
      "outputs": [],
      "stateMutability": "nonpayable",
      "type": "function"
    },
    {
      "inputs": [
        {
          "internalType": "bytes",
          "name": "zkProof",
          "type": "bytes"
        },
        {
          "internalType": "bytes32",
          "name": "documentHash",
          "type": "bytes32"
        }
      ],
      "name": "validateDocument",
      "outputs": [
        {
          "internalType": "bool",
          "name": "",
          "type": "bool"
        }
      ],
      "stateMutability": "view",
      "type": "function"
    },
    {
      "inputs": [],
      "name": "verifier",
      "outputs": [
        {
          "internalType": "contract IVerifier",
          "name": "",
          "type": "address"
        }
      ],
      "stateMutability": "view",
      "type": "function"
    },
    {
      "inputs": [
        {
          "internalType": "address",
          "name": "_user",
          "type": "address"
        }
      ],
      "name": "verifyKYC",
      "outputs": [],
      "stateMutability": "nonpayable",
      "type": "function"
    },
    {
      "inputs": [],
      "name": "withdrawFunds",
      "outputs": [],
      "stateMutability": "nonpayable",
      "type": "function"
    },
    {
      "stateMutability": "payable",
      "type": "receive"
    }
  ],
  "bytecode": "0x6080604052670de0b6b3a7640000600c553480156200001d57600080fd5b50604051620059af380380620059af833981810160405281019062000043919062000226565b6040518060400160405280601981526020017f4c616e5374656c6c61722050726f706572747920546f6b656e000000000000008152506040518060400160405280600481526020017f4c535054000000000000000000000000000000000000000000000000000000008152508160009081620000c09190620004e7565b508060019081620000d29190620004e7565b5050506001600781905550733ec8593f930ea45ea58c968260e6e9ff53fc934f600a60006101000a81548173ffffffffffffffffffffffffffffffffffffffff021916908373ffffffffffffffffffffffffffffffffffffffff16021790555081600960006101000a81548173ffffffffffffffffffffffffffffffffffffffff021916908373ffffffffffffffffffffffffffffffffffffffff16021790555080600d60006101000a81548173ffffffffffffffffffffffffffffffffffffffff021916908373ffffffffffffffffffffffffffffffffffffffff1602179055505050620005ce565b600080fd5b600073ffffffffffffffffffffffffffffffffffffffff82169050919050565b6000620001ee82620001c1565b9050919050565b6200020081620001e1565b81146200020c57600080fd5b50565b6000815190506200022081620001f5565b92915050565b6000806040838503121562000240576200023f620001bc565b5b600062000250858286016200020f565b925050602062000263858286016200020f565b9150509250929050565b600081519050919050565b7f4e487b7100000000000000000000000000000000000000000000000000000000600052604160045260246000fd5b7f4e487b7100000000000000000000000000000000000000000000000000000000600052602260045260246000fd5b60006002820490506001821680620002ef57607f821691505b602082108103620003055762000304620002a7565b5b50919050565b60008190508160005260206000209050919050565b60006020601f8301049050919050565b600082821b905092915050565b6000600883026200036f7fffffffffffffffffffffffffffffffffffffffffffffffffffffffffffffffff8262000330565b6200037b868362000330565b95508019841693508086168417925050509392505050565b6000819050919050565b6000819050919050565b6000620003c8620003c2620003bc8462000393565b6200039d565b62000393565b9050919050565b6000819050919050565b620003e483620003a7565b620003fc620003f382620003cf565b8484546200033d565b825550505050565b600090565b6200041362000404565b62000420818484620003d9565b505050565b5b8181101562000448576200043c60008262000409565b60018101905062000426565b5050565b601f821115620004975762000461816200030b565b6200046c8462000320565b810160208510156200047c578190505b620004946200048b8562000320565b83018262000425565b50505b505050565b600082821c905092915050565b6000620004bc600019846008026200049c565b1980831691505092915050565b6000620004d78383620004a9565b9150826002028217905092915050565b620004f2826200026d565b67ffffffffffffffff8111156200050e576200050d62000278565b5b6200051a8254620002d6565b620005278282856200044c565b600060209050601f8311600181146200055f57600084156200054a578287015190505b620005568582620004c9565b865550620005c6565b601f1984166200056f866200030b565b60005b82811015620005995784890151825560018201915060208501945060208101905062000572565b86831015620005b95784890151620005b5601f891682620004a9565b8355505b6001600288020188555050505b505050505050565b6153d180620005de6000396000f3fe6080604052600436106102545760003560e01c80638092071811610139578063b88d4fde116100b6578063e2ae93fb1161007a578063e2ae93fb1461099b578063e985e9c5146109d8578063f37678ae14610a15578063f79d91ae14610a3e578063f7b1080814610a67578063fce401b214610aa957610294565b8063b88d4fde146108b8578063b8fe6abe146108e1578063c6c9b5b11461090c578063c87b56dd14610935578063d95bab4d1461097257610294565b806395082d25116100fd57806395082d25146107e557806395d89b411461081057806398bdf6f51461083b578063a22cb46514610866578063a772c9271461088f57610294565b806380920718146106d85780638dec2493146107035780638e383c6b1461074057806392daac301461077d5780639324b625146107a857610294565b806332665ffb116101d2578063509bd4ca11610196578063509bd4ca146105a25780636352211e146105df5780636a1b7ecc1461061c5780636d345213146106475780636e02007d1461067057806370a082311461069b57610294565b806332665ffb146104ad57806338d16011146104ea5780633bb3a24d1461051357806342842e0e146105505780634ac80d971461057957610294565b80630fb6d6d1116102195780630fb6d6d1146103da57806319bfbaf91461040557806323b872dd1461044257806324600fc31461046b5780632b7ac3f31461048257610294565b80620c8df0146102cf57806301ffc9a71461030c57806306fdde0314610349578063081812fc14610374578063095ea7b3146103b157610294565b36610294576040517f08c379a000000000000000000000000000000000000000000000000000000000815260040161028b90613a3d565b60405180910390fd5b6040517f08c379a00000000000000000000000000000000000000000000000000000000081526004016102c690613a3d565b60405180910390fd5b3480156102db57600080fd5b506102f660048036038101906102f19190613acf565b610ad2565b6040516103039190613b17565b60405180910390f35b34801561031857600080fd5b50610333600480360381019061032e9190613b8a565b610b28565b6040516103409190613b17565b60405180910390f35b34801561035557600080fd5b5061035e610b89565b60405161036b9190613c36565b60405180910390f35b34801561038057600080fd5b5061039b60048036038101906103969190613c8e565b610c1b565b6040516103a89190613cca565b60405180910390f35b3480156103bd57600080fd5b506103d860048036038101906103d39190613ce5565b610c37565b005b3480156103e657600080fd5b506103ef610c4d565b6040516103fc9190613ee7565b60405180910390f35b34801561041157600080fd5b5061042c60048036038101906104279190613c8e565b610f17565b6040516104399190613b17565b60405180910390f35b34801561044e57600080fd5b5061046960048036038101906104649190613f09565b610f37565b005b34801561047757600080fd5b50610480611039565b005b34801561048e57600080fd5b50610497611213565b6040516104a49190613fbb565b60405180910390f35b3480156104b957600080fd5b506104d460048036038101906104cf9190613c8e565b611239565b6040516104e1919061405f565b60405180910390f35b3480156104f657600080fd5b50610511600480360381019061050c9190613acf565b6113d3565b005b34801561051f57600080fd5b5061053a60048036038101906105359190613c8e565b61143e565b6040516105479190613c36565b60405180910390f35b34801561055c57600080fd5b5061057760048036038101906105729190613f09565b611450565b005b34801561058557600080fd5b506105a0600480360381019061059b9190613c8e565b611470565b005b3480156105ae57600080fd5b506105c960048036038101906105c49190613acf565b6114dc565b6040516105d69190614090565b60405180910390f35b3480156105eb57600080fd5b5061060660048036038101906106019190613c8e565b611525565b6040516106139190613cca565b60405180910390f35b34801561062857600080fd5b50610631611537565b60405161063e9190614090565b60405180910390f35b34801561065357600080fd5b5061066e60048036038101906106699190614216565b61153d565b005b34801561067c57600080fd5b506106856116c3565b6040516106929190614090565b60405180910390f35b3480156106a757600080fd5b506106c260048036038101906106bd9190613acf565b6116cd565b6040516106cf9190614090565b60405180910390f35b3480156106e457600080fd5b506106ed611787565b6040516106fa91906142a6565b60405180910390f35b34801561070f57600080fd5b5061072a60048036038101906107259190613acf565b6117ad565b6040516107379190613b17565b60405180910390f35b34801561074c57600080fd5b5061076760048036038101906107629190613c8e565b611803565b60405161077491906142d0565b60405180910390f35b34801561078957600080fd5b5061079261181b565b60405161079f9190614090565b60405180910390f35b3480156107b457600080fd5b506107cf60048036038101906107ca91906142eb565b611823565b6040516107dc9190613b17565b60405180910390f35b3480156107f157600080fd5b506107fa61190c565b6040516108079190614090565b60405180910390f35b34801561081c57600080fd5b50610825611919565b6040516108329190613c36565b60405180910390f35b34801561084757600080fd5b506108506119ab565b60405161085d9190614090565b60405180910390f35b34801561087257600080fd5b5061088d60048036038101906108889190614373565b6119b1565b005b34801561089b57600080fd5b506108b660048036038101906108b191906143b3565b6119c7565b005b3480156108c457600080fd5b506108df60048036038101906108da91906143f3565b611f51565b005b3480156108ed57600080fd5b506108f6611f6e565b6040516109039190614090565b60405180910390f35b34801561091857600080fd5b50610933600480360381019061092e9190614517565b611f78565b005b34801561094157600080fd5b5061095c60048036038101906109579190613c8e565b6120a0565b6040516109699190613c36565b60405180910390f35b34801561097e57600080fd5b50610999600480360381019061099491906145a2565b6121b3565b005b3480156109a757600080fd5b506109c260048036038101906109bd9190613acf565b61228b565b6040516109cf9190614090565b60405180910390f35b3480156109e457600080fd5b506109ff60048036038101906109fa91906145fe565b6122a3565b604051610a0c9190613b17565b60405180910390f35b348015610a2157600080fd5b50610a3c6004803603810190610a37919061463e565b612337565b005b348015610a4a57600080fd5b50610a656004803603810190610a609190613c8e565b612566565b005b348015610a7357600080fd5b50610a8e6004803603810190610a899190613c8e565b6125a7565b604051610aa0969594939291906146ad565b60405180910390f35b348015610ab557600080fd5b50610ad06004803603810190610acb91906143b3565b6126b8565b005b6000600e60008373ffffffffffffffffffffffffffffffffffffffff1673ffffffffffffffffffffffffffffffffffffffff16815260200190815260200160002060009054906101000a900460ff169050919050565b6000634906490660e01b7bffffffffffffffffffffffffffffffffffffffffffffffffffffffff1916827bffffffffffffffffffffffffffffffffffffffffffffffffffffffff19161480610b825750610b818261281d565b5b9050919050565b606060008054610b9890614744565b80601f0160208091040260200160405190810160405280929190818152602001828054610bc490614744565b8015610c115780601f10610be657610100808354040283529160200191610c11565b820191906000526020600020905b815481529060010190602001808311610bf457829003601f168201915b5050505050905090565b6000610c26826128ff565b50610c3082612987565b9050919050565b610c498282610c446129c4565b6129cc565b5050565b60606000600b549050600080600190505b828111610cb057600f600082815260200190815260200160002060030160149054906101000a900460ff1615610c9d578180610c99906147a4565b9250505b8080610ca8906147a4565b915050610c5e565b5060008167ffffffffffffffff811115610ccd57610ccc6140eb565b5b604051908082528060200260200182016040528015610d0657816020015b610cf3613956565b815260200190600190039081610ceb5790505b509050600080600190505b848111610f0c57600f600082815260200190815260200160002060030160149054906101000a900460ff1615610ef957600f60008281526020019081526020016000206040518060c0016040529081600082015481526020016001820160009054906101000a900473ffffffffffffffffffffffffffffffffffffffff1673ffffffffffffffffffffffffffffffffffffffff1673ffffffffffffffffffffffffffffffffffffffff168152602001600282015481526020016003820160009054906101000a900473ffffffffffffffffffffffffffffffffffffffff1673ffffffffffffffffffffffffffffffffffffffff1673ffffffffffffffffffffffffffffffffffffffff1681526020016003820160149054906101000a900460ff16151515158152602001600482018054610e4a90614744565b80601f0160208091040260200160405190810160405280929190818152602001828054610e7690614744565b8015610ec35780601f10610e9857610100808354040283529160200191610ec3565b820191906000526020600020905b815481529060010190602001808311610ea657829003601f168201915b505050505081525050838381518110610edf57610ede6147ec565b5b60200260200101819052508180610ef5906147a4565b9250505b8080610f04906147a4565b915050610d11565b508194505050505090565b60126020528060005260406000206000915054906101000a900460ff1681565b600073ffffffffffffffffffffffffffffffffffffffff168273ffffffffffffffffffffffffffffffffffffffff1603610fa95760006040517f64a0ae92000000000000000000000000000000000000000000000000000000008152600401610fa09190613cca565b60405180910390fd5b6000610fbd8383610fb86129c4565b6129de565b90508373ffffffffffffffffffffffffffffffffffffffff168173ffffffffffffffffffffffffffffffffffffffff1614611033578382826040517f64283d7b00000000000000000000000000000000000000000000000000000000815260040161102a9392919061481b565b60405180910390fd5b50505050565b611041612bf8565b6000601060003373ffffffffffffffffffffffffffffffffffffffff1673ffffffffffffffffffffffffffffffffffffffff168152602001908152602001600020549050600081116110c8576040517f08c379a00000000000000000000000000000000000000000000000000000000081526004016110bf9061489e565b60405180910390fd5b6000601060003373ffffffffffffffffffffffffffffffffffffffff1673ffffffffffffffffffffffffffffffffffffffff1681526020019081526020016000208190555060003373ffffffffffffffffffffffffffffffffffffffff1682604051611133906148ef565b60006040518083038185875af1925050503d8060008114611170576040519150601f19603f3d011682016040523d82523d6000602084013e611175565b606091505b50509050806111b9576040517f08c379a00000000000000000000000000000000000000000000000000000000081526004016111b090614950565b60405180910390fd5b3373ffffffffffffffffffffffffffffffffffffffff167f7fcf532c15f0a6db0bd6d0e038bea71d30d808c7d98cb3bf7268a95bf5081b65836040516111ff9190614090565b60405180910390a25050611211612c3e565b565b600d60009054906101000a900473ffffffffffffffffffffffffffffffffffffffff1681565b611241613956565b600f60008381526020019081526020016000206040518060c0016040529081600082015481526020016001820160009054906101000a900473ffffffffffffffffffffffffffffffffffffffff1673ffffffffffffffffffffffffffffffffffffffff1673ffffffffffffffffffffffffffffffffffffffff168152602001600282015481526020016003820160009054906101000a900473ffffffffffffffffffffffffffffffffffffffff1673ffffffffffffffffffffffffffffffffffffffff1673ffffffffffffffffffffffffffffffffffffffff1681526020016003820160149054906101000a900460ff1615151515815260200160048201805461134a90614744565b80601f016020809104026020016040519081016040528092919081815260200182805461137690614744565b80156113c35780601f10611398576101008083540402835291602001916113c3565b820191906000526020600020905b8154815290600101906020018083116113a657829003601f168201915b5050505050815250509050919050565b6113db612bf8565b6001600e60008373ffffffffffffffffffffffffffffffffffffffff1673ffffffffffffffffffffffffffffffffffffffff16815260200190815260200160002060006101000a81548160ff02191690831515021790555061143b612c3e565b50565b6060611449826120a0565b9050919050565b61146b83838360405180602001604052806000815250611f51565b505050565b6012600082815260200190815260200160002060009054906101000a900460ff166114d0576040517f08c379a00000000000000000000000000000000000000000000000000000000081526004016114c7906149bc565b60405180910390fd5b6114d981612c48565b50565b6000601060008373ffffffffffffffffffffffffffffffffffffffff1673ffffffffffffffffffffffffffffffffffffffff168152602001908152602001600020549050919050565b6000611530826128ff565b9050919050565b600c5481565b600e60003373ffffffffffffffffffffffffffffffffffffffff1673ffffffffffffffffffffffffffffffffffffffff16815260200190815260200160002060009054906101000a900460ff166115c9576040517f08c379a00000000000000000000000000000000000000000000000000000000081526004016115c090614a28565b60405180910390fd5b600d60009054906101000a900473ffffffffffffffffffffffffffffffffffffffff1673ffffffffffffffffffffffffffffffffffffffff16636b40634182846040518363ffffffff1660e01b8152600401611626929190614a9d565b602060405180830381865afa158015611643573d6000803e3d6000fd5b505050506040513d601f19601f820116820180604052508101906116679190614ae2565b6116a6576040517f08c379a000000000000000000000000000000000000000000000000000000000815260040161169d90614b5b565b60405180910390fd5b816013600085815260200190815260200160002081905550505050565b6000600b54905090565b60008073ffffffffffffffffffffffffffffffffffffffff168273ffffffffffffffffffffffffffffffffffffffff16036117405760006040517f89c62b640000000000000000000000000000000000000000000000000000000081526004016117379190613cca565b60405180910390fd5b600360008373ffffffffffffffffffffffffffffffffffffffff1673ffffffffffffffffffffffffffffffffffffffff168152602001908152602001600020549050919050565b600960009054906101000a900473ffffffffffffffffffffffffffffffffffffffff1681565b6000601160008373ffffffffffffffffffffffffffffffffffffffff1673ffffffffffffffffffffffffffffffffffffffff16815260200190815260200160002060009054906101000a900460ff169050919050565b60136020528060005260406000206000915090505481565b6301e1338081565b6000600d60009054906101000a900473ffffffffffffffffffffffffffffffffffffffff1673ffffffffffffffffffffffffffffffffffffffff16636b40634184846040518363ffffffff1660e01b8152600401611882929190614a9d565b602060405180830381865afa15801561189f573d6000803e3d6000fd5b505050506040513d601f19601f820116820180604052508101906118c39190614ae2565b611902576040517f08c379a00000000000000000000000000000000000000000000000000000000081526004016118f990614b5b565b60405180910390fd5b6001905092915050565b68056bc75e2d6310000081565b60606001805461192890614744565b80601f016020809104026020016040519081016040528092919081815260200182805461195490614744565b80156119a15780601f10611976576101008083540402835291602001916119a1565b820191906000526020600020905b81548152906001019060200180831161198457829003601f168201915b5050505050905090565b600b5481565b6119c36119bc6129c4565b8383612cce565b5050565b81600f600082815260200190815260200160002060030160149054906101000a900460ff16611a2b576040517f08c379a0000000000000000000000000000000000000000000000000000000008152600401611a2290614bc7565b60405180910390fd5b611a33612bf8565b6000600f60008581526020019081526020016000206040518060c0016040529081600082015481526020016001820160009054906101000a900473ffffffffffffffffffffffffffffffffffffffff1673ffffffffffffffffffffffffffffffffffffffff1673ffffffffffffffffffffffffffffffffffffffff168152602001600282015481526020016003820160009054906101000a900473ffffffffffffffffffffffffffffffffffffffff1673ffffffffffffffffffffffffffffffffffffffff1673ffffffffffffffffffffffffffffffffffffffff1681526020016003820160149054906101000a900460ff16151515158152602001600482018054611b3e90614744565b80601f0160208091040260200160405190810160405280929190818152602001828054611b6a90614744565b8015611bb75780601f10611b8c57610100808354040283529160200191611bb7565b820191906000526020600020905b815481529060010190602001808311611b9a57829003601f168201915b5050505050815250509050600060648260400151611bd59190614c16565b9050808260400151611be79190614c47565b841015611c29576040517f08c379a0000000000000000000000000000000000000000000000000000000008152600401611c2090614cc7565b60405180910390fd5b808260400151611c399190614c47565b600960009054906101000a900473ffffffffffffffffffffffffffffffffffffffff1673ffffffffffffffffffffffffffffffffffffffff166370a08231336040518263ffffffff1660e01b8152600401611c949190613cca565b602060405180830381865afa158015611cb1573d6000803e3d6000fd5b505050506040513d601f19601f82011682018060405250810190611cd59190614cfc565b1015611d16576040517f08c379a0000000000000000000000000000000000000000000000000000000008152600401611d0d90614d75565b60405180910390fd5b6000849050600960009054906101000a900473ffffffffffffffffffffffffffffffffffffffff1673ffffffffffffffffffffffffffffffffffffffff166323b872dd3330846040518463ffffffff1660e01b8152600401611d7a93929190614d95565b6020604051808303816000875af1158015611d99573d6000803e3d6000fd5b505050506040513d601f19601f82011682018060405250810190611dbd9190614ae2565b611dfc576040517f08c379a0000000000000000000000000000000000000000000000000000000008152600401611df390614e18565b60405180910390fd5b826040015160106000856020015173ffffffffffffffffffffffffffffffffffffffff1673ffffffffffffffffffffffffffffffffffffffff1681526020019081526020016000206000828254611e539190614c47565b9250508190555081601060003073ffffffffffffffffffffffffffffffffffffffff1673ffffffffffffffffffffffffffffffffffffffff1681526020019081526020016000206000828254611ea99190614c47565b925050819055506000600f600088815260200190815260200160002060030160146101000a81548160ff021916908315150217905550611eee83606001513388612e3d565b853373ffffffffffffffffffffffffffffffffffffffff167f17b4722101958f228ab97d24ff9624947f4ad9586617e0a8d5450f8248e8f57f8560400151604051611f399190614090565b60405180910390a3505050611f4c612c3e565b505050565b611f5c848484610f37565b611f6884848484612faa565b50505050565b6000600c54905090565b600e60003373ffffffffffffffffffffffffffffffffffffffff1673ffffffffffffffffffffffffffffffffffffffff16815260200190815260200160002060009054906101000a900460ff16612004576040517f08c379a0000000000000000000000000000000000000000000000000000000008152600401611ffb90614a28565b60405180910390fd5b600b6000815480929190612017906147a4565b91905055506000600b54905061202d3382613161565b612037818561325a565b612042818484612337565b6001601160003373ffffffffffffffffffffffffffffffffffffffff1673ffffffffffffffffffffffffffffffffffffffff16815260200190815260200160002060006101000a81548160ff02191690831515021790555050505050565b60606120ab826128ff565b5060006006600084815260200190815260200160002080546120cc90614744565b80601f01602080910402602001604051908101604052809291908181526020018280546120f890614744565b80156121455780601f1061211a57610100808354040283529160200191612145565b820191906000526020600020905b81548152906001019060200180831161212857829003601f168201915b505050505090506000612156613268565b9050600081510361216b5781925050506121ae565b6000825111156121a0578082604051602001612188929190614e74565b604051602081830303815290604052925050506121ae565b6121a98461327f565b925050505b919050565b813373ffffffffffffffffffffffffffffffffffffffff166121d482611525565b73ffffffffffffffffffffffffffffffffffffffff161461222a576040517f08c379a000000000000000000000000000000000000000000000000000000000815260040161222190614ee4565b60405180910390fd5b60016012600085815260200190815260200160002060006101000a81548160ff0219169083151502179055506000600b600081548092919061226b906147a4565b91905055905061227b3382613161565b612285818461325a565b50505050565b60106020528060005260406000206000915090505481565b6000600560008473ffffffffffffffffffffffffffffffffffffffff1673ffffffffffffffffffffffffffffffffffffffff16815260200190815260200160002060008373ffffffffffffffffffffffffffffffffffffffff1673ffffffffffffffffffffffffffffffffffffffff16815260200190815260200160002060009054906101000a900460ff16905092915050565b600e60003373ffffffffffffffffffffffffffffffffffffffff1673ffffffffffffffffffffffffffffffffffffffff16815260200190815260200160002060009054906101000a900460ff166123c3576040517f08c379a00000000000000000000000000000000000000000000000000000000081526004016123ba90614a28565b60405180910390fd5b6040518060c001604052808481526020013373ffffffffffffffffffffffffffffffffffffffff1681526020018381526020013373ffffffffffffffffffffffffffffffffffffffff16815260200160011515815260200182815250600f60008581526020019081526020016000206000820151816000015560208201518160010160006101000a81548173ffffffffffffffffffffffffffffffffffffffff021916908373ffffffffffffffffffffffffffffffffffffffff1602179055506040820151816002015560608201518160030160006101000a81548173ffffffffffffffffffffffffffffffffffffffff021916908373ffffffffffffffffffffffffffffffffffffffff16021790555060808201518160030160146101000a81548160ff02191690831515021790555060a082015181600401908161250991906150a6565b50905050823373ffffffffffffffffffffffffffffffffffffffff167fa4043420082106818c012932beaa592e9685cdce8d3ce850b5dd7f6d33c395c98460018560405161255993929190615178565b60405180910390a3505050565b80600c819055507f5fb4654f1efe30c6141eaa6855ffcb27e0b361d899b05e21b1a4d0b3e71e14db8160405161259c9190614090565b60405180910390a150565b600f6020528060005260406000206000915090508060000154908060010160009054906101000a900473ffffffffffffffffffffffffffffffffffffffff16908060020154908060030160009054906101000a900473ffffffffffffffffffffffffffffffffffffffff16908060030160149054906101000a900460ff169080600401805461263590614744565b80601f016020809104026020016040519081016040528092919081815260200182805461266190614744565b80156126ae5780601f10612683576101008083540402835291602001916126ae565b820191906000526020600020905b81548152906001019060200180831161269157829003601f168201915b5050505050905086565b813373ffffffffffffffffffffffffffffffffffffffff166126d982611525565b73ffffffffffffffffffffffffffffffffffffffff161461272f576040517f08c379a000000000000000000000000000000000000000000000000000000000815260040161272690614ee4565b60405180910390fd5b60008211612772576040517f08c379a000000000000000000000000000000000000000000000000000000000815260040161276990615202565b60405180910390fd5b81600f600085815260200190815260200160002060020181905550823373ffffffffffffffffffffffffffffffffffffffff167fa4043420082106818c012932beaa592e9685cdce8d3ce850b5dd7f6d33c395c984600f600088815260200190815260200160002060030160149054906101000a900460ff16600f6000898152602001908152602001600020600401604051612810939291906152a6565b60405180910390a3505050565b60007f80ac58cd000000000000000000000000000000000000000000000000000000007bffffffffffffffffffffffffffffffffffffffffffffffffffffffff1916827bffffffffffffffffffffffffffffffffffffffffffffffffffffffff191614806128e857507f5b5e139f000000000000000000000000000000000000000000000000000000007bffffffffffffffffffffffffffffffffffffffffffffffffffffffff1916827bffffffffffffffffffffffffffffffffffffffffffffffffffffffff1916145b806128f857506128f7826132e8565b5b9050919050565b60008061290b83613352565b9050600073ffffffffffffffffffffffffffffffffffffffff168173ffffffffffffffffffffffffffffffffffffffff160361297e57826040517f7e2732890000000000000000000000000000000000000000000000000000000081526004016129759190614090565b60405180910390fd5b80915050919050565b60006004600083815260200190815260200160002060009054906101000a900473ffffffffffffffffffffffffffffffffffffffff169050919050565b600033905090565b6129d9838383600161338f565b505050565b6000806129ea84613352565b9050600073ffffffffffffffffffffffffffffffffffffffff168373ffffffffffffffffffffffffffffffffffffffff1614612a2c57612a2b818486613554565b5b600073ffffffffffffffffffffffffffffffffffffffff168173ffffffffffffffffffffffffffffffffffffffff1614612abd57612a6e60008560008061338f565b6001600360008373ffffffffffffffffffffffffffffffffffffffff1673ffffffffffffffffffffffffffffffffffffffff168152602001908152602001600020600082825403925050819055505b600073ffffffffffffffffffffffffffffffffffffffff168573ffffffffffffffffffffffffffffffffffffffff1614612b40576001600360008773ffffffffffffffffffffffffffffffffffffffff1673ffffffffffffffffffffffffffffffffffffffff168152602001908152602001600020600082825401925050819055505b846002600086815260200190815260200160002060006101000a81548173ffffffffffffffffffffffffffffffffffffffff021916908373ffffffffffffffffffffffffffffffffffffffff160217905550838573ffffffffffffffffffffffffffffffffffffffff168273ffffffffffffffffffffffffffffffffffffffff167fddf252ad1be2c89b69c2b068fc378daa952ba7f163c4a11628f55a4df523b3ef60405160405180910390a4809150509392505050565b600260075403612c34576040517f3ee5aeb500000000000000000000000000000000000000000000000000000000815260040160405180910390fd5b6002600781905550565b6001600781905550565b6000612c5760008360006129de565b9050600073ffffffffffffffffffffffffffffffffffffffff168173ffffffffffffffffffffffffffffffffffffffff1603612cca57816040517f7e273289000000000000000000000000000000000000000000000000000000008152600401612cc19190614090565b60405180910390fd5b5050565b600073ffffffffffffffffffffffffffffffffffffffff168273ffffffffffffffffffffffffffffffffffffffff1603612d3f57816040517f5b08ba18000000000000000000000000000000000000000000000000000000008152600401612d369190613cca565b60405180910390fd5b80600560008573ffffffffffffffffffffffffffffffffffffffff1673ffffffffffffffffffffffffffffffffffffffff16815260200190815260200160002060008473ffffffffffffffffffffffffffffffffffffffff1673ffffffffffffffffffffffffffffffffffffffff16815260200190815260200160002060006101000a81548160ff0219169083151502179055508173ffffffffffffffffffffffffffffffffffffffff168373ffffffffffffffffffffffffffffffffffffffff167f17307eab39ab6107e8899845ad3d59bd9653f200f220920489ca2b5937696c3183604051612e309190613b17565b60405180910390a3505050565b600073ffffffffffffffffffffffffffffffffffffffff168273ffffffffffffffffffffffffffffffffffffffff1603612eaf5760006040517f64a0ae92000000000000000000000000000000000000000000000000000000008152600401612ea69190613cca565b60405180910390fd5b6000612ebd838360006129de565b9050600073ffffffffffffffffffffffffffffffffffffffff168173ffffffffffffffffffffffffffffffffffffffff1603612f3057816040517f7e273289000000000000000000000000000000000000000000000000000000008152600401612f279190614090565b60405180910390fd5b8373ffffffffffffffffffffffffffffffffffffffff168173ffffffffffffffffffffffffffffffffffffffff1614612fa4578382826040517f64283d7b000000000000000000000000000000000000000000000000000000008152600401612f9b9392919061481b565b60405180910390fd5b50505050565b60008373ffffffffffffffffffffffffffffffffffffffff163b111561315b578273ffffffffffffffffffffffffffffffffffffffff1663150b7a02612fee6129c4565b8685856040518563ffffffff1660e01b815260040161301094939291906152e4565b6020604051808303816000875af192505050801561304c57506040513d601f19601f820116820180604052508101906130499190615345565b60015b6130d0573d806000811461307c576040519150601f19603f3d011682016040523d82523d6000602084013e613081565b606091505b5060008151036130c857836040517f64a0ae920000000000000000000000000000000000000000000000000000000081526004016130bf9190613cca565b60405180910390fd5b805181602001fd5b63150b7a0260e01b7bffffffffffffffffffffffffffffffffffffffffffffffffffffffff1916817bffffffffffffffffffffffffffffffffffffffffffffffffffffffff19161461315957836040517f64a0ae920000000000000000000000000000000000000000000000000000000081526004016131509190613cca565b60405180910390fd5b505b50505050565b600073ffffffffffffffffffffffffffffffffffffffff168273ffffffffffffffffffffffffffffffffffffffff16036131d35760006040517f64a0ae920000000000000000000000000000000000000000000000000000000081526004016131ca9190613cca565b60405180910390fd5b60006131e1838360006129de565b9050600073ffffffffffffffffffffffffffffffffffffffff168173ffffffffffffffffffffffffffffffffffffffff16146132555760006040517f73c6ac6e00000000000000000000000000000000000000000000000000000000815260040161324c9190613cca565b60405180910390fd5b505050565b6132648282613618565b5050565b606060405180602001604052806000815250905090565b606061328a826128ff565b506000613295613268565b905060008151116132b557604051806020016040528060008152506132e0565b806132bf84613674565b6040516020016132d0929190614e74565b6040516020818303038152906040525b915050919050565b60007f01ffc9a7000000000000000000000000000000000000000000000000000000007bffffffffffffffffffffffffffffffffffffffffffffffffffffffff1916827bffffffffffffffffffffffffffffffffffffffffffffffffffffffff1916149050919050565b60006002600083815260200190815260200160002060009054906101000a900473ffffffffffffffffffffffffffffffffffffffff169050919050565b80806133c85750600073ffffffffffffffffffffffffffffffffffffffff168273ffffffffffffffffffffffffffffffffffffffff1614155b156134fc5760006133d8846128ff565b9050600073ffffffffffffffffffffffffffffffffffffffff168373ffffffffffffffffffffffffffffffffffffffff161415801561344357508273ffffffffffffffffffffffffffffffffffffffff168173ffffffffffffffffffffffffffffffffffffffff1614155b8015613456575061345481846122a3565b155b1561349857826040517fa9fbf51f00000000000000000000000000000000000000000000000000000000815260040161348f9190613cca565b60405180910390fd5b81156134fa57838573ffffffffffffffffffffffffffffffffffffffff168273ffffffffffffffffffffffffffffffffffffffff167f8c5be1e5ebec7d5bd14f71427d1e84f3dd0314c0f7b2291e5b200ac8c7c3b92560405160405180910390a45b505b836004600085815260200190815260200160002060006101000a81548173ffffffffffffffffffffffffffffffffffffffff021916908373ffffffffffffffffffffffffffffffffffffffff16021790555050505050565b61355f838383613742565b61361357600073ffffffffffffffffffffffffffffffffffffffff168373ffffffffffffffffffffffffffffffffffffffff16036135d457806040517f7e2732890000000000000000000000000000000000000000000000000000000081526004016135cb9190614090565b60405180910390fd5b81816040517f177e802f00000000000000000000000000000000000000000000000000000000815260040161360a929190615372565b60405180910390fd5b505050565b8060066000848152602001908152602001600020908161363891906150a6565b507ff8e1a15aba9398e019f0b49df1a4fde98ee17ae345cb5f6b5e2c27f5033e8ce7826040516136689190614090565b60405180910390a15050565b60606000600161368384613803565b01905060008167ffffffffffffffff8111156136a2576136a16140eb565b5b6040519080825280601f01601f1916602001820160405280156136d45781602001600182028036833780820191505090505b509050600082602001820190505b600115613737578080600190039150507f3031323334353637383961626364656600000000000000000000000000000000600a86061a8153600a858161372b5761372a614be7565b5b049450600085036136e2575b819350505050919050565b60008073ffffffffffffffffffffffffffffffffffffffff168373ffffffffffffffffffffffffffffffffffffffff16141580156137fa57508273ffffffffffffffffffffffffffffffffffffffff168473ffffffffffffffffffffffffffffffffffffffff1614806137bb57506137ba84846122a3565b5b806137f957508273ffffffffffffffffffffffffffffffffffffffff166137e183612987565b73ffffffffffffffffffffffffffffffffffffffff16145b5b90509392505050565b600080600090507a184f03e93ff9f4daa797ed6e38ed64bf6a1f0100000000000000008310613861577a184f03e93ff9f4daa797ed6e38ed64bf6a1f010000000000000000838161385757613856614be7565b5b0492506040810190505b6d04ee2d6d415b85acef8100000000831061389e576d04ee2d6d415b85acef8100000000838161389457613893614be7565b5b0492506020810190505b662386f26fc1000083106138cd57662386f26fc1000083816138c3576138c2614be7565b5b0492506010810190505b6305f5e10083106138f6576305f5e10083816138ec576138eb614be7565b5b0492506008810190505b612710831061391b57612710838161391157613910614be7565b5b0492506004810190505b6064831061393e576064838161393457613933614be7565b5b0492506002810190505b600a831061394d576001810190505b80915050919050565b6040518060c0016040528060008152602001600073ffffffffffffffffffffffffffffffffffffffff16815260200160008152602001600073ffffffffffffffffffffffffffffffffffffffff168152602001600015158152602001606081525090565b600082825260208201905092915050565b7f5468697320636f6e747261637420646f6573206e6f742061636365707420457460008201527f6865720000000000000000000000000000000000000000000000000000000000602082015250565b6000613a276023836139ba565b9150613a32826139cb565b604082019050919050565b60006020820190508181036000830152613a5681613a1a565b9050919050565b6000604051905090565b600080fd5b600080fd5b600073ffffffffffffffffffffffffffffffffffffffff82169050919050565b6000613a9c82613a71565b9050919050565b613aac81613a91565b8114613ab757600080fd5b50565b600081359050613ac981613aa3565b92915050565b600060208284031215613ae557613ae4613a67565b5b6000613af384828501613aba565b91505092915050565b60008115159050919050565b613b1181613afc565b82525050565b6000602082019050613b2c6000830184613b08565b92915050565b60007fffffffff0000000000000000000000000000000000000000000000000000000082169050919050565b613b6781613b32565b8114613b7257600080fd5b50565b600081359050613b8481613b5e565b92915050565b600060208284031215613ba057613b9f613a67565b5b6000613bae84828501613b75565b91505092915050565b600081519050919050565b60005b83811015613be0578082015181840152602081019050613bc5565b60008484015250505050565b6000601f19601f8301169050919050565b6000613c0882613bb7565b613c1281856139ba565b9350613c22818560208601613bc2565b613c2b81613bec565b840191505092915050565b60006020820190508181036000830152613c508184613bfd565b905092915050565b6000819050919050565b613c6b81613c58565b8114613c7657600080fd5b50565b600081359050613c8881613c62565b92915050565b600060208284031215613ca457613ca3613a67565b5b6000613cb284828501613c79565b91505092915050565b613cc481613a91565b82525050565b6000602082019050613cdf6000830184613cbb565b92915050565b60008060408385031215613cfc57613cfb613a67565b5b6000613d0a85828601613aba565b9250506020613d1b85828601613c79565b9150509250929050565b600081519050919050565b600082825260208201905092915050565b6000819050602082019050919050565b613d5a81613c58565b82525050565b613d6981613a91565b82525050565b613d7881613afc565b82525050565b600082825260208201905092915050565b6000613d9a82613bb7565b613da48185613d7e565b9350613db4818560208601613bc2565b613dbd81613bec565b840191505092915050565b600060c083016000830151613de06000860182613d51565b506020830151613df36020860182613d60565b506040830151613e066040860182613d51565b506060830151613e196060860182613d60565b506080830151613e2c6080860182613d6f565b5060a083015184820360a0860152613e448282613d8f565b9150508091505092915050565b6000613e5d8383613dc8565b905092915050565b6000602082019050919050565b6000613e7d82613d25565b613e878185613d30565b935083602082028501613e9985613d41565b8060005b85811015613ed55784840389528151613eb68582613e51565b9450613ec183613e65565b925060208a01995050600181019050613e9d565b50829750879550505050505092915050565b60006020820190508181036000830152613f018184613e72565b905092915050565b600080600060608486031215613f2257613f21613a67565b5b6000613f3086828701613aba565b9350506020613f4186828701613aba565b9250506040613f5286828701613c79565b9150509250925092565b6000819050919050565b6000613f81613f7c613f7784613a71565b613f5c565b613a71565b9050919050565b6000613f9382613f66565b9050919050565b6000613fa582613f88565b9050919050565b613fb581613f9a565b82525050565b6000602082019050613fd06000830184613fac565b92915050565b600060c083016000830151613fee6000860182613d51565b5060208301516140016020860182613d60565b5060408301516140146040860182613d51565b5060608301516140276060860182613d60565b50608083015161403a6080860182613d6f565b5060a083015184820360a08601526140528282613d8f565b9150508091505092915050565b600060208201905081810360008301526140798184613fd6565b905092915050565b61408a81613c58565b82525050565b60006020820190506140a56000830184614081565b92915050565b6000819050919050565b6140be816140ab565b81146140c957600080fd5b50565b6000813590506140db816140b5565b92915050565b600080fd5b600080fd5b7f4e487b7100000000000000000000000000000000000000000000000000000000600052604160045260246000fd5b61412382613bec565b810181811067ffffffffffffffff82111715614142576141416140eb565b5b80604052505050565b6000614155613a5d565b9050614161828261411a565b919050565b600067ffffffffffffffff821115614181576141806140eb565b5b61418a82613bec565b9050602081019050919050565b82818337600083830152505050565b60006141b96141b484614166565b61414b565b9050828152602081018484840111156141d5576141d46140e6565b5b6141e0848285614197565b509392505050565b600082601f8301126141fd576141fc6140e1565b5b813561420d8482602086016141a6565b91505092915050565b60008060006060848603121561422f5761422e613a67565b5b600061423d86828701613c79565b935050602061424e868287016140cc565b925050604084013567ffffffffffffffff81111561426f5761426e613a6c565b5b61427b868287016141e8565b9150509250925092565b600061429082613f88565b9050919050565b6142a081614285565b82525050565b60006020820190506142bb6000830184614297565b92915050565b6142ca816140ab565b82525050565b60006020820190506142e560008301846142c1565b92915050565b6000806040838503121561430257614301613a67565b5b600083013567ffffffffffffffff8111156143205761431f613a6c565b5b61432c858286016141e8565b925050602061433d858286016140cc565b9150509250929050565b61435081613afc565b811461435b57600080fd5b50565b60008135905061436d81614347565b92915050565b6000806040838503121561438a57614389613a67565b5b600061439885828601613aba565b92505060206143a98582860161435e565b9150509250929050565b600080604083850312156143ca576143c9613a67565b5b60006143d885828601613c79565b92505060206143e985828601613c79565b9150509250929050565b6000806000806080858703121561440d5761440c613a67565b5b600061441b87828801613aba565b945050602061442c87828801613aba565b935050604061443d87828801613c79565b925050606085013567ffffffffffffffff81111561445e5761445d613a6c565b5b61446a878288016141e8565b91505092959194509250565b600067ffffffffffffffff821115614491576144906140eb565b5b61449a82613bec565b9050602081019050919050565b60006144ba6144b584614476565b61414b565b9050828152602081018484840111156144d6576144d56140e6565b5b6144e1848285614197565b509392505050565b600082601f8301126144fe576144fd6140e1565b5b813561450e8482602086016144a7565b91505092915050565b6000806000606084860312156145305761452f613a67565b5b600084013567ffffffffffffffff81111561454e5761454d613a6c565b5b61455a868287016144e9565b935050602061456b86828701613c79565b925050604084013567ffffffffffffffff81111561458c5761458b613a6c565b5b614598868287016144e9565b9150509250925092565b600080604083850312156145b9576145b8613a67565b5b60006145c785828601613c79565b925050602083013567ffffffffffffffff8111156145e8576145e7613a6c565b5b6145f4858286016144e9565b9150509250929050565b6000806040838503121561461557614614613a67565b5b600061462385828601613aba565b925050602061463485828601613aba565b9150509250929050565b60008060006060848603121561465757614656613a67565b5b600061466586828701613c79565b935050602061467686828701613c79565b925050604084013567ffffffffffffffff81111561469757614696613a6c565b5b6146a3868287016144e9565b9150509250925092565b600060c0820190506146c26000830189614081565b6146cf6020830188613cbb565b6146dc6040830187614081565b6146e96060830186613cbb565b6146f66080830185613b08565b81810360a08301526147088184613bfd565b9050979650505050505050565b7f4e487b7100000000000000000000000000000000000000000000000000000000600052602260045260246000fd5b6000600282049050600182168061475c57607f821691505b60208210810361476f5761476e614715565b5b50919050565b7f4e487b7100000000000000000000000000000000000000000000000000000000600052601160045260246000fd5b60006147af82613c58565b91507fffffffffffffffffffffffffffffffffffffffffffffffffffffffffffffffff82036147e1576147e0614775565b5b600182019050919050565b7f4e487b7100000000000000000000000000000000000000000000000000000000600052603260045260246000fd5b60006060820190506148306000830186613cbb565b61483d6020830185614081565b61484a6040830184613cbb565b949350505050565b7f4e6f2070726f636565647320746f207769746864726177000000000000000000600082015250565b60006148886017836139ba565b915061489382614852565b602082019050919050565b600060208201905081810360008301526148b78161487b565b9050919050565b600081905092915050565b50565b60006148d96000836148be565b91506148e4826148c9565b600082019050919050565b60006148fa826148cc565b9150819050919050565b7f5472616e73666572206661696c65640000000000000000000000000000000000600082015250565b600061493a600f836139ba565b915061494582614904565b602082019050919050565b600060208201905081810360008301526149698161492d565b9050919050565b7f4e4654206973206e6f7420636f6d70726f6d6973656400000000000000000000600082015250565b60006149a66016836139ba565b91506149b182614970565b602082019050919050565b600060208201905081810360008301526149d581614999565b9050919050565b7f4b5943206e6f7420766572696669656400000000000000000000000000000000600082015250565b6000614a126010836139ba565b9150614a1d826149dc565b602082019050919050565b60006020820190508181036000830152614a4181614a05565b9050919050565b600081519050919050565b600082825260208201905092915050565b6000614a6f82614a48565b614a798185614a53565b9350614a89818560208601613bc2565b614a9281613bec565b840191505092915050565b60006040820190508181036000830152614ab78185614a64565b9050614ac660208301846142c1565b9392505050565b600081519050614adc81614347565b92915050565b600060208284031215614af857614af7613a67565b5b6000614b0684828501614acd565b91505092915050565b7f496e76616c696420646f63756d656e742070726f6f6600000000000000000000600082015250565b6000614b456016836139ba565b9150614b5082614b0f565b602082019050919050565b60006020820190508181036000830152614b7481614b38565b9050919050565b7f4974656d206e6f74206c697374656420666f722073616c650000000000000000600082015250565b6000614bb16018836139ba565b9150614bbc82614b7b565b602082019050919050565b60006020820190508181036000830152614be081614ba4565b9050919050565b7f4e487b7100000000000000000000000000000000000000000000000000000000600052601260045260246000fd5b6000614c2182613c58565b9150614c2c83613c58565b925082614c3c57614c3b614be7565b5b828204905092915050565b6000614c5282613c58565b9150614c5d83613c58565b9250828201905080821115614c7557614c74614775565b5b92915050565b7f507269636520706c757320666565206e6f74206d657400000000000000000000600082015250565b6000614cb16016836139ba565b9150614cbc82614c7b565b602082019050919050565b60006020820190508181036000830152614ce081614ca4565b9050919050565b600081519050614cf681613c62565b92915050565b600060208284031215614d1257614d11613a67565b5b6000614d2084828501614ce7565b91505092915050565b7f696e73756666696369656e742066756e64000000000000000000000000000000600082015250565b6000614d5f6011836139ba565b9150614d6a82614d29565b602082019050919050565b60006020820190508181036000830152614d8e81614d52565b9050919050565b6000606082019050614daa6000830186613cbb565b614db76020830185613cbb565b614dc46040830184614081565b949350505050565b7f546f6b656e207472616e73666572206661696c65640000000000000000000000600082015250565b6000614e026015836139ba565b9150614e0d82614dcc565b602082019050919050565b60006020820190508181036000830152614e3181614df5565b9050919050565b600081905092915050565b6000614e4e82613bb7565b614e588185614e38565b9350614e68818560208601613bc2565b80840191505092915050565b6000614e808285614e43565b9150614e8c8284614e43565b91508190509392505050565b7f43616c6c6572206973206e6f7420746865206f776e6572000000000000000000600082015250565b6000614ece6017836139ba565b9150614ed982614e98565b602082019050919050565b60006020820190508181036000830152614efd81614ec1565b9050919050565b60008190508160005260206000209050919050565b60006020601f8301049050919050565b600082821b905092915050565b600060088302614f667fffffffffffffffffffffffffffffffffffffffffffffffffffffffffffffffff82614f29565b614f708683614f29565b95508019841693508086168417925050509392505050565b6000614fa3614f9e614f9984613c58565b613f5c565b613c58565b9050919050565b6000819050919050565b614fbd83614f88565b614fd1614fc982614faa565b848454614f36565b825550505050565b600090565b614fe6614fd9565b614ff1818484614fb4565b505050565b5b818110156150155761500a600082614fde565b600181019050614ff7565b5050565b601f82111561505a5761502b81614f04565b61503484614f19565b81016020851015615043578190505b61505761504f85614f19565b830182614ff6565b50505b505050565b600082821c905092915050565b600061507d6000198460080261505f565b1980831691505092915050565b6000615096838361506c565b9150826002028217905092915050565b6150af82613bb7565b67ffffffffffffffff8111156150c8576150c76140eb565b5b6150d28254614744565b6150dd828285615019565b600060209050601f83116001811461511057600084156150fe578287015190505b615108858261508a565b865550615170565b601f19841661511e86614f04565b60005b8281101561514657848901518255600182019150602085019450602081019050615121565b86831015615163578489015161515f601f89168261506c565b8355505b6001600288020188555050505b505050505050565b600060608201905061518d6000830186614081565b61519a6020830185613b08565b81810360408301526151ac8184613bfd565b9050949350505050565b7f5072696365206d7573742062652061626f7665207a65726f0000000000000000600082015250565b60006151ec6018836139ba565b91506151f7826151b6565b602082019050919050565b6000602082019050818103600083015261521b816151df565b9050919050565b6000815461522f81614744565b61523981866139ba565b94506001821660008114615254576001811461526a5761529d565b60ff19831686528115156020028601935061529d565b61527385614f04565b60005b8381101561529557815481890152600182019150602081019050615276565b808801955050505b50505092915050565b60006060820190506152bb6000830186614081565b6152c86020830185613b08565b81810360408301526152da8184615222565b9050949350505050565b60006080820190506152f96000830187613cbb565b6153066020830186613cbb565b6153136040830185614081565b81810360608301526153258184614a64565b905095945050505050565b60008151905061533f81613b5e565b92915050565b60006020828403121561535b5761535a613a67565b5b600061536984828501615330565b91505092915050565b60006040820190506153876000830185613cbb565b6153946020830184614081565b939250505056fea26469706673582212201935a2f4d79f7dbbfe42b6a985f9d8d2c0058077a7e1c4533c7b714f42b7110664736f6c63430008180033",
  "linkReferences": {},
  "deployedLinkReferences": {}
}