{
  "_format": "hh-sol-artifact-1",
  "contractName": "Verifier",
  "sourceName": "contracts/Verifier.sol",
  "abi": [
    {
      "inputs": [
        {
          "internalType": "bytes",
          "name": "zkProof",
          "type": "bytes"
        },
        {
          "internalType": "bytes32",
          "name": "documentHash",
          "type": "bytes32"
        }
      ],
      "name": "verify",
      "outputs": [
        {
          "internalType": "bool",
          "name": "isValid",
          "type": "bool"
        }
      ],
      "stateMutability": "pure",
      "type": "function"
    }
  ],
  "bytecode": "0x608060405234801561001057600080fd5b506102d1806100206000396000f3fe608060405234801561001057600080fd5b506004361061002b5760003560e01c80636b40634114610030575b600080fd5b61004a60048036038101906100459190610209565b610060565b6040516100579190610280565b60405180910390f35b6000808380519060200120905082811491505092915050565b6000604051905090565b600080fd5b600080fd5b600080fd5b600080fd5b6000601f19601f8301169050919050565b7f4e487b7100000000000000000000000000000000000000000000000000000000600052604160045260246000fd5b6100e082610097565b810181811067ffffffffffffffff821117156100ff576100fe6100a8565b5b80604052505050565b6000610112610079565b905061011e82826100d7565b919050565b600067ffffffffffffffff82111561013e5761013d6100a8565b5b61014782610097565b9050602081019050919050565b82818337600083830152505050565b600061017661017184610123565b610108565b90508281526020810184848401111561019257610191610092565b5b61019d848285610154565b509392505050565b600082601f8301126101ba576101b961008d565b5b81356101ca848260208601610163565b91505092915050565b6000819050919050565b6101e6816101d3565b81146101f157600080fd5b50565b600081359050610203816101dd565b92915050565b600080604083850312156102205761021f610083565b5b600083013567ffffffffffffffff81111561023e5761023d610088565b5b61024a858286016101a5565b925050602061025b858286016101f4565b9150509250929050565b60008115159050919050565b61027a81610265565b82525050565b60006020820190506102956000830184610271565b9291505056fea2646970667358221220e1943126f7ca47396d9a53f7024638b97a5dad4db6965b4be4bd1696f72c6e1b64736f6c63430008180033",
  "linkReferences": {},
  "deployedLinkReferences": {}
}